{
	"data": {
		"bytecode": {
			"linkReferences": {},
			"object": "6080604052662386f26fc10000600c556012600d556002808111156200002a57620000296200032e565b5b600e60006101000a81548160ff021916908360ff1602179055506040518060800160405280604381526020016200537760439139600f90805190602001906200007592919062000248565b50604051806080016040528060438152602001620053776043913960109080519060200190620000a792919062000248565b50348015620000b557600080fd5b506040518060400160405280600e81526020017f4f4e452048495420576561706f6e0000000000000000000000000000000000008152506040518060400160405280600481526020017f4f4854570000000000000000000000000000000000000000000000000000000081525062000142620001366200017c60201b60201c565b6200018460201b60201c565b81600190805190602001906200015a92919062000248565b5080600290805190602001906200017392919062000248565b5050506200038c565b600033905090565b60008060009054906101000a900473ffffffffffffffffffffffffffffffffffffffff169050816000806101000a81548173ffffffffffffffffffffffffffffffffffffffff021916908373ffffffffffffffffffffffffffffffffffffffff1602179055508173ffffffffffffffffffffffffffffffffffffffff168173ffffffffffffffffffffffffffffffffffffffff167f8be0079c531659141344cd1fd0a4f28419497f9722a3daafe3b4186f6b6457e060405160405180910390a35050565b8280546200025690620002f8565b90600052602060002090601f0160209004810192826200027a5760008555620002c6565b82601f106200029557805160ff1916838001178555620002c6565b82800160010185558215620002c6579182015b82811115620002c5578251825591602001919060010190620002a8565b5b509050620002d59190620002d9565b5090565b5b80821115620002f4576000816000905550600101620002da565b5090565b600060028204905060018216806200031157607f821691505b602082108114156200032857620003276200035d565b5b50919050565b7f4e487b7100000000000000000000000000000000000000000000000000000000600052602160045260246000fd5b7f4e487b7100000000000000000000000000000000000000000000000000000000600052602260045260246000fd5b614fdb806200039c6000396000f3fe6080604052600436106101d85760003560e01c80636cb80c6f11610102578063b88d4fde11610095578063cd3840a911610064578063cd3840a9146106e9578063e985e9c514610714578063f2fde38b14610751578063fda54c161461077a576101d8565b8063b88d4fde1461062f578063be95592e14610658578063c5e0cb6514610681578063c87b56dd146106ac576101d8565b80638da5cb5b116100d15780638da5cb5b1461058557806395d89b41146105b0578063a035b1fe146105db578063a22cb46514610606576101d8565b80636cb80c6f146104d857806370a0823114610508578063715018a614610545578063720152901461055c576101d8565b80632f745c591161017a5780634f6ccce7116101495780634f6ccce7146103f857806355f804b3146104355780636352211e1461045e578063691562a01461049b576101d8565b80632f745c591461032a578063313ce5671461036757806342842e0e146103925780634d75906f146103bb576101d8565b8063095ea7b3116101b6578063095ea7b3146102825780630ccde8ce146102ab57806318160ddd146102d657806323b872dd14610301576101d8565b806301ffc9a7146101dd57806306fdde031461021a578063081812fc14610245575b600080fd5b3480156101e957600080fd5b5061020460048036038101906101ff919061369b565b6107b7565b6040516102119190613dfd565b60405180910390f35b34801561022657600080fd5b5061022f610831565b60405161023c9190613e4e565b60405180910390f35b34801561025157600080fd5b5061026c6004803603810190610267919061376b565b6108c3565b6040516102799190613d74565b60405180910390f35b34801561028e57600080fd5b506102a960048036038101906102a4919061361b565b610948565b005b3480156102b757600080fd5b506102c0610a60565b6040516102cd9190613e33565b60405180910390f35b3480156102e257600080fd5b506102eb610a86565b6040516102f8919061420b565b60405180910390f35b34801561030d57600080fd5b5061032860048036038101906103239190613505565b610a93565b005b34801561033657600080fd5b50610351600480360381019061034c919061361b565b610af3565b60405161035e919061420b565b60405180910390f35b34801561037357600080fd5b5061037c610b98565b604051610389919061420b565b60405180910390f35b34801561039e57600080fd5b506103b960048036038101906103b49190613505565b610b9e565b005b3480156103c757600080fd5b506103e260048036038101906103dd9190613498565b610bbe565b6040516103ef9190613ddb565b60405180910390f35b34801561040457600080fd5b5061041f600480360381019061041a919061376b565b610c6c565b60405161042c919061420b565b60405180910390f35b34801561044157600080fd5b5061045c600480360381019061045791906136f5565b610cdd565b005b34801561046a57600080fd5b506104856004803603810190610480919061376b565b610d73565b6040516104929190613d74565b60405180910390f35b3480156104a757600080fd5b506104c260048036038101906104bd919061365b565b610e25565b6040516104cf91906141f0565b60405180910390f35b6104f260048036038101906104ed919061376b565b611217565b6040516104ff91906141f0565b60405180910390f35b34801561051457600080fd5b5061052f600480360381019061052a9190613498565b611496565b60405161053c919061420b565b60405180910390f35b34801561055157600080fd5b5061055a61154e565b005b34801561056857600080fd5b50610583600480360381019061057e9190613498565b6115d6565b005b34801561059157600080fd5b5061059a611706565b6040516105a79190613d74565b60405180910390f35b3480156105bc57600080fd5b506105c561172f565b6040516105d29190613e4e565b60405180910390f35b3480156105e757600080fd5b506105f06117c1565b6040516105fd919061420b565b60405180910390f35b34801561061257600080fd5b5061062d600480360381019061062891906135db565b6117c7565b005b34801561063b57600080fd5b5061065660048036038101906106519190613558565b6117dd565b005b34801561066457600080fd5b5061067f600480360381019061067a9190613498565b61183f565b005b34801561068d57600080fd5b5061069661196f565b6040516106a39190613e18565b60405180910390f35b3480156106b857600080fd5b506106d360048036038101906106ce919061376b565b611995565b6040516106e09190613e4e565b60405180910390f35b3480156106f557600080fd5b506106fe611b81565b60405161070b9190614226565b60405180910390f35b34801561072057600080fd5b5061073b600480360381019061073691906134c5565b611b94565b6040516107489190613dfd565b60405180910390f35b34801561075d57600080fd5b5061077860048036038101906107739190613498565b611c28565b005b34801561078657600080fd5b506107a1600480360381019061079c919061376b565b611d20565b6040516107ae91906141f0565b60405180910390f35b60007f780e9d63000000000000000000000000000000000000000000000000000000007bffffffffffffffffffffffffffffffffffffffffffffffffffffffff1916827bffffffffffffffffffffffffffffffffffffffffffffffffffffffff1916148061082a575061082982611e37565b5b9050919050565b6060600180546108409061461a565b80601f016020809104026020016040519081016040528092919081815260200182805461086c9061461a565b80156108b95780601f1061088e576101008083540402835291602001916108b9565b820191906000526020600020905b81548152906001019060200180831161089c57829003601f168201915b5050505050905090565b60006108ce82611f19565b61090d576040517f08c379a000000000000000000000000000000000000000000000000000000000815260040161090490614090565b60405180910390fd5b6005600083815260200190815260200160002060009054906101000a900473ffffffffffffffffffffffffffffffffffffffff169050919050565b600061095382610d73565b90508073ffffffffffffffffffffffffffffffffffffffff168373ffffffffffffffffffffffffffffffffffffffff1614156109c4576040517f08c379a00000000000000000000000000000000000000000000000000000000081526004016109bb90614170565b60405180910390fd5b8073ffffffffffffffffffffffffffffffffffffffff166109e3611f85565b73ffffffffffffffffffffffffffffffffffffffff161480610a125750610a1181610a0c611f85565b611b94565b5b610a51576040517f08c379a0000000000000000000000000000000000000000000000000000000008152600401610a4890613ff0565b60405180910390fd5b610a5b8383611f8d565b505050565b601360009054906101000a900473ffffffffffffffffffffffffffffffffffffffff1681565b6000600980549050905090565b610aa4610a9e611f85565b82612046565b610ae3576040517f08c379a0000000000000000000000000000000000000000000000000000000008152600401610ada90614190565b60405180910390fd5b610aee838383612124565b505050565b6000610afe83611496565b8210610b3f576040517f08c379a0000000000000000000000000000000000000000000000000000000008152600401610b3690613e90565b60405180910390fd5b600760008473ffffffffffffffffffffffffffffffffffffffff1673ffffffffffffffffffffffffffffffffffffffff168152602001908152602001600020600083815260200190815260200160002054905092915050565b600d5481565b610bb9838383604051806020016040528060008152506117dd565b505050565b60606000610bcb83611496565b905060008167ffffffffffffffff811115610be957610be86147b1565b5b604051908082528060200260200182016040528015610c175781602001602082028036833780820191505090505b50905060005b82811015610c6157610c2f8582610af3565b828281518110610c4257610c41614782565b5b6020026020010181815250508080610c599061467d565b915050610c1d565b508092505050919050565b6000610c76610a86565b8210610cb7576040517f08c379a0000000000000000000000000000000000000000000000000000000008152600401610cae906141b0565b60405180910390fd5b60098281548110610ccb57610cca614782565b5b90600052602060002001549050919050565b610ce5611f85565b73ffffffffffffffffffffffffffffffffffffffff16610d03611706565b73ffffffffffffffffffffffffffffffffffffffff1614610d59576040517f08c379a0000000000000000000000000000000000000000000000000000000008152600401610d50906140b0565b60405180910390fd5b80600f9080519060200190610d6f929190613194565b5050565b6000806003600084815260200190815260200160002060009054906101000a900473ffffffffffffffffffffffffffffffffffffffff169050600073ffffffffffffffffffffffffffffffffffffffff168173ffffffffffffffffffffffffffffffffffffffff161415610e1c576040517f08c379a0000000000000000000000000000000000000000000000000000000008152600401610e1390614030565b60405180910390fd5b80915050919050565b610e2d61321a565b600073ffffffffffffffffffffffffffffffffffffffff168373ffffffffffffffffffffffffffffffffffffffff161415610e9d576040517f08c379a0000000000000000000000000000000000000000000000000000000008152600401610e94906140d0565b60405180910390fd5b60006002811115610eb157610eb06146f5565b5b60ff168260ff1611610ef8576040517f08c379a0000000000000000000000000000000000000000000000000000000008152600401610eef90614130565b60405180910390fd5b600280811115610f0b57610f0a6146f5565b5b60ff168260ff1610610f52576040517f08c379a0000000000000000000000000000000000000000000000000000000008152600401610f4990614130565b60405180910390fd5b6000601360009054906101000a900473ffffffffffffffffffffffffffffffffffffffff1673ffffffffffffffffffffffffffffffffffffffff16634591d523846040518263ffffffff1660e01b8152600401610faf9190614226565b60c06040518083038186803b158015610fc757600080fd5b505afa158015610fdb573d6000803e3d6000fd5b505050506040513d601f19601f82011682018060405250810190610fff919061373e565b90506000816000015111611048576040517f08c379a000000000000000000000000000000000000000000000000000000000815260040161103f90613fb0565b60405180910390fd5b601260009054906101000a900473ffffffffffffffffffffffffffffffffffffffff1673ffffffffffffffffffffffffffffffffffffffff166397ea9be9856040518263ffffffff1660e01b81526004016110a39190613d74565b602060405180830381600087803b1580156110bd57600080fd5b505af11580156110d1573d6000803e3d6000fd5b505050506040513d601f19601f820116820180604052508101906110f59190613798565b8160a001818152505061110b816000015161238b565b8160200181815250506111218160000151612429565b81604001818152505082816060019060ff16908160ff1681525050611146600b6124c7565b6000611152600b6124dd565b905061115e85826124eb565b816011600083815260200190815260200160002060008201518160000155602082015181600101556040820151816002015560608201518160030160006101000a81548160ff021916908360ff1602179055506080820151816004015560a08201518160050155905050803373ffffffffffffffffffffffffffffffffffffffff167f3fffaa5804a26fcec0d70b1d0fb0a2d0031df3a5f9c8af2127c2f4360e97b46360405160405180910390a3819250505092915050565b61121f61321a565b600082905061122d81611f19565b61126c576040517f08c379a0000000000000000000000000000000000000000000000000000000008152600401611263906141d0565b60405180910390fd5b3373ffffffffffffffffffffffffffffffffffffffff1661128c82610d73565b73ffffffffffffffffffffffffffffffffffffffff16146112e2576040517f08c379a00000000000000000000000000000000000000000000000000000000081526004016112d990613f70565b60405180910390fd5b34600c541115611327576040517f08c379a000000000000000000000000000000000000000000000000000000000815260040161131e90613e70565b60405180910390fd5b6000601160008381526020019081526020016000206040518060c00160405290816000820154815260200160018201548152602001600282015481526020016003820160009054906101000a900460ff1660ff1660ff168152602001600482015481526020016005820154815250509050600181600001516113a99190614339565b8160000181815250506113bf816000015161238b565b8160200181815250506113d58160000151612429565b816040018181525050806011600084815260200190815260200160002060008201518160000155602082015181600101556040820151816002015560608201518160030160006101000a81548160ff021916908360ff1602179055506080820151816004015560a08201518160050155905050813373ffffffffffffffffffffffffffffffffffffffff167f6388defca1c14da002a9bed8461803e017b3dd122c61f675c20173c48a1dce6c60405160405180910390a38092505050919050565b60008073ffffffffffffffffffffffffffffffffffffffff168273ffffffffffffffffffffffffffffffffffffffff161415611507576040517f08c379a00000000000000000000000000000000000000000000000000000000081526004016114fe90614010565b60405180910390fd5b600460008373ffffffffffffffffffffffffffffffffffffffff1673ffffffffffffffffffffffffffffffffffffffff168152602001908152602001600020549050919050565b611556611f85565b73ffffffffffffffffffffffffffffffffffffffff16611574611706565b73ffffffffffffffffffffffffffffffffffffffff16146115ca576040517f08c379a00000000000000000000000000000000000000000000000000000000081526004016115c1906140b0565b60405180910390fd5b6115d460006126c5565b565b6115de611f85565b73ffffffffffffffffffffffffffffffffffffffff166115fc611706565b73ffffffffffffffffffffffffffffffffffffffff1614611652576040517f08c379a0000000000000000000000000000000000000000000000000000000008152600401611649906140b0565b60405180910390fd5b600073ffffffffffffffffffffffffffffffffffffffff168173ffffffffffffffffffffffffffffffffffffffff1614156116c2576040517f08c379a00000000000000000000000000000000000000000000000000000000081526004016116b9906140f0565b60405180910390fd5b80601260006101000a81548173ffffffffffffffffffffffffffffffffffffffff021916908373ffffffffffffffffffffffffffffffffffffffff16021790555050565b60008060009054906101000a900473ffffffffffffffffffffffffffffffffffffffff16905090565b60606002805461173e9061461a565b80601f016020809104026020016040519081016040528092919081815260200182805461176a9061461a565b80156117b75780601f1061178c576101008083540402835291602001916117b7565b820191906000526020600020905b81548152906001019060200180831161179a57829003601f168201915b5050505050905090565b600c5481565b6117d96117d2611f85565b8383612789565b5050565b6117ee6117e8611f85565b83612046565b61182d576040517f08c379a000000000000000000000000000000000000000000000000000000000815260040161182490614190565b60405180910390fd5b611839848484846128f6565b50505050565b611847611f85565b73ffffffffffffffffffffffffffffffffffffffff16611865611706565b73ffffffffffffffffffffffffffffffffffffffff16146118bb576040517f08c379a00000000000000000000000000000000000000000000000000000000081526004016118b2906140b0565b60405180910390fd5b600073ffffffffffffffffffffffffffffffffffffffff168173ffffffffffffffffffffffffffffffffffffffff16141561192b576040517f08c379a000000000000000000000000000000000000000000000000000000000815260040161192290613ed0565b60405180910390fd5b80601360006101000a81548173ffffffffffffffffffffffffffffffffffffffff021916908373ffffffffffffffffffffffffffffffffffffffff16021790555050565b601260009054906101000a900473ffffffffffffffffffffffffffffffffffffffff1681565b60606119a082611f19565b6119df576040517f08c379a00000000000000000000000000000000000000000000000000000000081526004016119d690614110565b60405180910390fd5b6000601160008481526020019081526020016000206040518060c00160405290816000820154815260200160018201548152602001600282015481526020016003820160009054906101000a900460ff1660ff1660ff1681526020016004820154815260200160058201548152505090506000816000015111611a97576040517f08c379a0000000000000000000000000000000000000000000000000000000008152600401611a8e90614150565b60405180910390fd5b60016002811115611aab57611aaa6146f5565b5b816060015160ff166002811115611ac557611ac46146f5565b5b6002811115611ad757611ad66146f5565b5b1415611b705760108054611aea9061461a565b80601f0160208091040260200160405190810160405280929190818152602001828054611b169061461a565b8015611b635780601f10611b3857610100808354040283529160200191611b63565b820191906000526020600020905b815481529060010190602001808311611b4657829003601f168201915b5050505050915050611b7c565b611b78612952565b9150505b919050565b600e60009054906101000a900460ff1681565b6000600660008473ffffffffffffffffffffffffffffffffffffffff1673ffffffffffffffffffffffffffffffffffffffff16815260200190815260200160002060008373ffffffffffffffffffffffffffffffffffffffff1673ffffffffffffffffffffffffffffffffffffffff16815260200190815260200160002060009054906101000a900460ff16905092915050565b611c30611f85565b73ffffffffffffffffffffffffffffffffffffffff16611c4e611706565b73ffffffffffffffffffffffffffffffffffffffff1614611ca4576040517f08c379a0000000000000000000000000000000000000000000000000000000008152600401611c9b906140b0565b60405180910390fd5b600073ffffffffffffffffffffffffffffffffffffffff168173ffffffffffffffffffffffffffffffffffffffff161415611d14576040517f08c379a0000000000000000000000000000000000000000000000000000000008152600401611d0b90613ef0565b60405180910390fd5b611d1d816126c5565b50565b611d2861321a565b6000829050611d3681611f19565b611d75576040517f08c379a0000000000000000000000000000000000000000000000000000000008152600401611d6c906141d0565b60405180910390fd5b6000601160008381526020019081526020016000206040518060c00160405290816000820154815260200160018201548152602001600282015481526020016003820160009054906101000a900460ff1660ff1660ff1681526020016004820154815260200160058201548152505090506000816000015111611e2d576040517f08c379a0000000000000000000000000000000000000000000000000000000008152600401611e2490614150565b60405180910390fd5b8092505050919050565b60007f80ac58cd000000000000000000000000000000000000000000000000000000007bffffffffffffffffffffffffffffffffffffffffffffffffffffffff1916827bffffffffffffffffffffffffffffffffffffffffffffffffffffffff19161480611f0257507f5b5e139f000000000000000000000000000000000000000000000000000000007bffffffffffffffffffffffffffffffffffffffffffffffffffffffff1916827bffffffffffffffffffffffffffffffffffffffffffffffffffffffff1916145b80611f125750611f11826129e4565b5b9050919050565b60008073ffffffffffffffffffffffffffffffffffffffff166003600084815260200190815260200160002060009054906101000a900473ffffffffffffffffffffffffffffffffffffffff1673ffffffffffffffffffffffffffffffffffffffff1614159050919050565b600033905090565b816005600083815260200190815260200160002060006101000a81548173ffffffffffffffffffffffffffffffffffffffff021916908373ffffffffffffffffffffffffffffffffffffffff160217905550808273ffffffffffffffffffffffffffffffffffffffff1661200083610d73565b73ffffffffffffffffffffffffffffffffffffffff167f8c5be1e5ebec7d5bd14f71427d1e84f3dd0314c0f7b2291e5b200ac8c7c3b92560405160405180910390a45050565b600061205182611f19565b612090576040517f08c379a000000000000000000000000000000000000000000000000000000000815260040161208790613fd0565b60405180910390fd5b600061209b83610d73565b90508073ffffffffffffffffffffffffffffffffffffffff168473ffffffffffffffffffffffffffffffffffffffff16148061210a57508373ffffffffffffffffffffffffffffffffffffffff166120f2846108c3565b73ffffffffffffffffffffffffffffffffffffffff16145b8061211b575061211a8185611b94565b5b91505092915050565b8273ffffffffffffffffffffffffffffffffffffffff1661214482610d73565b73ffffffffffffffffffffffffffffffffffffffff161461219a576040517f08c379a000000000000000000000000000000000000000000000000000000000815260040161219190613f10565b60405180910390fd5b600073ffffffffffffffffffffffffffffffffffffffff168273ffffffffffffffffffffffffffffffffffffffff16141561220a576040517f08c379a000000000000000000000000000000000000000000000000000000000815260040161220190613f50565b60405180910390fd5b612215838383612a4e565b612220600082611f8d565b6001600460008573ffffffffffffffffffffffffffffffffffffffff1673ffffffffffffffffffffffffffffffffffffffff16815260200190815260200160002060008282546122709190614486565b925050819055506001600460008473ffffffffffffffffffffffffffffffffffffffff1673ffffffffffffffffffffffffffffffffffffffff16815260200190815260200160002060008282546122c79190614339565b92505081905550816003600083815260200190815260200160002060006101000a81548173ffffffffffffffffffffffffffffffffffffffff021916908373ffffffffffffffffffffffffffffffffffffffff160217905550808273ffffffffffffffffffffffffffffffffffffffff168473ffffffffffffffffffffffffffffffffffffffff167fddf252ad1be2c89b69c2b068fc378daa952ba7f163c4a11628f55a4df523b3ef60405160405180910390a4612386838383612b62565b505050565b60008082116123cf576040517f08c379a00000000000000000000000000000000000000000000000000000000081526004016123c690614070565b60405180910390fd5b60006123e66006846123e19190614339565b612b67565b905060006123f382612b8a565b905060dc61240c605a83612407919061438f565b612cae565b61241691906144ba565b67ffffffffffffffff1692505050919050565b600080821161246d576040517f08c379a000000000000000000000000000000000000000000000000000000000815260040161246490614070565b60405180910390fd5b600061248460068461247f9190614339565b612b67565b9050600061249182612b8a565b905060dc6124aa606e836124a5919061438f565b612cae565b6124b491906144ba565b67ffffffffffffffff1692505050919050565b6001816000016000828254019250508190555050565b600081600001549050919050565b600073ffffffffffffffffffffffffffffffffffffffff168273ffffffffffffffffffffffffffffffffffffffff16141561255b576040517f08c379a000000000000000000000000000000000000000000000000000000000815260040161255290614050565b60405180910390fd5b61256481611f19565b156125a4576040517f08c379a000000000000000000000000000000000000000000000000000000000815260040161259b90613f30565b60405180910390fd5b6125b060008383612a4e565b6001600460008473ffffffffffffffffffffffffffffffffffffffff1673ffffffffffffffffffffffffffffffffffffffff16815260200190815260200160002060008282546126009190614339565b92505081905550816003600083815260200190815260200160002060006101000a81548173ffffffffffffffffffffffffffffffffffffffff021916908373ffffffffffffffffffffffffffffffffffffffff160217905550808273ffffffffffffffffffffffffffffffffffffffff16600073ffffffffffffffffffffffffffffffffffffffff167fddf252ad1be2c89b69c2b068fc378daa952ba7f163c4a11628f55a4df523b3ef60405160405180910390a46126c160008383612b62565b5050565b60008060009054906101000a900473ffffffffffffffffffffffffffffffffffffffff169050816000806101000a81548173ffffffffffffffffffffffffffffffffffffffff021916908373ffffffffffffffffffffffffffffffffffffffff1602179055508173ffffffffffffffffffffffffffffffffffffffff168173ffffffffffffffffffffffffffffffffffffffff167f8be0079c531659141344cd1fd0a4f28419497f9722a3daafe3b4186f6b6457e060405160405180910390a35050565b8173ffffffffffffffffffffffffffffffffffffffff168373ffffffffffffffffffffffffffffffffffffffff1614156127f8576040517f08c379a00000000000000000000000000000000000000000000000000000000081526004016127ef90613f90565b60405180910390fd5b80600660008573ffffffffffffffffffffffffffffffffffffffff1673ffffffffffffffffffffffffffffffffffffffff16815260200190815260200160002060008473ffffffffffffffffffffffffffffffffffffffff1673ffffffffffffffffffffffffffffffffffffffff16815260200190815260200160002060006101000a81548160ff0219169083151502179055508173ffffffffffffffffffffffffffffffffffffffff168373ffffffffffffffffffffffffffffffffffffffff167f17307eab39ab6107e8899845ad3d59bd9653f200f220920489ca2b5937696c31836040516128e99190613dfd565b60405180910390a3505050565b612901848484612124565b61290d84848484612ccf565b61294c576040517f08c379a000000000000000000000000000000000000000000000000000000000815260040161294390613eb0565b60405180910390fd5b50505050565b6060600f80546129619061461a565b80601f016020809104026020016040519081016040528092919081815260200182805461298d9061461a565b80156129da5780601f106129af576101008083540402835291602001916129da565b820191906000526020600020905b8154815290600101906020018083116129bd57829003601f168201915b5050505050905090565b60007f01ffc9a7000000000000000000000000000000000000000000000000000000007bffffffffffffffffffffffffffffffffffffffffffffffffffffffff1916827bffffffffffffffffffffffffffffffffffffffffffffffffffffffff1916149050919050565b612a59838383612e66565b600073ffffffffffffffffffffffffffffffffffffffff168373ffffffffffffffffffffffffffffffffffffffff161415612a9c57612a9781612e6b565b612adb565b8173ffffffffffffffffffffffffffffffffffffffff168373ffffffffffffffffffffffffffffffffffffffff1614612ada57612ad98382612eb4565b5b5b600073ffffffffffffffffffffffffffffffffffffffff168273ffffffffffffffffffffffffffffffffffffffff161415612b1e57612b1981613021565b612b5d565b8273ffffffffffffffffffffffffffffffffffffffff168273ffffffffffffffffffffffffffffffffffffffff1614612b5c57612b5b82826130f2565b5b5b505050565b505050565b6000677fffffffffffffff821115612b7e57600080fd5b604082901b9050919050565b60008082600f0b13612b9b57600080fd5b60008083600f0b9050680100000000000000008112612bc257604081901d90506040820191505b6401000000008112612bdc57602081901d90506020820191505b620100008112612bf457601081901d90506010820191505b6101008112612c0b57600881901d90506008820191505b60108112612c2157600481901d90506004820191505b60048112612c3757600281901d90506002820191505b60028112612c46576001820191505b60006040808403901b9050600083607f0386600f0b901b9050600067800000000000000090505b6000811315612ca1578182029150600060ff83901c905080607f0183901c92508082028401935050600181901d9050612c6d565b5081945050505050919050565b60008082600f0b1215612cc057600080fd5b604082600f0b901d9050919050565b6000612cf08473ffffffffffffffffffffffffffffffffffffffff16613171565b15612e59578373ffffffffffffffffffffffffffffffffffffffff1663150b7a02612d19611f85565b8786866040518563ffffffff1660e01b8152600401612d3b9493929190613d8f565b602060405180830381600087803b158015612d5557600080fd5b505af1925050508015612d8657506040513d601f19601f82011682018060405250810190612d8391906136c8565b60015b612e09573d8060008114612db6576040519150601f19603f3d011682016040523d82523d6000602084013e612dbb565b606091505b50600081511415612e01576040517f08c379a0000000000000000000000000000000000000000000000000000000008152600401612df890613eb0565b60405180910390fd5b805181602001fd5b63150b7a0260e01b7bffffffffffffffffffffffffffffffffffffffffffffffffffffffff1916817bffffffffffffffffffffffffffffffffffffffffffffffffffffffff191614915050612e5e565b600190505b949350505050565b505050565b600980549050600a600083815260200190815260200160002081905550600981908060018154018082558091505060019003906000526020600020016000909190919091505550565b60006001612ec184611496565b612ecb9190614486565b9050600060086000848152602001908152602001600020549050818114612fb0576000600760008673ffffffffffffffffffffffffffffffffffffffff1673ffffffffffffffffffffffffffffffffffffffff168152602001908152602001600020600084815260200190815260200160002054905080600760008773ffffffffffffffffffffffffffffffffffffffff1673ffffffffffffffffffffffffffffffffffffffff168152602001908152602001600020600084815260200190815260200160002081905550816008600083815260200190815260200160002081905550505b6008600084815260200190815260200160002060009055600760008573ffffffffffffffffffffffffffffffffffffffff1673ffffffffffffffffffffffffffffffffffffffff16815260200190815260200160002060008381526020019081526020016000206000905550505050565b600060016009805490506130359190614486565b90506000600a600084815260200190815260200160002054905060006009838154811061306557613064614782565b5b90600052602060002001549050806009838154811061308757613086614782565b5b906000526020600020018190555081600a600083815260200190815260200160002081905550600a60008581526020019081526020016000206000905560098054806130d6576130d5614753565b5b6001900381819060005260206000200160009055905550505050565b60006130fd83611496565b905081600760008573ffffffffffffffffffffffffffffffffffffffff1673ffffffffffffffffffffffffffffffffffffffff168152602001908152602001600020600083815260200190815260200160002081905550806008600084815260200190815260200160002081905550505050565b6000808273ffffffffffffffffffffffffffffffffffffffff163b119050919050565b8280546131a09061461a565b90600052602060002090601f0160209004810192826131c25760008555613209565b82601f106131db57805160ff1916838001178555613209565b82800160010185558215613209579182015b828111156132085782518255916020019190600101906131ed565b5b5090506132169190613253565b5090565b6040518060c00160405280600081526020016000815260200160008152602001600060ff16815260200160008152602001600081525090565b5b8082111561326c576000816000905550600101613254565b5090565b600061328361327e84614266565b614241565b90508281526020810184848401111561329f5761329e6147ea565b5b6132aa8482856145d8565b509392505050565b60006132c56132c084614297565b614241565b9050828152602081018484840111156132e1576132e06147ea565b5b6132ec8482856145d8565b509392505050565b60008135905061330381614f32565b92915050565b60008135905061331881614f49565b92915050565b60008135905061332d81614f60565b92915050565b60008151905061334281614f60565b92915050565b600082601f83011261335d5761335c6147e0565b5b813561336d848260208601613270565b91505092915050565b600082601f83011261338b5761338a6147e0565b5b813561339b8482602086016132b2565b91505092915050565b600060c082840312156133ba576133b96147e5565b5b6133c460c0614241565b905060006133d484828501613459565b60008301525060206133e884828501613459565b60208301525060406133fc84828501613459565b604083015250606061341084828501613483565b606083015250608061342484828501613459565b60808301525060a061343884828501613459565b60a08301525092915050565b60008135905061345381614f77565b92915050565b60008151905061346881614f77565b92915050565b60008135905061347d81614f8e565b92915050565b60008151905061349281614f8e565b92915050565b6000602082840312156134ae576134ad6147f4565b5b60006134bc848285016132f4565b91505092915050565b600080604083850312156134dc576134db6147f4565b5b60006134ea858286016132f4565b92505060206134fb858286016132f4565b9150509250929050565b60008060006060848603121561351e5761351d6147f4565b5b600061352c868287016132f4565b935050602061353d868287016132f4565b925050604061354e86828701613444565b9150509250925092565b60008060008060808587031215613572576135716147f4565b5b6000613580878288016132f4565b9450506020613591878288016132f4565b93505060406135a287828801613444565b925050606085013567ffffffffffffffff8111156135c3576135c26147ef565b5b6135cf87828801613348565b91505092959194509250565b600080604083850312156135f2576135f16147f4565b5b6000613600858286016132f4565b925050602061361185828601613309565b9150509250929050565b60008060408385031215613632576136316147f4565b5b6000613640858286016132f4565b925050602061365185828601613444565b9150509250929050565b60008060408385031215613672576136716147f4565b5b6000613680858286016132f4565b92505060206136918582860161346e565b9150509250929050565b6000602082840312156136b1576136b06147f4565b5b60006136bf8482850161331e565b91505092915050565b6000602082840312156136de576136dd6147f4565b5b60006136ec84828501613333565b91505092915050565b60006020828403121561370b5761370a6147f4565b5b600082013567ffffffffffffffff811115613729576137286147ef565b5b61373584828501613376565b91505092915050565b600060c08284031215613754576137536147f4565b5b6000613762848285016133a4565b91505092915050565b600060208284031215613781576137806147f4565b5b600061378f84828501613444565b91505092915050565b6000602082840312156137ae576137ad6147f4565b5b60006137bc84828501613459565b91505092915050565b60006137d18383613d38565b60208301905092915050565b6137e6816144ee565b82525050565b60006137f7826142d8565b6138018185614306565b935061380c836142c8565b8060005b8381101561383d57815161382488826137c5565b975061382f836142f9565b925050600181019050613810565b5085935050505092915050565b61385381614500565b82525050565b6000613864826142e3565b61386e8185614317565b935061387e8185602086016145e7565b613887816147f9565b840191505092915050565b61389b81614590565b82525050565b6138aa816145a2565b82525050565b60006138bb826142ee565b6138c58185614328565b93506138d58185602086016145e7565b6138de816147f9565b840191505092915050565b60006138f6601c83614328565b91506139018261480a565b602082019050919050565b6000613919602b83614328565b915061392482614833565b604082019050919050565b600061393c603283614328565b915061394782614882565b604082019050919050565b600061395f601583614328565b915061396a826148d1565b602082019050919050565b6000613982602683614328565b915061398d826148fa565b604082019050919050565b60006139a5602583614328565b91506139b082614949565b604082019050919050565b60006139c8601c83614328565b91506139d382614998565b602082019050919050565b60006139eb602483614328565b91506139f6826149c1565b604082019050919050565b6000613a0e602583614328565b9150613a1982614a10565b604082019050919050565b6000613a31601983614328565b9150613a3c82614a5f565b602082019050919050565b6000613a54602083614328565b9150613a5f82614a88565b602082019050919050565b6000613a77602c83614328565b9150613a8282614ab1565b604082019050919050565b6000613a9a603883614328565b9150613aa582614b00565b604082019050919050565b6000613abd602a83614328565b9150613ac882614b4f565b604082019050919050565b6000613ae0602983614328565b9150613aeb82614b9e565b604082019050919050565b6000613b03602083614328565b9150613b0e82614bed565b602082019050919050565b6000613b26601e83614328565b9150613b3182614c16565b602082019050919050565b6000613b49602c83614328565b9150613b5482614c3f565b604082019050919050565b6000613b6c602083614328565b9150613b7782614c8e565b602082019050919050565b6000613b8f602d83614328565b9150613b9a82614cb7565b604082019050919050565b6000613bb2601283614328565b9150613bbd82614d06565b602082019050919050565b6000613bd5602f83614328565b9150613be082614d2f565b604082019050919050565b6000613bf8602883614328565b9150613c0382614d7e565b604082019050919050565b6000613c1b602183614328565b9150613c2682614dcd565b604082019050919050565b6000613c3e602183614328565b9150613c4982614e1c565b604082019050919050565b6000613c61603183614328565b9150613c6c82614e6b565b604082019050919050565b6000613c84602c83614328565b9150613c8f82614eba565b604082019050919050565b6000613ca7601c83614328565b9150613cb282614f09565b602082019050919050565b60c082016000820151613cd36000850182613d38565b506020820151613ce66020850182613d38565b506040820151613cf96040850182613d38565b506060820151613d0c6060850182613d56565b506080820151613d1f6080850182613d38565b5060a0820151613d3260a0850182613d38565b50505050565b613d4181614565565b82525050565b613d5081614565565b82525050565b613d5f81614583565b82525050565b613d6e81614583565b82525050565b6000602082019050613d8960008301846137dd565b92915050565b6000608082019050613da460008301876137dd565b613db160208301866137dd565b613dbe6040830185613d47565b8181036060830152613dd08184613859565b905095945050505050565b60006020820190508181036000830152613df581846137ec565b905092915050565b6000602082019050613e12600083018461384a565b92915050565b6000602082019050613e2d6000830184613892565b92915050565b6000602082019050613e4860008301846138a1565b92915050565b60006020820190508181036000830152613e6881846138b0565b905092915050565b60006020820190508181036000830152613e89816138e9565b9050919050565b60006020820190508181036000830152613ea98161390c565b9050919050565b60006020820190508181036000830152613ec98161392f565b9050919050565b60006020820190508181036000830152613ee981613952565b9050919050565b60006020820190508181036000830152613f0981613975565b9050919050565b60006020820190508181036000830152613f2981613998565b9050919050565b60006020820190508181036000830152613f49816139bb565b9050919050565b60006020820190508181036000830152613f69816139de565b9050919050565b60006020820190508181036000830152613f8981613a01565b9050919050565b60006020820190508181036000830152613fa981613a24565b9050919050565b60006020820190508181036000830152613fc981613a47565b9050919050565b60006020820190508181036000830152613fe981613a6a565b9050919050565b6000602082019050818103600083015261400981613a8d565b9050919050565b6000602082019050818103600083015261402981613ab0565b9050919050565b6000602082019050818103600083015261404981613ad3565b9050919050565b6000602082019050818103600083015261406981613af6565b9050919050565b6000602082019050818103600083015261408981613b19565b9050919050565b600060208201905081810360008301526140a981613b3c565b9050919050565b600060208201905081810360008301526140c981613b5f565b9050919050565b600060208201905081810360008301526140e981613b82565b9050919050565b6000602082019050818103600083015261410981613ba5565b9050919050565b6000602082019050818103600083015261412981613bc8565b9050919050565b6000602082019050818103600083015261414981613beb565b9050919050565b6000602082019050818103600083015261416981613c0e565b9050919050565b6000602082019050818103600083015261418981613c31565b9050919050565b600060208201905081810360008301526141a981613c54565b9050919050565b600060208201905081810360008301526141c981613c77565b9050919050565b600060208201905081810360008301526141e981613c9a565b9050919050565b600060c0820190506142056000830184613cbd565b92915050565b60006020820190506142206000830184613d47565b92915050565b600060208201905061423b6000830184613d65565b92915050565b600061424b61425c565b9050614257828261464c565b919050565b6000604051905090565b600067ffffffffffffffff821115614281576142806147b1565b5b61428a826147f9565b9050602081019050919050565b600067ffffffffffffffff8211156142b2576142b16147b1565b5b6142bb826147f9565b9050602081019050919050565b6000819050602082019050919050565b600081519050919050565b600081519050919050565b600081519050919050565b6000602082019050919050565b600082825260208201905092915050565b600082825260208201905092915050565b600082825260208201905092915050565b600061434482614565565b915061434f83614565565b9250827fffffffffffffffffffffffffffffffffffffffffffffffffffffffffffffffff03821115614384576143836146c6565b5b828201905092915050565b600061439a82614538565b91506143a583614538565b9250826f7fffffffffffffffffffffffffffffff04821160008413600084131616156143d4576143d36146c6565b5b817fffffffffffffffffffffffffffffffff800000000000000000000000000000000583126000841260008413161615614411576144106146c6565b5b827fffffffffffffffffffffffffffffffff80000000000000000000000000000000058212600084136000841216161561444e5761444d6146c6565b5b826f7fffffffffffffffffffffffffffffff058212600084126000841216161561447b5761447a6146c6565b5b828202905092915050565b600061449182614565565b915061449c83614565565b9250828210156144af576144ae6146c6565b5b828203905092915050565b60006144c58261456f565b91506144d08361456f565b9250828210156144e3576144e26146c6565b5b828203905092915050565b60006144f982614545565b9050919050565b60008115159050919050565b60007fffffffff0000000000000000000000000000000000000000000000000000000082169050919050565b600081600f0b9050919050565b600073ffffffffffffffffffffffffffffffffffffffff82169050919050565b6000819050919050565b600067ffffffffffffffff82169050919050565b600060ff82169050919050565b600061459b826145b4565b9050919050565b60006145ad826145b4565b9050919050565b60006145bf826145c6565b9050919050565b60006145d182614545565b9050919050565b82818337600083830152505050565b60005b838110156146055780820151818401526020810190506145ea565b83811115614614576000848401525b50505050565b6000600282049050600182168061463257607f821691505b6020821081141561464657614645614724565b5b50919050565b614655826147f9565b810181811067ffffffffffffffff82111715614674576146736147b1565b5b80604052505050565b600061468882614565565b91507fffffffffffffffffffffffffffffffffffffffffffffffffffffffffffffffff8214156146bb576146ba6146c6565b5b600182019050919050565b7f4e487b7100000000000000000000000000000000000000000000000000000000600052601160045260246000fd5b7f4e487b7100000000000000000000000000000000000000000000000000000000600052602160045260246000fd5b7f4e487b7100000000000000000000000000000000000000000000000000000000600052602260045260246000fd5b7f4e487b7100000000000000000000000000000000000000000000000000000000600052603160045260246000fd5b7f4e487b7100000000000000000000000000000000000000000000000000000000600052603260045260246000fd5b7f4e487b7100000000000000000000000000000000000000000000000000000000600052604160045260246000fd5b600080fd5b600080fd5b600080fd5b600080fd5b600080fd5b6000601f19601f8301169050919050565b7f4f48576561706f6e3a2042616c616e6365206e6f7420656e6f75676800000000600082015250565b7f455243373231456e756d657261626c653a206f776e657220696e646578206f7560008201527f74206f6620626f756e6473000000000000000000000000000000000000000000602082015250565b7f4552433732313a207472616e7366657220746f206e6f6e20455243373231526560008201527f63656976657220696d706c656d656e7465720000000000000000000000000000602082015250565b7f4d65746144617461204164647265737320497320300000000000000000000000600082015250565b7f4f776e61626c653a206e6577206f776e657220697320746865207a65726f206160008201527f6464726573730000000000000000000000000000000000000000000000000000602082015250565b7f4552433732313a207472616e736665722066726f6d20696e636f72726563742060008201527f6f776e6572000000000000000000000000000000000000000000000000000000602082015250565b7f4552433732313a20746f6b656e20616c7265616479206d696e74656400000000600082015250565b7f4552433732313a207472616e7366657220746f20746865207a65726f2061646460008201527f7265737300000000000000000000000000000000000000000000000000000000602082015250565b7f4f48576561706f6e3a20536f7272792c2049742773204e6f7420596f7572205760008201527f6561706f6e000000000000000000000000000000000000000000000000000000602082015250565b7f4552433732313a20617070726f766520746f2063616c6c657200000000000000600082015250565b7f4f48576561706f6e3a20576561706f6e204d65746144617461204572726f7221600082015250565b7f4552433732313a206f70657261746f7220717565727920666f72206e6f6e657860008201527f697374656e7420746f6b656e0000000000000000000000000000000000000000602082015250565b7f4552433732313a20617070726f76652063616c6c6572206973206e6f74206f7760008201527f6e6572206e6f7220617070726f76656420666f7220616c6c0000000000000000602082015250565b7f4552433732313a2062616c616e636520717565727920666f7220746865207a6560008201527f726f206164647265737300000000000000000000000000000000000000000000602082015250565b7f4552433732313a206f776e657220717565727920666f72206e6f6e657869737460008201527f656e7420746f6b656e0000000000000000000000000000000000000000000000602082015250565b7f4552433732313a206d696e7420746f20746865207a65726f2061646472657373600082015250565b7f4f4853776f72643a2053776f7264204d65746144617461204572726f72210000600082015250565b7f4552433732313a20617070726f76656420717565727920666f72206e6f6e657860008201527f697374656e7420746f6b656e0000000000000000000000000000000000000000602082015250565b7f4f776e61626c653a2063616c6c6572206973206e6f7420746865206f776e6572600082015250565b7f4f48576561706f6e3a20436f6e7472616374204572726f722c20506c6179657260008201527f2041646472657373204973203000000000000000000000000000000000000000602082015250565b7f47686f7374204164647265737320497320300000000000000000000000000000600082015250565b7f4552433732314d657461646174613a2055524920717565727920666f72206e6f60008201527f6e6578697374656e7420746f6b656e0000000000000000000000000000000000602082015250565b7f4f48576561706f6e3a20536f7272792c20446f6e27742048617665205375636860008201527f20576561706f6e21000000000000000000000000000000000000000000000000602082015250565b7f4f48576561706f6e3a204e6f6e6578697374656e7420576561706f6e2050726f60008201527f7000000000000000000000000000000000000000000000000000000000000000602082015250565b7f4552433732313a20617070726f76616c20746f2063757272656e74206f776e6560008201527f7200000000000000000000000000000000000000000000000000000000000000602082015250565b7f4552433732313a207472616e736665722063616c6c6572206973206e6f74206f60008201527f776e6572206e6f7220617070726f766564000000000000000000000000000000602082015250565b7f455243373231456e756d657261626c653a20676c6f62616c20696e646578206f60008201527f7574206f6620626f756e64730000000000000000000000000000000000000000602082015250565b7f4f48576561706f6e3a204e6f6e6578697374656e7420576561706f6e00000000600082015250565b614f3b816144ee565b8114614f4657600080fd5b50565b614f5281614500565b8114614f5d57600080fd5b50565b614f698161450c565b8114614f7457600080fd5b50565b614f8081614565565b8114614f8b57600080fd5b50565b614f9781614583565b8114614fa257600080fd5b5056fea264697066735822122008482a04e713405a6b137947e87403db4327800f8de3942aa230ff814e36581764736f6c63430008070033697066733a2f2f6261667962656962626674756374356a627273336333676778626c3433687966697675336b64786c6d6d71707a7634653237646b617662737062792f",
			"opcodes": "PUSH1 0x80 PUSH1 0x40 MSTORE PUSH7 0x2386F26FC10000 PUSH1 0xC SSTORE PUSH1 0x12 PUSH1 0xD SSTORE PUSH1 0x2 DUP1 DUP2 GT ISZERO PUSH3 0x2A JUMPI PUSH3 0x29 PUSH3 0x32E JUMP JUMPDEST JUMPDEST PUSH1 0xE PUSH1 0x0 PUSH2 0x100 EXP DUP2 SLOAD DUP2 PUSH1 0xFF MUL NOT AND SWAP1 DUP4 PUSH1 0xFF AND MUL OR SWAP1 SSTORE POP PUSH1 0x40 MLOAD DUP1 PUSH1 0x80 ADD PUSH1 0x40 MSTORE DUP1 PUSH1 0x43 DUP2 MSTORE PUSH1 0x20 ADD PUSH3 0x5377 PUSH1 0x43 SWAP2 CODECOPY PUSH1 0xF SWAP1 DUP1 MLOAD SWAP1 PUSH1 0x20 ADD SWAP1 PUSH3 0x75 SWAP3 SWAP2 SWAP1 PUSH3 0x248 JUMP JUMPDEST POP PUSH1 0x40 MLOAD DUP1 PUSH1 0x80 ADD PUSH1 0x40 MSTORE DUP1 PUSH1 0x43 DUP2 MSTORE PUSH1 0x20 ADD PUSH3 0x5377 PUSH1 0x43 SWAP2 CODECOPY PUSH1 0x10 SWAP1 DUP1 MLOAD SWAP1 PUSH1 0x20 ADD SWAP1 PUSH3 0xA7 SWAP3 SWAP2 SWAP1 PUSH3 0x248 JUMP JUMPDEST POP CALLVALUE DUP1 ISZERO PUSH3 0xB5 JUMPI PUSH1 0x0 DUP1 REVERT JUMPDEST POP PUSH1 0x40 MLOAD DUP1 PUSH1 0x40 ADD PUSH1 0x40 MSTORE DUP1 PUSH1 0xE DUP2 MSTORE PUSH1 0x20 ADD PUSH32 0x4F4E452048495420576561706F6E000000000000000000000000000000000000 DUP2 MSTORE POP PUSH1 0x40 MLOAD DUP1 PUSH1 0x40 ADD PUSH1 0x40 MSTORE DUP1 PUSH1 0x4 DUP2 MSTORE PUSH1 0x20 ADD PUSH32 0x4F48545700000000000000000000000000000000000000000000000000000000 DUP2 MSTORE POP PUSH3 0x142 PUSH3 0x136 PUSH3 0x17C PUSH1 0x20 SHL PUSH1 0x20 SHR JUMP JUMPDEST PUSH3 0x184 PUSH1 0x20 SHL PUSH1 0x20 SHR JUMP JUMPDEST DUP2 PUSH1 0x1 SWAP1 DUP1 MLOAD SWAP1 PUSH1 0x20 ADD SWAP1 PUSH3 0x15A SWAP3 SWAP2 SWAP1 PUSH3 0x248 JUMP JUMPDEST POP DUP1 PUSH1 0x2 SWAP1 DUP1 MLOAD SWAP1 PUSH1 0x20 ADD SWAP1 PUSH3 0x173 SWAP3 SWAP2 SWAP1 PUSH3 0x248 JUMP JUMPDEST POP POP POP PUSH3 0x38C JUMP JUMPDEST PUSH1 0x0 CALLER SWAP1 POP SWAP1 JUMP JUMPDEST PUSH1 0x0 DUP1 PUSH1 0x0 SWAP1 SLOAD SWAP1 PUSH2 0x100 EXP SWAP1 DIV PUSH20 0xFFFFFFFFFFFFFFFFFFFFFFFFFFFFFFFFFFFFFFFF AND SWAP1 POP DUP2 PUSH1 0x0 DUP1 PUSH2 0x100 EXP DUP2 SLOAD DUP2 PUSH20 0xFFFFFFFFFFFFFFFFFFFFFFFFFFFFFFFFFFFFFFFF MUL NOT AND SWAP1 DUP4 PUSH20 0xFFFFFFFFFFFFFFFFFFFFFFFFFFFFFFFFFFFFFFFF AND MUL OR SWAP1 SSTORE POP DUP2 PUSH20 0xFFFFFFFFFFFFFFFFFFFFFFFFFFFFFFFFFFFFFFFF AND DUP2 PUSH20 0xFFFFFFFFFFFFFFFFFFFFFFFFFFFFFFFFFFFFFFFF AND PUSH32 0x8BE0079C531659141344CD1FD0A4F28419497F9722A3DAAFE3B4186F6B6457E0 PUSH1 0x40 MLOAD PUSH1 0x40 MLOAD DUP1 SWAP2 SUB SWAP1 LOG3 POP POP JUMP JUMPDEST DUP3 DUP1 SLOAD PUSH3 0x256 SWAP1 PUSH3 0x2F8 JUMP JUMPDEST SWAP1 PUSH1 0x0 MSTORE PUSH1 0x20 PUSH1 0x0 KECCAK256 SWAP1 PUSH1 0x1F ADD PUSH1 0x20 SWAP1 DIV DUP2 ADD SWAP3 DUP3 PUSH3 0x27A JUMPI PUSH1 0x0 DUP6 SSTORE PUSH3 0x2C6 JUMP JUMPDEST DUP3 PUSH1 0x1F LT PUSH3 0x295 JUMPI DUP1 MLOAD PUSH1 0xFF NOT AND DUP4 DUP1 ADD OR DUP6 SSTORE PUSH3 0x2C6 JUMP JUMPDEST DUP3 DUP1 ADD PUSH1 0x1 ADD DUP6 SSTORE DUP3 ISZERO PUSH3 0x2C6 JUMPI SWAP2 DUP3 ADD JUMPDEST DUP3 DUP2 GT ISZERO PUSH3 0x2C5 JUMPI DUP3 MLOAD DUP3 SSTORE SWAP2 PUSH1 0x20 ADD SWAP2 SWAP1 PUSH1 0x1 ADD SWAP1 PUSH3 0x2A8 JUMP JUMPDEST JUMPDEST POP SWAP1 POP PUSH3 0x2D5 SWAP2 SWAP1 PUSH3 0x2D9 JUMP JUMPDEST POP SWAP1 JUMP JUMPDEST JUMPDEST DUP1 DUP3 GT ISZERO PUSH3 0x2F4 JUMPI PUSH1 0x0 DUP2 PUSH1 0x0 SWAP1 SSTORE POP PUSH1 0x1 ADD PUSH3 0x2DA JUMP JUMPDEST POP SWAP1 JUMP JUMPDEST PUSH1 0x0 PUSH1 0x2 DUP3 DIV SWAP1 POP PUSH1 0x1 DUP3 AND DUP1 PUSH3 0x311 JUMPI PUSH1 0x7F DUP3 AND SWAP2 POP JUMPDEST PUSH1 0x20 DUP3 LT DUP2 EQ ISZERO PUSH3 0x328 JUMPI PUSH3 0x327 PUSH3 0x35D JUMP JUMPDEST JUMPDEST POP SWAP2 SWAP1 POP JUMP JUMPDEST PUSH32 0x4E487B7100000000000000000000000000000000000000000000000000000000 PUSH1 0x0 MSTORE PUSH1 0x21 PUSH1 0x4 MSTORE PUSH1 0x24 PUSH1 0x0 REVERT JUMPDEST PUSH32 0x4E487B7100000000000000000000000000000000000000000000000000000000 PUSH1 0x0 MSTORE PUSH1 0x22 PUSH1 0x4 MSTORE PUSH1 0x24 PUSH1 0x0 REVERT JUMPDEST PUSH2 0x4FDB DUP1 PUSH3 0x39C PUSH1 0x0 CODECOPY PUSH1 0x0 RETURN INVALID PUSH1 0x80 PUSH1 0x40 MSTORE PUSH1 0x4 CALLDATASIZE LT PUSH2 0x1D8 JUMPI PUSH1 0x0 CALLDATALOAD PUSH1 0xE0 SHR DUP1 PUSH4 0x6CB80C6F GT PUSH2 0x102 JUMPI DUP1 PUSH4 0xB88D4FDE GT PUSH2 0x95 JUMPI DUP1 PUSH4 0xCD3840A9 GT PUSH2 0x64 JUMPI DUP1 PUSH4 0xCD3840A9 EQ PUSH2 0x6E9 JUMPI DUP1 PUSH4 0xE985E9C5 EQ PUSH2 0x714 JUMPI DUP1 PUSH4 0xF2FDE38B EQ PUSH2 0x751 JUMPI DUP1 PUSH4 0xFDA54C16 EQ PUSH2 0x77A JUMPI PUSH2 0x1D8 JUMP JUMPDEST DUP1 PUSH4 0xB88D4FDE EQ PUSH2 0x62F JUMPI DUP1 PUSH4 0xBE95592E EQ PUSH2 0x658 JUMPI DUP1 PUSH4 0xC5E0CB65 EQ PUSH2 0x681 JUMPI DUP1 PUSH4 0xC87B56DD EQ PUSH2 0x6AC JUMPI PUSH2 0x1D8 JUMP JUMPDEST DUP1 PUSH4 0x8DA5CB5B GT PUSH2 0xD1 JUMPI DUP1 PUSH4 0x8DA5CB5B EQ PUSH2 0x585 JUMPI DUP1 PUSH4 0x95D89B41 EQ PUSH2 0x5B0 JUMPI DUP1 PUSH4 0xA035B1FE EQ PUSH2 0x5DB JUMPI DUP1 PUSH4 0xA22CB465 EQ PUSH2 0x606 JUMPI PUSH2 0x1D8 JUMP JUMPDEST DUP1 PUSH4 0x6CB80C6F EQ PUSH2 0x4D8 JUMPI DUP1 PUSH4 0x70A08231 EQ PUSH2 0x508 JUMPI DUP1 PUSH4 0x715018A6 EQ PUSH2 0x545 JUMPI DUP1 PUSH4 0x72015290 EQ PUSH2 0x55C JUMPI PUSH2 0x1D8 JUMP JUMPDEST DUP1 PUSH4 0x2F745C59 GT PUSH2 0x17A JUMPI DUP1 PUSH4 0x4F6CCCE7 GT PUSH2 0x149 JUMPI DUP1 PUSH4 0x4F6CCCE7 EQ PUSH2 0x3F8 JUMPI DUP1 PUSH4 0x55F804B3 EQ PUSH2 0x435 JUMPI DUP1 PUSH4 0x6352211E EQ PUSH2 0x45E JUMPI DUP1 PUSH4 0x691562A0 EQ PUSH2 0x49B JUMPI PUSH2 0x1D8 JUMP JUMPDEST DUP1 PUSH4 0x2F745C59 EQ PUSH2 0x32A JUMPI DUP1 PUSH4 0x313CE567 EQ PUSH2 0x367 JUMPI DUP1 PUSH4 0x42842E0E EQ PUSH2 0x392 JUMPI DUP1 PUSH4 0x4D75906F EQ PUSH2 0x3BB JUMPI PUSH2 0x1D8 JUMP JUMPDEST DUP1 PUSH4 0x95EA7B3 GT PUSH2 0x1B6 JUMPI DUP1 PUSH4 0x95EA7B3 EQ PUSH2 0x282 JUMPI DUP1 PUSH4 0xCCDE8CE EQ PUSH2 0x2AB JUMPI DUP1 PUSH4 0x18160DDD EQ PUSH2 0x2D6 JUMPI DUP1 PUSH4 0x23B872DD EQ PUSH2 0x301 JUMPI PUSH2 0x1D8 JUMP JUMPDEST DUP1 PUSH4 0x1FFC9A7 EQ PUSH2 0x1DD JUMPI DUP1 PUSH4 0x6FDDE03 EQ PUSH2 0x21A JUMPI DUP1 PUSH4 0x81812FC EQ PUSH2 0x245 JUMPI JUMPDEST PUSH1 0x0 DUP1 REVERT JUMPDEST CALLVALUE DUP1 ISZERO PUSH2 0x1E9 JUMPI PUSH1 0x0 DUP1 REVERT JUMPDEST POP PUSH2 0x204 PUSH1 0x4 DUP1 CALLDATASIZE SUB DUP2 ADD SWAP1 PUSH2 0x1FF SWAP2 SWAP1 PUSH2 0x369B JUMP JUMPDEST PUSH2 0x7B7 JUMP JUMPDEST PUSH1 0x40 MLOAD PUSH2 0x211 SWAP2 SWAP1 PUSH2 0x3DFD JUMP JUMPDEST PUSH1 0x40 MLOAD DUP1 SWAP2 SUB SWAP1 RETURN JUMPDEST CALLVALUE DUP1 ISZERO PUSH2 0x226 JUMPI PUSH1 0x0 DUP1 REVERT JUMPDEST POP PUSH2 0x22F PUSH2 0x831 JUMP JUMPDEST PUSH1 0x40 MLOAD PUSH2 0x23C SWAP2 SWAP1 PUSH2 0x3E4E JUMP JUMPDEST PUSH1 0x40 MLOAD DUP1 SWAP2 SUB SWAP1 RETURN JUMPDEST CALLVALUE DUP1 ISZERO PUSH2 0x251 JUMPI PUSH1 0x0 DUP1 REVERT JUMPDEST POP PUSH2 0x26C PUSH1 0x4 DUP1 CALLDATASIZE SUB DUP2 ADD SWAP1 PUSH2 0x267 SWAP2 SWAP1 PUSH2 0x376B JUMP JUMPDEST PUSH2 0x8C3 JUMP JUMPDEST PUSH1 0x40 MLOAD PUSH2 0x279 SWAP2 SWAP1 PUSH2 0x3D74 JUMP JUMPDEST PUSH1 0x40 MLOAD DUP1 SWAP2 SUB SWAP1 RETURN JUMPDEST CALLVALUE DUP1 ISZERO PUSH2 0x28E JUMPI PUSH1 0x0 DUP1 REVERT JUMPDEST POP PUSH2 0x2A9 PUSH1 0x4 DUP1 CALLDATASIZE SUB DUP2 ADD SWAP1 PUSH2 0x2A4 SWAP2 SWAP1 PUSH2 0x361B JUMP JUMPDEST PUSH2 0x948 JUMP JUMPDEST STOP JUMPDEST CALLVALUE DUP1 ISZERO PUSH2 0x2B7 JUMPI PUSH1 0x0 DUP1 REVERT JUMPDEST POP PUSH2 0x2C0 PUSH2 0xA60 JUMP JUMPDEST PUSH1 0x40 MLOAD PUSH2 0x2CD SWAP2 SWAP1 PUSH2 0x3E33 JUMP JUMPDEST PUSH1 0x40 MLOAD DUP1 SWAP2 SUB SWAP1 RETURN JUMPDEST CALLVALUE DUP1 ISZERO PUSH2 0x2E2 JUMPI PUSH1 0x0 DUP1 REVERT JUMPDEST POP PUSH2 0x2EB PUSH2 0xA86 JUMP JUMPDEST PUSH1 0x40 MLOAD PUSH2 0x2F8 SWAP2 SWAP1 PUSH2 0x420B JUMP JUMPDEST PUSH1 0x40 MLOAD DUP1 SWAP2 SUB SWAP1 RETURN JUMPDEST CALLVALUE DUP1 ISZERO PUSH2 0x30D JUMPI PUSH1 0x0 DUP1 REVERT JUMPDEST POP PUSH2 0x328 PUSH1 0x4 DUP1 CALLDATASIZE SUB DUP2 ADD SWAP1 PUSH2 0x323 SWAP2 SWAP1 PUSH2 0x3505 JUMP JUMPDEST PUSH2 0xA93 JUMP JUMPDEST STOP JUMPDEST CALLVALUE DUP1 ISZERO PUSH2 0x336 JUMPI PUSH1 0x0 DUP1 REVERT JUMPDEST POP PUSH2 0x351 PUSH1 0x4 DUP1 CALLDATASIZE SUB DUP2 ADD SWAP1 PUSH2 0x34C SWAP2 SWAP1 PUSH2 0x361B JUMP JUMPDEST PUSH2 0xAF3 JUMP JUMPDEST PUSH1 0x40 MLOAD PUSH2 0x35E SWAP2 SWAP1 PUSH2 0x420B JUMP JUMPDEST PUSH1 0x40 MLOAD DUP1 SWAP2 SUB SWAP1 RETURN JUMPDEST CALLVALUE DUP1 ISZERO PUSH2 0x373 JUMPI PUSH1 0x0 DUP1 REVERT JUMPDEST POP PUSH2 0x37C PUSH2 0xB98 JUMP JUMPDEST PUSH1 0x40 MLOAD PUSH2 0x389 SWAP2 SWAP1 PUSH2 0x420B JUMP JUMPDEST PUSH1 0x40 MLOAD DUP1 SWAP2 SUB SWAP1 RETURN JUMPDEST CALLVALUE DUP1 ISZERO PUSH2 0x39E JUMPI PUSH1 0x0 DUP1 REVERT JUMPDEST POP PUSH2 0x3B9 PUSH1 0x4 DUP1 CALLDATASIZE SUB DUP2 ADD SWAP1 PUSH2 0x3B4 SWAP2 SWAP1 PUSH2 0x3505 JUMP JUMPDEST PUSH2 0xB9E JUMP JUMPDEST STOP JUMPDEST CALLVALUE DUP1 ISZERO PUSH2 0x3C7 JUMPI PUSH1 0x0 DUP1 REVERT JUMPDEST POP PUSH2 0x3E2 PUSH1 0x4 DUP1 CALLDATASIZE SUB DUP2 ADD SWAP1 PUSH2 0x3DD SWAP2 SWAP1 PUSH2 0x3498 JUMP JUMPDEST PUSH2 0xBBE JUMP JUMPDEST PUSH1 0x40 MLOAD PUSH2 0x3EF SWAP2 SWAP1 PUSH2 0x3DDB JUMP JUMPDEST PUSH1 0x40 MLOAD DUP1 SWAP2 SUB SWAP1 RETURN JUMPDEST CALLVALUE DUP1 ISZERO PUSH2 0x404 JUMPI PUSH1 0x0 DUP1 REVERT JUMPDEST POP PUSH2 0x41F PUSH1 0x4 DUP1 CALLDATASIZE SUB DUP2 ADD SWAP1 PUSH2 0x41A SWAP2 SWAP1 PUSH2 0x376B JUMP JUMPDEST PUSH2 0xC6C JUMP JUMPDEST PUSH1 0x40 MLOAD PUSH2 0x42C SWAP2 SWAP1 PUSH2 0x420B JUMP JUMPDEST PUSH1 0x40 MLOAD DUP1 SWAP2 SUB SWAP1 RETURN JUMPDEST CALLVALUE DUP1 ISZERO PUSH2 0x441 JUMPI PUSH1 0x0 DUP1 REVERT JUMPDEST POP PUSH2 0x45C PUSH1 0x4 DUP1 CALLDATASIZE SUB DUP2 ADD SWAP1 PUSH2 0x457 SWAP2 SWAP1 PUSH2 0x36F5 JUMP JUMPDEST PUSH2 0xCDD JUMP JUMPDEST STOP JUMPDEST CALLVALUE DUP1 ISZERO PUSH2 0x46A JUMPI PUSH1 0x0 DUP1 REVERT JUMPDEST POP PUSH2 0x485 PUSH1 0x4 DUP1 CALLDATASIZE SUB DUP2 ADD SWAP1 PUSH2 0x480 SWAP2 SWAP1 PUSH2 0x376B JUMP JUMPDEST PUSH2 0xD73 JUMP JUMPDEST PUSH1 0x40 MLOAD PUSH2 0x492 SWAP2 SWAP1 PUSH2 0x3D74 JUMP JUMPDEST PUSH1 0x40 MLOAD DUP1 SWAP2 SUB SWAP1 RETURN JUMPDEST CALLVALUE DUP1 ISZERO PUSH2 0x4A7 JUMPI PUSH1 0x0 DUP1 REVERT JUMPDEST POP PUSH2 0x4C2 PUSH1 0x4 DUP1 CALLDATASIZE SUB DUP2 ADD SWAP1 PUSH2 0x4BD SWAP2 SWAP1 PUSH2 0x365B JUMP JUMPDEST PUSH2 0xE25 JUMP JUMPDEST PUSH1 0x40 MLOAD PUSH2 0x4CF SWAP2 SWAP1 PUSH2 0x41F0 JUMP JUMPDEST PUSH1 0x40 MLOAD DUP1 SWAP2 SUB SWAP1 RETURN JUMPDEST PUSH2 0x4F2 PUSH1 0x4 DUP1 CALLDATASIZE SUB DUP2 ADD SWAP1 PUSH2 0x4ED SWAP2 SWAP1 PUSH2 0x376B JUMP JUMPDEST PUSH2 0x1217 JUMP JUMPDEST PUSH1 0x40 MLOAD PUSH2 0x4FF SWAP2 SWAP1 PUSH2 0x41F0 JUMP JUMPDEST PUSH1 0x40 MLOAD DUP1 SWAP2 SUB SWAP1 RETURN JUMPDEST CALLVALUE DUP1 ISZERO PUSH2 0x514 JUMPI PUSH1 0x0 DUP1 REVERT JUMPDEST POP PUSH2 0x52F PUSH1 0x4 DUP1 CALLDATASIZE SUB DUP2 ADD SWAP1 PUSH2 0x52A SWAP2 SWAP1 PUSH2 0x3498 JUMP JUMPDEST PUSH2 0x1496 JUMP JUMPDEST PUSH1 0x40 MLOAD PUSH2 0x53C SWAP2 SWAP1 PUSH2 0x420B JUMP JUMPDEST PUSH1 0x40 MLOAD DUP1 SWAP2 SUB SWAP1 RETURN JUMPDEST CALLVALUE DUP1 ISZERO PUSH2 0x551 JUMPI PUSH1 0x0 DUP1 REVERT JUMPDEST POP PUSH2 0x55A PUSH2 0x154E JUMP JUMPDEST STOP JUMPDEST CALLVALUE DUP1 ISZERO PUSH2 0x568 JUMPI PUSH1 0x0 DUP1 REVERT JUMPDEST POP PUSH2 0x583 PUSH1 0x4 DUP1 CALLDATASIZE SUB DUP2 ADD SWAP1 PUSH2 0x57E SWAP2 SWAP1 PUSH2 0x3498 JUMP JUMPDEST PUSH2 0x15D6 JUMP JUMPDEST STOP JUMPDEST CALLVALUE DUP1 ISZERO PUSH2 0x591 JUMPI PUSH1 0x0 DUP1 REVERT JUMPDEST POP PUSH2 0x59A PUSH2 0x1706 JUMP JUMPDEST PUSH1 0x40 MLOAD PUSH2 0x5A7 SWAP2 SWAP1 PUSH2 0x3D74 JUMP JUMPDEST PUSH1 0x40 MLOAD DUP1 SWAP2 SUB SWAP1 RETURN JUMPDEST CALLVALUE DUP1 ISZERO PUSH2 0x5BC JUMPI PUSH1 0x0 DUP1 REVERT JUMPDEST POP PUSH2 0x5C5 PUSH2 0x172F JUMP JUMPDEST PUSH1 0x40 MLOAD PUSH2 0x5D2 SWAP2 SWAP1 PUSH2 0x3E4E JUMP JUMPDEST PUSH1 0x40 MLOAD DUP1 SWAP2 SUB SWAP1 RETURN JUMPDEST CALLVALUE DUP1 ISZERO PUSH2 0x5E7 JUMPI PUSH1 0x0 DUP1 REVERT JUMPDEST POP PUSH2 0x5F0 PUSH2 0x17C1 JUMP JUMPDEST PUSH1 0x40 MLOAD PUSH2 0x5FD SWAP2 SWAP1 PUSH2 0x420B JUMP JUMPDEST PUSH1 0x40 MLOAD DUP1 SWAP2 SUB SWAP1 RETURN JUMPDEST CALLVALUE DUP1 ISZERO PUSH2 0x612 JUMPI PUSH1 0x0 DUP1 REVERT JUMPDEST POP PUSH2 0x62D PUSH1 0x4 DUP1 CALLDATASIZE SUB DUP2 ADD SWAP1 PUSH2 0x628 SWAP2 SWAP1 PUSH2 0x35DB JUMP JUMPDEST PUSH2 0x17C7 JUMP JUMPDEST STOP JUMPDEST CALLVALUE DUP1 ISZERO PUSH2 0x63B JUMPI PUSH1 0x0 DUP1 REVERT JUMPDEST POP PUSH2 0x656 PUSH1 0x4 DUP1 CALLDATASIZE SUB DUP2 ADD SWAP1 PUSH2 0x651 SWAP2 SWAP1 PUSH2 0x3558 JUMP JUMPDEST PUSH2 0x17DD JUMP JUMPDEST STOP JUMPDEST CALLVALUE DUP1 ISZERO PUSH2 0x664 JUMPI PUSH1 0x0 DUP1 REVERT JUMPDEST POP PUSH2 0x67F PUSH1 0x4 DUP1 CALLDATASIZE SUB DUP2 ADD SWAP1 PUSH2 0x67A SWAP2 SWAP1 PUSH2 0x3498 JUMP JUMPDEST PUSH2 0x183F JUMP JUMPDEST STOP JUMPDEST CALLVALUE DUP1 ISZERO PUSH2 0x68D JUMPI PUSH1 0x0 DUP1 REVERT JUMPDEST POP PUSH2 0x696 PUSH2 0x196F JUMP JUMPDEST PUSH1 0x40 MLOAD PUSH2 0x6A3 SWAP2 SWAP1 PUSH2 0x3E18 JUMP JUMPDEST PUSH1 0x40 MLOAD DUP1 SWAP2 SUB SWAP1 RETURN JUMPDEST CALLVALUE DUP1 ISZERO PUSH2 0x6B8 JUMPI PUSH1 0x0 DUP1 REVERT JUMPDEST POP PUSH2 0x6D3 PUSH1 0x4 DUP1 CALLDATASIZE SUB DUP2 ADD SWAP1 PUSH2 0x6CE SWAP2 SWAP1 PUSH2 0x376B JUMP JUMPDEST PUSH2 0x1995 JUMP JUMPDEST PUSH1 0x40 MLOAD PUSH2 0x6E0 SWAP2 SWAP1 PUSH2 0x3E4E JUMP JUMPDEST PUSH1 0x40 MLOAD DUP1 SWAP2 SUB SWAP1 RETURN JUMPDEST CALLVALUE DUP1 ISZERO PUSH2 0x6F5 JUMPI PUSH1 0x0 DUP1 REVERT JUMPDEST POP PUSH2 0x6FE PUSH2 0x1B81 JUMP JUMPDEST PUSH1 0x40 MLOAD PUSH2 0x70B SWAP2 SWAP1 PUSH2 0x4226 JUMP JUMPDEST PUSH1 0x40 MLOAD DUP1 SWAP2 SUB SWAP1 RETURN JUMPDEST CALLVALUE DUP1 ISZERO PUSH2 0x720 JUMPI PUSH1 0x0 DUP1 REVERT JUMPDEST POP PUSH2 0x73B PUSH1 0x4 DUP1 CALLDATASIZE SUB DUP2 ADD SWAP1 PUSH2 0x736 SWAP2 SWAP1 PUSH2 0x34C5 JUMP JUMPDEST PUSH2 0x1B94 JUMP JUMPDEST PUSH1 0x40 MLOAD PUSH2 0x748 SWAP2 SWAP1 PUSH2 0x3DFD JUMP JUMPDEST PUSH1 0x40 MLOAD DUP1 SWAP2 SUB SWAP1 RETURN JUMPDEST CALLVALUE DUP1 ISZERO PUSH2 0x75D JUMPI PUSH1 0x0 DUP1 REVERT JUMPDEST POP PUSH2 0x778 PUSH1 0x4 DUP1 CALLDATASIZE SUB DUP2 ADD SWAP1 PUSH2 0x773 SWAP2 SWAP1 PUSH2 0x3498 JUMP JUMPDEST PUSH2 0x1C28 JUMP JUMPDEST STOP JUMPDEST CALLVALUE DUP1 ISZERO PUSH2 0x786 JUMPI PUSH1 0x0 DUP1 REVERT JUMPDEST POP PUSH2 0x7A1 PUSH1 0x4 DUP1 CALLDATASIZE SUB DUP2 ADD SWAP1 PUSH2 0x79C SWAP2 SWAP1 PUSH2 0x376B JUMP JUMPDEST PUSH2 0x1D20 JUMP JUMPDEST PUSH1 0x40 MLOAD PUSH2 0x7AE SWAP2 SWAP1 PUSH2 0x41F0 JUMP JUMPDEST PUSH1 0x40 MLOAD DUP1 SWAP2 SUB SWAP1 RETURN JUMPDEST PUSH1 0x0 PUSH32 0x780E9D6300000000000000000000000000000000000000000000000000000000 PUSH28 0xFFFFFFFFFFFFFFFFFFFFFFFFFFFFFFFFFFFFFFFFFFFFFFFFFFFFFFFF NOT AND DUP3 PUSH28 0xFFFFFFFFFFFFFFFFFFFFFFFFFFFFFFFFFFFFFFFFFFFFFFFFFFFFFFFF NOT AND EQ DUP1 PUSH2 0x82A JUMPI POP PUSH2 0x829 DUP3 PUSH2 0x1E37 JUMP JUMPDEST JUMPDEST SWAP1 POP SWAP2 SWAP1 POP JUMP JUMPDEST PUSH1 0x60 PUSH1 0x1 DUP1 SLOAD PUSH2 0x840 SWAP1 PUSH2 0x461A JUMP JUMPDEST DUP1 PUSH1 0x1F ADD PUSH1 0x20 DUP1 SWAP2 DIV MUL PUSH1 0x20 ADD PUSH1 0x40 MLOAD SWAP1 DUP2 ADD PUSH1 0x40 MSTORE DUP1 SWAP3 SWAP2 SWAP1 DUP2 DUP2 MSTORE PUSH1 0x20 ADD DUP3 DUP1 SLOAD PUSH2 0x86C SWAP1 PUSH2 0x461A JUMP JUMPDEST DUP1 ISZERO PUSH2 0x8B9 JUMPI DUP1 PUSH1 0x1F LT PUSH2 0x88E JUMPI PUSH2 0x100 DUP1 DUP4 SLOAD DIV MUL DUP4 MSTORE SWAP2 PUSH1 0x20 ADD SWAP2 PUSH2 0x8B9 JUMP JUMPDEST DUP3 ADD SWAP2 SWAP1 PUSH1 0x0 MSTORE PUSH1 0x20 PUSH1 0x0 KECCAK256 SWAP1 JUMPDEST DUP2 SLOAD DUP2 MSTORE SWAP1 PUSH1 0x1 ADD SWAP1 PUSH1 0x20 ADD DUP1 DUP4 GT PUSH2 0x89C JUMPI DUP3 SWAP1 SUB PUSH1 0x1F AND DUP3 ADD SWAP2 JUMPDEST POP POP POP POP POP SWAP1 POP SWAP1 JUMP JUMPDEST PUSH1 0x0 PUSH2 0x8CE DUP3 PUSH2 0x1F19 JUMP JUMPDEST PUSH2 0x90D JUMPI PUSH1 0x40 MLOAD PUSH32 0x8C379A000000000000000000000000000000000000000000000000000000000 DUP2 MSTORE PUSH1 0x4 ADD PUSH2 0x904 SWAP1 PUSH2 0x4090 JUMP JUMPDEST PUSH1 0x40 MLOAD DUP1 SWAP2 SUB SWAP1 REVERT JUMPDEST PUSH1 0x5 PUSH1 0x0 DUP4 DUP2 MSTORE PUSH1 0x20 ADD SWAP1 DUP2 MSTORE PUSH1 0x20 ADD PUSH1 0x0 KECCAK256 PUSH1 0x0 SWAP1 SLOAD SWAP1 PUSH2 0x100 EXP SWAP1 DIV PUSH20 0xFFFFFFFFFFFFFFFFFFFFFFFFFFFFFFFFFFFFFFFF AND SWAP1 POP SWAP2 SWAP1 POP JUMP JUMPDEST PUSH1 0x0 PUSH2 0x953 DUP3 PUSH2 0xD73 JUMP JUMPDEST SWAP1 POP DUP1 PUSH20 0xFFFFFFFFFFFFFFFFFFFFFFFFFFFFFFFFFFFFFFFF AND DUP4 PUSH20 0xFFFFFFFFFFFFFFFFFFFFFFFFFFFFFFFFFFFFFFFF AND EQ ISZERO PUSH2 0x9C4 JUMPI PUSH1 0x40 MLOAD PUSH32 0x8C379A000000000000000000000000000000000000000000000000000000000 DUP2 MSTORE PUSH1 0x4 ADD PUSH2 0x9BB SWAP1 PUSH2 0x4170 JUMP JUMPDEST PUSH1 0x40 MLOAD DUP1 SWAP2 SUB SWAP1 REVERT JUMPDEST DUP1 PUSH20 0xFFFFFFFFFFFFFFFFFFFFFFFFFFFFFFFFFFFFFFFF AND PUSH2 0x9E3 PUSH2 0x1F85 JUMP JUMPDEST PUSH20 0xFFFFFFFFFFFFFFFFFFFFFFFFFFFFFFFFFFFFFFFF AND EQ DUP1 PUSH2 0xA12 JUMPI POP PUSH2 0xA11 DUP2 PUSH2 0xA0C PUSH2 0x1F85 JUMP JUMPDEST PUSH2 0x1B94 JUMP JUMPDEST JUMPDEST PUSH2 0xA51 JUMPI PUSH1 0x40 MLOAD PUSH32 0x8C379A000000000000000000000000000000000000000000000000000000000 DUP2 MSTORE PUSH1 0x4 ADD PUSH2 0xA48 SWAP1 PUSH2 0x3FF0 JUMP JUMPDEST PUSH1 0x40 MLOAD DUP1 SWAP2 SUB SWAP1 REVERT JUMPDEST PUSH2 0xA5B DUP4 DUP4 PUSH2 0x1F8D JUMP JUMPDEST POP POP POP JUMP JUMPDEST PUSH1 0x13 PUSH1 0x0 SWAP1 SLOAD SWAP1 PUSH2 0x100 EXP SWAP1 DIV PUSH20 0xFFFFFFFFFFFFFFFFFFFFFFFFFFFFFFFFFFFFFFFF AND DUP2 JUMP JUMPDEST PUSH1 0x0 PUSH1 0x9 DUP1 SLOAD SWAP1 POP SWAP1 POP SWAP1 JUMP JUMPDEST PUSH2 0xAA4 PUSH2 0xA9E PUSH2 0x1F85 JUMP JUMPDEST DUP3 PUSH2 0x2046 JUMP JUMPDEST PUSH2 0xAE3 JUMPI PUSH1 0x40 MLOAD PUSH32 0x8C379A000000000000000000000000000000000000000000000000000000000 DUP2 MSTORE PUSH1 0x4 ADD PUSH2 0xADA SWAP1 PUSH2 0x4190 JUMP JUMPDEST PUSH1 0x40 MLOAD DUP1 SWAP2 SUB SWAP1 REVERT JUMPDEST PUSH2 0xAEE DUP4 DUP4 DUP4 PUSH2 0x2124 JUMP JUMPDEST POP POP POP JUMP JUMPDEST PUSH1 0x0 PUSH2 0xAFE DUP4 PUSH2 0x1496 JUMP JUMPDEST DUP3 LT PUSH2 0xB3F JUMPI PUSH1 0x40 MLOAD PUSH32 0x8C379A000000000000000000000000000000000000000000000000000000000 DUP2 MSTORE PUSH1 0x4 ADD PUSH2 0xB36 SWAP1 PUSH2 0x3E90 JUMP JUMPDEST PUSH1 0x40 MLOAD DUP1 SWAP2 SUB SWAP1 REVERT JUMPDEST PUSH1 0x7 PUSH1 0x0 DUP5 PUSH20 0xFFFFFFFFFFFFFFFFFFFFFFFFFFFFFFFFFFFFFFFF AND PUSH20 0xFFFFFFFFFFFFFFFFFFFFFFFFFFFFFFFFFFFFFFFF AND DUP2 MSTORE PUSH1 0x20 ADD SWAP1 DUP2 MSTORE PUSH1 0x20 ADD PUSH1 0x0 KECCAK256 PUSH1 0x0 DUP4 DUP2 MSTORE PUSH1 0x20 ADD SWAP1 DUP2 MSTORE PUSH1 0x20 ADD PUSH1 0x0 KECCAK256 SLOAD SWAP1 POP SWAP3 SWAP2 POP POP JUMP JUMPDEST PUSH1 0xD SLOAD DUP2 JUMP JUMPDEST PUSH2 0xBB9 DUP4 DUP4 DUP4 PUSH1 0x40 MLOAD DUP1 PUSH1 0x20 ADD PUSH1 0x40 MSTORE DUP1 PUSH1 0x0 DUP2 MSTORE POP PUSH2 0x17DD JUMP JUMPDEST POP POP POP JUMP JUMPDEST PUSH1 0x60 PUSH1 0x0 PUSH2 0xBCB DUP4 PUSH2 0x1496 JUMP JUMPDEST SWAP1 POP PUSH1 0x0 DUP2 PUSH8 0xFFFFFFFFFFFFFFFF DUP2 GT ISZERO PUSH2 0xBE9 JUMPI PUSH2 0xBE8 PUSH2 0x47B1 JUMP JUMPDEST JUMPDEST PUSH1 0x40 MLOAD SWAP1 DUP1 DUP3 MSTORE DUP1 PUSH1 0x20 MUL PUSH1 0x20 ADD DUP3 ADD PUSH1 0x40 MSTORE DUP1 ISZERO PUSH2 0xC17 JUMPI DUP2 PUSH1 0x20 ADD PUSH1 0x20 DUP3 MUL DUP1 CALLDATASIZE DUP4 CALLDATACOPY DUP1 DUP3 ADD SWAP2 POP POP SWAP1 POP JUMPDEST POP SWAP1 POP PUSH1 0x0 JUMPDEST DUP3 DUP2 LT ISZERO PUSH2 0xC61 JUMPI PUSH2 0xC2F DUP6 DUP3 PUSH2 0xAF3 JUMP JUMPDEST DUP3 DUP3 DUP2 MLOAD DUP2 LT PUSH2 0xC42 JUMPI PUSH2 0xC41 PUSH2 0x4782 JUMP JUMPDEST JUMPDEST PUSH1 0x20 MUL PUSH1 0x20 ADD ADD DUP2 DUP2 MSTORE POP POP DUP1 DUP1 PUSH2 0xC59 SWAP1 PUSH2 0x467D JUMP JUMPDEST SWAP2 POP POP PUSH2 0xC1D JUMP JUMPDEST POP DUP1 SWAP3 POP POP POP SWAP2 SWAP1 POP JUMP JUMPDEST PUSH1 0x0 PUSH2 0xC76 PUSH2 0xA86 JUMP JUMPDEST DUP3 LT PUSH2 0xCB7 JUMPI PUSH1 0x40 MLOAD PUSH32 0x8C379A000000000000000000000000000000000000000000000000000000000 DUP2 MSTORE PUSH1 0x4 ADD PUSH2 0xCAE SWAP1 PUSH2 0x41B0 JUMP JUMPDEST PUSH1 0x40 MLOAD DUP1 SWAP2 SUB SWAP1 REVERT JUMPDEST PUSH1 0x9 DUP3 DUP2 SLOAD DUP2 LT PUSH2 0xCCB JUMPI PUSH2 0xCCA PUSH2 0x4782 JUMP JUMPDEST JUMPDEST SWAP1 PUSH1 0x0 MSTORE PUSH1 0x20 PUSH1 0x0 KECCAK256 ADD SLOAD SWAP1 POP SWAP2 SWAP1 POP JUMP JUMPDEST PUSH2 0xCE5 PUSH2 0x1F85 JUMP JUMPDEST PUSH20 0xFFFFFFFFFFFFFFFFFFFFFFFFFFFFFFFFFFFFFFFF AND PUSH2 0xD03 PUSH2 0x1706 JUMP JUMPDEST PUSH20 0xFFFFFFFFFFFFFFFFFFFFFFFFFFFFFFFFFFFFFFFF AND EQ PUSH2 0xD59 JUMPI PUSH1 0x40 MLOAD PUSH32 0x8C379A000000000000000000000000000000000000000000000000000000000 DUP2 MSTORE PUSH1 0x4 ADD PUSH2 0xD50 SWAP1 PUSH2 0x40B0 JUMP JUMPDEST PUSH1 0x40 MLOAD DUP1 SWAP2 SUB SWAP1 REVERT JUMPDEST DUP1 PUSH1 0xF SWAP1 DUP1 MLOAD SWAP1 PUSH1 0x20 ADD SWAP1 PUSH2 0xD6F SWAP3 SWAP2 SWAP1 PUSH2 0x3194 JUMP JUMPDEST POP POP JUMP JUMPDEST PUSH1 0x0 DUP1 PUSH1 0x3 PUSH1 0x0 DUP5 DUP2 MSTORE PUSH1 0x20 ADD SWAP1 DUP2 MSTORE PUSH1 0x20 ADD PUSH1 0x0 KECCAK256 PUSH1 0x0 SWAP1 SLOAD SWAP1 PUSH2 0x100 EXP SWAP1 DIV PUSH20 0xFFFFFFFFFFFFFFFFFFFFFFFFFFFFFFFFFFFFFFFF AND SWAP1 POP PUSH1 0x0 PUSH20 0xFFFFFFFFFFFFFFFFFFFFFFFFFFFFFFFFFFFFFFFF AND DUP2 PUSH20 0xFFFFFFFFFFFFFFFFFFFFFFFFFFFFFFFFFFFFFFFF AND EQ ISZERO PUSH2 0xE1C JUMPI PUSH1 0x40 MLOAD PUSH32 0x8C379A000000000000000000000000000000000000000000000000000000000 DUP2 MSTORE PUSH1 0x4 ADD PUSH2 0xE13 SWAP1 PUSH2 0x4030 JUMP JUMPDEST PUSH1 0x40 MLOAD DUP1 SWAP2 SUB SWAP1 REVERT JUMPDEST DUP1 SWAP2 POP POP SWAP2 SWAP1 POP JUMP JUMPDEST PUSH2 0xE2D PUSH2 0x321A JUMP JUMPDEST PUSH1 0x0 PUSH20 0xFFFFFFFFFFFFFFFFFFFFFFFFFFFFFFFFFFFFFFFF AND DUP4 PUSH20 0xFFFFFFFFFFFFFFFFFFFFFFFFFFFFFFFFFFFFFFFF AND EQ ISZERO PUSH2 0xE9D JUMPI PUSH1 0x40 MLOAD PUSH32 0x8C379A000000000000000000000000000000000000000000000000000000000 DUP2 MSTORE PUSH1 0x4 ADD PUSH2 0xE94 SWAP1 PUSH2 0x40D0 JUMP JUMPDEST PUSH1 0x40 MLOAD DUP1 SWAP2 SUB SWAP1 REVERT JUMPDEST PUSH1 0x0 PUSH1 0x2 DUP2 GT ISZERO PUSH2 0xEB1 JUMPI PUSH2 0xEB0 PUSH2 0x46F5 JUMP JUMPDEST JUMPDEST PUSH1 0xFF AND DUP3 PUSH1 0xFF AND GT PUSH2 0xEF8 JUMPI PUSH1 0x40 MLOAD PUSH32 0x8C379A000000000000000000000000000000000000000000000000000000000 DUP2 MSTORE PUSH1 0x4 ADD PUSH2 0xEEF SWAP1 PUSH2 0x4130 JUMP JUMPDEST PUSH1 0x40 MLOAD DUP1 SWAP2 SUB SWAP1 REVERT JUMPDEST PUSH1 0x2 DUP1 DUP2 GT ISZERO PUSH2 0xF0B JUMPI PUSH2 0xF0A PUSH2 0x46F5 JUMP JUMPDEST JUMPDEST PUSH1 0xFF AND DUP3 PUSH1 0xFF AND LT PUSH2 0xF52 JUMPI PUSH1 0x40 MLOAD PUSH32 0x8C379A000000000000000000000000000000000000000000000000000000000 DUP2 MSTORE PUSH1 0x4 ADD PUSH2 0xF49 SWAP1 PUSH2 0x4130 JUMP JUMPDEST PUSH1 0x40 MLOAD DUP1 SWAP2 SUB SWAP1 REVERT JUMPDEST PUSH1 0x0 PUSH1 0x13 PUSH1 0x0 SWAP1 SLOAD SWAP1 PUSH2 0x100 EXP SWAP1 DIV PUSH20 0xFFFFFFFFFFFFFFFFFFFFFFFFFFFFFFFFFFFFFFFF AND PUSH20 0xFFFFFFFFFFFFFFFFFFFFFFFFFFFFFFFFFFFFFFFF AND PUSH4 0x4591D523 DUP5 PUSH1 0x40 MLOAD DUP3 PUSH4 0xFFFFFFFF AND PUSH1 0xE0 SHL DUP2 MSTORE PUSH1 0x4 ADD PUSH2 0xFAF SWAP2 SWAP1 PUSH2 0x4226 JUMP JUMPDEST PUSH1 0xC0 PUSH1 0x40 MLOAD DUP1 DUP4 SUB DUP2 DUP7 DUP1 EXTCODESIZE ISZERO DUP1 ISZERO PUSH2 0xFC7 JUMPI PUSH1 0x0 DUP1 REVERT JUMPDEST POP GAS STATICCALL ISZERO DUP1 ISZERO PUSH2 0xFDB JUMPI RETURNDATASIZE PUSH1 0x0 DUP1 RETURNDATACOPY RETURNDATASIZE PUSH1 0x0 REVERT JUMPDEST POP POP POP POP PUSH1 0x40 MLOAD RETURNDATASIZE PUSH1 0x1F NOT PUSH1 0x1F DUP3 ADD AND DUP3 ADD DUP1 PUSH1 0x40 MSTORE POP DUP2 ADD SWAP1 PUSH2 0xFFF SWAP2 SWAP1 PUSH2 0x373E JUMP JUMPDEST SWAP1 POP PUSH1 0x0 DUP2 PUSH1 0x0 ADD MLOAD GT PUSH2 0x1048 JUMPI PUSH1 0x40 MLOAD PUSH32 0x8C379A000000000000000000000000000000000000000000000000000000000 DUP2 MSTORE PUSH1 0x4 ADD PUSH2 0x103F SWAP1 PUSH2 0x3FB0 JUMP JUMPDEST PUSH1 0x40 MLOAD DUP1 SWAP2 SUB SWAP1 REVERT JUMPDEST PUSH1 0x12 PUSH1 0x0 SWAP1 SLOAD SWAP1 PUSH2 0x100 EXP SWAP1 DIV PUSH20 0xFFFFFFFFFFFFFFFFFFFFFFFFFFFFFFFFFFFFFFFF AND PUSH20 0xFFFFFFFFFFFFFFFFFFFFFFFFFFFFFFFFFFFFFFFF AND PUSH4 0x97EA9BE9 DUP6 PUSH1 0x40 MLOAD DUP3 PUSH4 0xFFFFFFFF AND PUSH1 0xE0 SHL DUP2 MSTORE PUSH1 0x4 ADD PUSH2 0x10A3 SWAP2 SWAP1 PUSH2 0x3D74 JUMP JUMPDEST PUSH1 0x20 PUSH1 0x40 MLOAD DUP1 DUP4 SUB DUP2 PUSH1 0x0 DUP8 DUP1 EXTCODESIZE ISZERO DUP1 ISZERO PUSH2 0x10BD JUMPI PUSH1 0x0 DUP1 REVERT JUMPDEST POP GAS CALL ISZERO DUP1 ISZERO PUSH2 0x10D1 JUMPI RETURNDATASIZE PUSH1 0x0 DUP1 RETURNDATACOPY RETURNDATASIZE PUSH1 0x0 REVERT JUMPDEST POP POP POP POP PUSH1 0x40 MLOAD RETURNDATASIZE PUSH1 0x1F NOT PUSH1 0x1F DUP3 ADD AND DUP3 ADD DUP1 PUSH1 0x40 MSTORE POP DUP2 ADD SWAP1 PUSH2 0x10F5 SWAP2 SWAP1 PUSH2 0x3798 JUMP JUMPDEST DUP2 PUSH1 0xA0 ADD DUP2 DUP2 MSTORE POP POP PUSH2 0x110B DUP2 PUSH1 0x0 ADD MLOAD PUSH2 0x238B JUMP JUMPDEST DUP2 PUSH1 0x20 ADD DUP2 DUP2 MSTORE POP POP PUSH2 0x1121 DUP2 PUSH1 0x0 ADD MLOAD PUSH2 0x2429 JUMP JUMPDEST DUP2 PUSH1 0x40 ADD DUP2 DUP2 MSTORE POP POP DUP3 DUP2 PUSH1 0x60 ADD SWAP1 PUSH1 0xFF AND SWAP1 DUP2 PUSH1 0xFF AND DUP2 MSTORE POP POP PUSH2 0x1146 PUSH1 0xB PUSH2 0x24C7 JUMP JUMPDEST PUSH1 0x0 PUSH2 0x1152 PUSH1 0xB PUSH2 0x24DD JUMP JUMPDEST SWAP1 POP PUSH2 0x115E DUP6 DUP3 PUSH2 0x24EB JUMP JUMPDEST DUP2 PUSH1 0x11 PUSH1 0x0 DUP4 DUP2 MSTORE PUSH1 0x20 ADD SWAP1 DUP2 MSTORE PUSH1 0x20 ADD PUSH1 0x0 KECCAK256 PUSH1 0x0 DUP3 ADD MLOAD DUP2 PUSH1 0x0 ADD SSTORE PUSH1 0x20 DUP3 ADD MLOAD DUP2 PUSH1 0x1 ADD SSTORE PUSH1 0x40 DUP3 ADD MLOAD DUP2 PUSH1 0x2 ADD SSTORE PUSH1 0x60 DUP3 ADD MLOAD DUP2 PUSH1 0x3 ADD PUSH1 0x0 PUSH2 0x100 EXP DUP2 SLOAD DUP2 PUSH1 0xFF MUL NOT AND SWAP1 DUP4 PUSH1 0xFF AND MUL OR SWAP1 SSTORE POP PUSH1 0x80 DUP3 ADD MLOAD DUP2 PUSH1 0x4 ADD SSTORE PUSH1 0xA0 DUP3 ADD MLOAD DUP2 PUSH1 0x5 ADD SSTORE SWAP1 POP POP DUP1 CALLER PUSH20 0xFFFFFFFFFFFFFFFFFFFFFFFFFFFFFFFFFFFFFFFF AND PUSH32 0x3FFFAA5804A26FCEC0D70B1D0FB0A2D0031DF3A5F9C8AF2127C2F4360E97B463 PUSH1 0x40 MLOAD PUSH1 0x40 MLOAD DUP1 SWAP2 SUB SWAP1 LOG3 DUP2 SWAP3 POP POP POP SWAP3 SWAP2 POP POP JUMP JUMPDEST PUSH2 0x121F PUSH2 0x321A JUMP JUMPDEST PUSH1 0x0 DUP3 SWAP1 POP PUSH2 0x122D DUP2 PUSH2 0x1F19 JUMP JUMPDEST PUSH2 0x126C JUMPI PUSH1 0x40 MLOAD PUSH32 0x8C379A000000000000000000000000000000000000000000000000000000000 DUP2 MSTORE PUSH1 0x4 ADD PUSH2 0x1263 SWAP1 PUSH2 0x41D0 JUMP JUMPDEST PUSH1 0x40 MLOAD DUP1 SWAP2 SUB SWAP1 REVERT JUMPDEST CALLER PUSH20 0xFFFFFFFFFFFFFFFFFFFFFFFFFFFFFFFFFFFFFFFF AND PUSH2 0x128C DUP3 PUSH2 0xD73 JUMP JUMPDEST PUSH20 0xFFFFFFFFFFFFFFFFFFFFFFFFFFFFFFFFFFFFFFFF AND EQ PUSH2 0x12E2 JUMPI PUSH1 0x40 MLOAD PUSH32 0x8C379A000000000000000000000000000000000000000000000000000000000 DUP2 MSTORE PUSH1 0x4 ADD PUSH2 0x12D9 SWAP1 PUSH2 0x3F70 JUMP JUMPDEST PUSH1 0x40 MLOAD DUP1 SWAP2 SUB SWAP1 REVERT JUMPDEST CALLVALUE PUSH1 0xC SLOAD GT ISZERO PUSH2 0x1327 JUMPI PUSH1 0x40 MLOAD PUSH32 0x8C379A000000000000000000000000000000000000000000000000000000000 DUP2 MSTORE PUSH1 0x4 ADD PUSH2 0x131E SWAP1 PUSH2 0x3E70 JUMP JUMPDEST PUSH1 0x40 MLOAD DUP1 SWAP2 SUB SWAP1 REVERT JUMPDEST PUSH1 0x0 PUSH1 0x11 PUSH1 0x0 DUP4 DUP2 MSTORE PUSH1 0x20 ADD SWAP1 DUP2 MSTORE PUSH1 0x20 ADD PUSH1 0x0 KECCAK256 PUSH1 0x40 MLOAD DUP1 PUSH1 0xC0 ADD PUSH1 0x40 MSTORE SWAP1 DUP2 PUSH1 0x0 DUP3 ADD SLOAD DUP2 MSTORE PUSH1 0x20 ADD PUSH1 0x1 DUP3 ADD SLOAD DUP2 MSTORE PUSH1 0x20 ADD PUSH1 0x2 DUP3 ADD SLOAD DUP2 MSTORE PUSH1 0x20 ADD PUSH1 0x3 DUP3 ADD PUSH1 0x0 SWAP1 SLOAD SWAP1 PUSH2 0x100 EXP SWAP1 DIV PUSH1 0xFF AND PUSH1 0xFF AND PUSH1 0xFF AND DUP2 MSTORE PUSH1 0x20 ADD PUSH1 0x4 DUP3 ADD SLOAD DUP2 MSTORE PUSH1 0x20 ADD PUSH1 0x5 DUP3 ADD SLOAD DUP2 MSTORE POP POP SWAP1 POP PUSH1 0x1 DUP2 PUSH1 0x0 ADD MLOAD PUSH2 0x13A9 SWAP2 SWAP1 PUSH2 0x4339 JUMP JUMPDEST DUP2 PUSH1 0x0 ADD DUP2 DUP2 MSTORE POP POP PUSH2 0x13BF DUP2 PUSH1 0x0 ADD MLOAD PUSH2 0x238B JUMP JUMPDEST DUP2 PUSH1 0x20 ADD DUP2 DUP2 MSTORE POP POP PUSH2 0x13D5 DUP2 PUSH1 0x0 ADD MLOAD PUSH2 0x2429 JUMP JUMPDEST DUP2 PUSH1 0x40 ADD DUP2 DUP2 MSTORE POP POP DUP1 PUSH1 0x11 PUSH1 0x0 DUP5 DUP2 MSTORE PUSH1 0x20 ADD SWAP1 DUP2 MSTORE PUSH1 0x20 ADD PUSH1 0x0 KECCAK256 PUSH1 0x0 DUP3 ADD MLOAD DUP2 PUSH1 0x0 ADD SSTORE PUSH1 0x20 DUP3 ADD MLOAD DUP2 PUSH1 0x1 ADD SSTORE PUSH1 0x40 DUP3 ADD MLOAD DUP2 PUSH1 0x2 ADD SSTORE PUSH1 0x60 DUP3 ADD MLOAD DUP2 PUSH1 0x3 ADD PUSH1 0x0 PUSH2 0x100 EXP DUP2 SLOAD DUP2 PUSH1 0xFF MUL NOT AND SWAP1 DUP4 PUSH1 0xFF AND MUL OR SWAP1 SSTORE POP PUSH1 0x80 DUP3 ADD MLOAD DUP2 PUSH1 0x4 ADD SSTORE PUSH1 0xA0 DUP3 ADD MLOAD DUP2 PUSH1 0x5 ADD SSTORE SWAP1 POP POP DUP2 CALLER PUSH20 0xFFFFFFFFFFFFFFFFFFFFFFFFFFFFFFFFFFFFFFFF AND PUSH32 0x6388DEFCA1C14DA002A9BED8461803E017B3DD122C61F675C20173C48A1DCE6C PUSH1 0x40 MLOAD PUSH1 0x40 MLOAD DUP1 SWAP2 SUB SWAP1 LOG3 DUP1 SWAP3 POP POP POP SWAP2 SWAP1 POP JUMP JUMPDEST PUSH1 0x0 DUP1 PUSH20 0xFFFFFFFFFFFFFFFFFFFFFFFFFFFFFFFFFFFFFFFF AND DUP3 PUSH20 0xFFFFFFFFFFFFFFFFFFFFFFFFFFFFFFFFFFFFFFFF AND EQ ISZERO PUSH2 0x1507 JUMPI PUSH1 0x40 MLOAD PUSH32 0x8C379A000000000000000000000000000000000000000000000000000000000 DUP2 MSTORE PUSH1 0x4 ADD PUSH2 0x14FE SWAP1 PUSH2 0x4010 JUMP JUMPDEST PUSH1 0x40 MLOAD DUP1 SWAP2 SUB SWAP1 REVERT JUMPDEST PUSH1 0x4 PUSH1 0x0 DUP4 PUSH20 0xFFFFFFFFFFFFFFFFFFFFFFFFFFFFFFFFFFFFFFFF AND PUSH20 0xFFFFFFFFFFFFFFFFFFFFFFFFFFFFFFFFFFFFFFFF AND DUP2 MSTORE PUSH1 0x20 ADD SWAP1 DUP2 MSTORE PUSH1 0x20 ADD PUSH1 0x0 KECCAK256 SLOAD SWAP1 POP SWAP2 SWAP1 POP JUMP JUMPDEST PUSH2 0x1556 PUSH2 0x1F85 JUMP JUMPDEST PUSH20 0xFFFFFFFFFFFFFFFFFFFFFFFFFFFFFFFFFFFFFFFF AND PUSH2 0x1574 PUSH2 0x1706 JUMP JUMPDEST PUSH20 0xFFFFFFFFFFFFFFFFFFFFFFFFFFFFFFFFFFFFFFFF AND EQ PUSH2 0x15CA JUMPI PUSH1 0x40 MLOAD PUSH32 0x8C379A000000000000000000000000000000000000000000000000000000000 DUP2 MSTORE PUSH1 0x4 ADD PUSH2 0x15C1 SWAP1 PUSH2 0x40B0 JUMP JUMPDEST PUSH1 0x40 MLOAD DUP1 SWAP2 SUB SWAP1 REVERT JUMPDEST PUSH2 0x15D4 PUSH1 0x0 PUSH2 0x26C5 JUMP JUMPDEST JUMP JUMPDEST PUSH2 0x15DE PUSH2 0x1F85 JUMP JUMPDEST PUSH20 0xFFFFFFFFFFFFFFFFFFFFFFFFFFFFFFFFFFFFFFFF AND PUSH2 0x15FC PUSH2 0x1706 JUMP JUMPDEST PUSH20 0xFFFFFFFFFFFFFFFFFFFFFFFFFFFFFFFFFFFFFFFF AND EQ PUSH2 0x1652 JUMPI PUSH1 0x40 MLOAD PUSH32 0x8C379A000000000000000000000000000000000000000000000000000000000 DUP2 MSTORE PUSH1 0x4 ADD PUSH2 0x1649 SWAP1 PUSH2 0x40B0 JUMP JUMPDEST PUSH1 0x40 MLOAD DUP1 SWAP2 SUB SWAP1 REVERT JUMPDEST PUSH1 0x0 PUSH20 0xFFFFFFFFFFFFFFFFFFFFFFFFFFFFFFFFFFFFFFFF AND DUP2 PUSH20 0xFFFFFFFFFFFFFFFFFFFFFFFFFFFFFFFFFFFFFFFF AND EQ ISZERO PUSH2 0x16C2 JUMPI PUSH1 0x40 MLOAD PUSH32 0x8C379A000000000000000000000000000000000000000000000000000000000 DUP2 MSTORE PUSH1 0x4 ADD PUSH2 0x16B9 SWAP1 PUSH2 0x40F0 JUMP JUMPDEST PUSH1 0x40 MLOAD DUP1 SWAP2 SUB SWAP1 REVERT JUMPDEST DUP1 PUSH1 0x12 PUSH1 0x0 PUSH2 0x100 EXP DUP2 SLOAD DUP2 PUSH20 0xFFFFFFFFFFFFFFFFFFFFFFFFFFFFFFFFFFFFFFFF MUL NOT AND SWAP1 DUP4 PUSH20 0xFFFFFFFFFFFFFFFFFFFFFFFFFFFFFFFFFFFFFFFF AND MUL OR SWAP1 SSTORE POP POP JUMP JUMPDEST PUSH1 0x0 DUP1 PUSH1 0x0 SWAP1 SLOAD SWAP1 PUSH2 0x100 EXP SWAP1 DIV PUSH20 0xFFFFFFFFFFFFFFFFFFFFFFFFFFFFFFFFFFFFFFFF AND SWAP1 POP SWAP1 JUMP JUMPDEST PUSH1 0x60 PUSH1 0x2 DUP1 SLOAD PUSH2 0x173E SWAP1 PUSH2 0x461A JUMP JUMPDEST DUP1 PUSH1 0x1F ADD PUSH1 0x20 DUP1 SWAP2 DIV MUL PUSH1 0x20 ADD PUSH1 0x40 MLOAD SWAP1 DUP2 ADD PUSH1 0x40 MSTORE DUP1 SWAP3 SWAP2 SWAP1 DUP2 DUP2 MSTORE PUSH1 0x20 ADD DUP3 DUP1 SLOAD PUSH2 0x176A SWAP1 PUSH2 0x461A JUMP JUMPDEST DUP1 ISZERO PUSH2 0x17B7 JUMPI DUP1 PUSH1 0x1F LT PUSH2 0x178C JUMPI PUSH2 0x100 DUP1 DUP4 SLOAD DIV MUL DUP4 MSTORE SWAP2 PUSH1 0x20 ADD SWAP2 PUSH2 0x17B7 JUMP JUMPDEST DUP3 ADD SWAP2 SWAP1 PUSH1 0x0 MSTORE PUSH1 0x20 PUSH1 0x0 KECCAK256 SWAP1 JUMPDEST DUP2 SLOAD DUP2 MSTORE SWAP1 PUSH1 0x1 ADD SWAP1 PUSH1 0x20 ADD DUP1 DUP4 GT PUSH2 0x179A JUMPI DUP3 SWAP1 SUB PUSH1 0x1F AND DUP3 ADD SWAP2 JUMPDEST POP POP POP POP POP SWAP1 POP SWAP1 JUMP JUMPDEST PUSH1 0xC SLOAD DUP2 JUMP JUMPDEST PUSH2 0x17D9 PUSH2 0x17D2 PUSH2 0x1F85 JUMP JUMPDEST DUP4 DUP4 PUSH2 0x2789 JUMP JUMPDEST POP POP JUMP JUMPDEST PUSH2 0x17EE PUSH2 0x17E8 PUSH2 0x1F85 JUMP JUMPDEST DUP4 PUSH2 0x2046 JUMP JUMPDEST PUSH2 0x182D JUMPI PUSH1 0x40 MLOAD PUSH32 0x8C379A000000000000000000000000000000000000000000000000000000000 DUP2 MSTORE PUSH1 0x4 ADD PUSH2 0x1824 SWAP1 PUSH2 0x4190 JUMP JUMPDEST PUSH1 0x40 MLOAD DUP1 SWAP2 SUB SWAP1 REVERT JUMPDEST PUSH2 0x1839 DUP5 DUP5 DUP5 DUP5 PUSH2 0x28F6 JUMP JUMPDEST POP POP POP POP JUMP JUMPDEST PUSH2 0x1847 PUSH2 0x1F85 JUMP JUMPDEST PUSH20 0xFFFFFFFFFFFFFFFFFFFFFFFFFFFFFFFFFFFFFFFF AND PUSH2 0x1865 PUSH2 0x1706 JUMP JUMPDEST PUSH20 0xFFFFFFFFFFFFFFFFFFFFFFFFFFFFFFFFFFFFFFFF AND EQ PUSH2 0x18BB JUMPI PUSH1 0x40 MLOAD PUSH32 0x8C379A000000000000000000000000000000000000000000000000000000000 DUP2 MSTORE PUSH1 0x4 ADD PUSH2 0x18B2 SWAP1 PUSH2 0x40B0 JUMP JUMPDEST PUSH1 0x40 MLOAD DUP1 SWAP2 SUB SWAP1 REVERT JUMPDEST PUSH1 0x0 PUSH20 0xFFFFFFFFFFFFFFFFFFFFFFFFFFFFFFFFFFFFFFFF AND DUP2 PUSH20 0xFFFFFFFFFFFFFFFFFFFFFFFFFFFFFFFFFFFFFFFF AND EQ ISZERO PUSH2 0x192B JUMPI PUSH1 0x40 MLOAD PUSH32 0x8C379A000000000000000000000000000000000000000000000000000000000 DUP2 MSTORE PUSH1 0x4 ADD PUSH2 0x1922 SWAP1 PUSH2 0x3ED0 JUMP JUMPDEST PUSH1 0x40 MLOAD DUP1 SWAP2 SUB SWAP1 REVERT JUMPDEST DUP1 PUSH1 0x13 PUSH1 0x0 PUSH2 0x100 EXP DUP2 SLOAD DUP2 PUSH20 0xFFFFFFFFFFFFFFFFFFFFFFFFFFFFFFFFFFFFFFFF MUL NOT AND SWAP1 DUP4 PUSH20 0xFFFFFFFFFFFFFFFFFFFFFFFFFFFFFFFFFFFFFFFF AND MUL OR SWAP1 SSTORE POP POP JUMP JUMPDEST PUSH1 0x12 PUSH1 0x0 SWAP1 SLOAD SWAP1 PUSH2 0x100 EXP SWAP1 DIV PUSH20 0xFFFFFFFFFFFFFFFFFFFFFFFFFFFFFFFFFFFFFFFF AND DUP2 JUMP JUMPDEST PUSH1 0x60 PUSH2 0x19A0 DUP3 PUSH2 0x1F19 JUMP JUMPDEST PUSH2 0x19DF JUMPI PUSH1 0x40 MLOAD PUSH32 0x8C379A000000000000000000000000000000000000000000000000000000000 DUP2 MSTORE PUSH1 0x4 ADD PUSH2 0x19D6 SWAP1 PUSH2 0x4110 JUMP JUMPDEST PUSH1 0x40 MLOAD DUP1 SWAP2 SUB SWAP1 REVERT JUMPDEST PUSH1 0x0 PUSH1 0x11 PUSH1 0x0 DUP5 DUP2 MSTORE PUSH1 0x20 ADD SWAP1 DUP2 MSTORE PUSH1 0x20 ADD PUSH1 0x0 KECCAK256 PUSH1 0x40 MLOAD DUP1 PUSH1 0xC0 ADD PUSH1 0x40 MSTORE SWAP1 DUP2 PUSH1 0x0 DUP3 ADD SLOAD DUP2 MSTORE PUSH1 0x20 ADD PUSH1 0x1 DUP3 ADD SLOAD DUP2 MSTORE PUSH1 0x20 ADD PUSH1 0x2 DUP3 ADD SLOAD DUP2 MSTORE PUSH1 0x20 ADD PUSH1 0x3 DUP3 ADD PUSH1 0x0 SWAP1 SLOAD SWAP1 PUSH2 0x100 EXP SWAP1 DIV PUSH1 0xFF AND PUSH1 0xFF AND PUSH1 0xFF AND DUP2 MSTORE PUSH1 0x20 ADD PUSH1 0x4 DUP3 ADD SLOAD DUP2 MSTORE PUSH1 0x20 ADD PUSH1 0x5 DUP3 ADD SLOAD DUP2 MSTORE POP POP SWAP1 POP PUSH1 0x0 DUP2 PUSH1 0x0 ADD MLOAD GT PUSH2 0x1A97 JUMPI PUSH1 0x40 MLOAD PUSH32 0x8C379A000000000000000000000000000000000000000000000000000000000 DUP2 MSTORE PUSH1 0x4 ADD PUSH2 0x1A8E SWAP1 PUSH2 0x4150 JUMP JUMPDEST PUSH1 0x40 MLOAD DUP1 SWAP2 SUB SWAP1 REVERT JUMPDEST PUSH1 0x1 PUSH1 0x2 DUP2 GT ISZERO PUSH2 0x1AAB JUMPI PUSH2 0x1AAA PUSH2 0x46F5 JUMP JUMPDEST JUMPDEST DUP2 PUSH1 0x60 ADD MLOAD PUSH1 0xFF AND PUSH1 0x2 DUP2 GT ISZERO PUSH2 0x1AC5 JUMPI PUSH2 0x1AC4 PUSH2 0x46F5 JUMP JUMPDEST JUMPDEST PUSH1 0x2 DUP2 GT ISZERO PUSH2 0x1AD7 JUMPI PUSH2 0x1AD6 PUSH2 0x46F5 JUMP JUMPDEST JUMPDEST EQ ISZERO PUSH2 0x1B70 JUMPI PUSH1 0x10 DUP1 SLOAD PUSH2 0x1AEA SWAP1 PUSH2 0x461A JUMP JUMPDEST DUP1 PUSH1 0x1F ADD PUSH1 0x20 DUP1 SWAP2 DIV MUL PUSH1 0x20 ADD PUSH1 0x40 MLOAD SWAP1 DUP2 ADD PUSH1 0x40 MSTORE DUP1 SWAP3 SWAP2 SWAP1 DUP2 DUP2 MSTORE PUSH1 0x20 ADD DUP3 DUP1 SLOAD PUSH2 0x1B16 SWAP1 PUSH2 0x461A JUMP JUMPDEST DUP1 ISZERO PUSH2 0x1B63 JUMPI DUP1 PUSH1 0x1F LT PUSH2 0x1B38 JUMPI PUSH2 0x100 DUP1 DUP4 SLOAD DIV MUL DUP4 MSTORE SWAP2 PUSH1 0x20 ADD SWAP2 PUSH2 0x1B63 JUMP JUMPDEST DUP3 ADD SWAP2 SWAP1 PUSH1 0x0 MSTORE PUSH1 0x20 PUSH1 0x0 KECCAK256 SWAP1 JUMPDEST DUP2 SLOAD DUP2 MSTORE SWAP1 PUSH1 0x1 ADD SWAP1 PUSH1 0x20 ADD DUP1 DUP4 GT PUSH2 0x1B46 JUMPI DUP3 SWAP1 SUB PUSH1 0x1F AND DUP3 ADD SWAP2 JUMPDEST POP POP POP POP POP SWAP2 POP POP PUSH2 0x1B7C JUMP JUMPDEST PUSH2 0x1B78 PUSH2 0x2952 JUMP JUMPDEST SWAP2 POP POP JUMPDEST SWAP2 SWAP1 POP JUMP JUMPDEST PUSH1 0xE PUSH1 0x0 SWAP1 SLOAD SWAP1 PUSH2 0x100 EXP SWAP1 DIV PUSH1 0xFF AND DUP2 JUMP JUMPDEST PUSH1 0x0 PUSH1 0x6 PUSH1 0x0 DUP5 PUSH20 0xFFFFFFFFFFFFFFFFFFFFFFFFFFFFFFFFFFFFFFFF AND PUSH20 0xFFFFFFFFFFFFFFFFFFFFFFFFFFFFFFFFFFFFFFFF AND DUP2 MSTORE PUSH1 0x20 ADD SWAP1 DUP2 MSTORE PUSH1 0x20 ADD PUSH1 0x0 KECCAK256 PUSH1 0x0 DUP4 PUSH20 0xFFFFFFFFFFFFFFFFFFFFFFFFFFFFFFFFFFFFFFFF AND PUSH20 0xFFFFFFFFFFFFFFFFFFFFFFFFFFFFFFFFFFFFFFFF AND DUP2 MSTORE PUSH1 0x20 ADD SWAP1 DUP2 MSTORE PUSH1 0x20 ADD PUSH1 0x0 KECCAK256 PUSH1 0x0 SWAP1 SLOAD SWAP1 PUSH2 0x100 EXP SWAP1 DIV PUSH1 0xFF AND SWAP1 POP SWAP3 SWAP2 POP POP JUMP JUMPDEST PUSH2 0x1C30 PUSH2 0x1F85 JUMP JUMPDEST PUSH20 0xFFFFFFFFFFFFFFFFFFFFFFFFFFFFFFFFFFFFFFFF AND PUSH2 0x1C4E PUSH2 0x1706 JUMP JUMPDEST PUSH20 0xFFFFFFFFFFFFFFFFFFFFFFFFFFFFFFFFFFFFFFFF AND EQ PUSH2 0x1CA4 JUMPI PUSH1 0x40 MLOAD PUSH32 0x8C379A000000000000000000000000000000000000000000000000000000000 DUP2 MSTORE PUSH1 0x4 ADD PUSH2 0x1C9B SWAP1 PUSH2 0x40B0 JUMP JUMPDEST PUSH1 0x40 MLOAD DUP1 SWAP2 SUB SWAP1 REVERT JUMPDEST PUSH1 0x0 PUSH20 0xFFFFFFFFFFFFFFFFFFFFFFFFFFFFFFFFFFFFFFFF AND DUP2 PUSH20 0xFFFFFFFFFFFFFFFFFFFFFFFFFFFFFFFFFFFFFFFF AND EQ ISZERO PUSH2 0x1D14 JUMPI PUSH1 0x40 MLOAD PUSH32 0x8C379A000000000000000000000000000000000000000000000000000000000 DUP2 MSTORE PUSH1 0x4 ADD PUSH2 0x1D0B SWAP1 PUSH2 0x3EF0 JUMP JUMPDEST PUSH1 0x40 MLOAD DUP1 SWAP2 SUB SWAP1 REVERT JUMPDEST PUSH2 0x1D1D DUP2 PUSH2 0x26C5 JUMP JUMPDEST POP JUMP JUMPDEST PUSH2 0x1D28 PUSH2 0x321A JUMP JUMPDEST PUSH1 0x0 DUP3 SWAP1 POP PUSH2 0x1D36 DUP2 PUSH2 0x1F19 JUMP JUMPDEST PUSH2 0x1D75 JUMPI PUSH1 0x40 MLOAD PUSH32 0x8C379A000000000000000000000000000000000000000000000000000000000 DUP2 MSTORE PUSH1 0x4 ADD PUSH2 0x1D6C SWAP1 PUSH2 0x41D0 JUMP JUMPDEST PUSH1 0x40 MLOAD DUP1 SWAP2 SUB SWAP1 REVERT JUMPDEST PUSH1 0x0 PUSH1 0x11 PUSH1 0x0 DUP4 DUP2 MSTORE PUSH1 0x20 ADD SWAP1 DUP2 MSTORE PUSH1 0x20 ADD PUSH1 0x0 KECCAK256 PUSH1 0x40 MLOAD DUP1 PUSH1 0xC0 ADD PUSH1 0x40 MSTORE SWAP1 DUP2 PUSH1 0x0 DUP3 ADD SLOAD DUP2 MSTORE PUSH1 0x20 ADD PUSH1 0x1 DUP3 ADD SLOAD DUP2 MSTORE PUSH1 0x20 ADD PUSH1 0x2 DUP3 ADD SLOAD DUP2 MSTORE PUSH1 0x20 ADD PUSH1 0x3 DUP3 ADD PUSH1 0x0 SWAP1 SLOAD SWAP1 PUSH2 0x100 EXP SWAP1 DIV PUSH1 0xFF AND PUSH1 0xFF AND PUSH1 0xFF AND DUP2 MSTORE PUSH1 0x20 ADD PUSH1 0x4 DUP3 ADD SLOAD DUP2 MSTORE PUSH1 0x20 ADD PUSH1 0x5 DUP3 ADD SLOAD DUP2 MSTORE POP POP SWAP1 POP PUSH1 0x0 DUP2 PUSH1 0x0 ADD MLOAD GT PUSH2 0x1E2D JUMPI PUSH1 0x40 MLOAD PUSH32 0x8C379A000000000000000000000000000000000000000000000000000000000 DUP2 MSTORE PUSH1 0x4 ADD PUSH2 0x1E24 SWAP1 PUSH2 0x4150 JUMP JUMPDEST PUSH1 0x40 MLOAD DUP1 SWAP2 SUB SWAP1 REVERT JUMPDEST DUP1 SWAP3 POP POP POP SWAP2 SWAP1 POP JUMP JUMPDEST PUSH1 0x0 PUSH32 0x80AC58CD00000000000000000000000000000000000000000000000000000000 PUSH28 0xFFFFFFFFFFFFFFFFFFFFFFFFFFFFFFFFFFFFFFFFFFFFFFFFFFFFFFFF NOT AND DUP3 PUSH28 0xFFFFFFFFFFFFFFFFFFFFFFFFFFFFFFFFFFFFFFFFFFFFFFFFFFFFFFFF NOT AND EQ DUP1 PUSH2 0x1F02 JUMPI POP PUSH32 0x5B5E139F00000000000000000000000000000000000000000000000000000000 PUSH28 0xFFFFFFFFFFFFFFFFFFFFFFFFFFFFFFFFFFFFFFFFFFFFFFFFFFFFFFFF NOT AND DUP3 PUSH28 0xFFFFFFFFFFFFFFFFFFFFFFFFFFFFFFFFFFFFFFFFFFFFFFFFFFFFFFFF NOT AND EQ JUMPDEST DUP1 PUSH2 0x1F12 JUMPI POP PUSH2 0x1F11 DUP3 PUSH2 0x29E4 JUMP JUMPDEST JUMPDEST SWAP1 POP SWAP2 SWAP1 POP JUMP JUMPDEST PUSH1 0x0 DUP1 PUSH20 0xFFFFFFFFFFFFFFFFFFFFFFFFFFFFFFFFFFFFFFFF AND PUSH1 0x3 PUSH1 0x0 DUP5 DUP2 MSTORE PUSH1 0x20 ADD SWAP1 DUP2 MSTORE PUSH1 0x20 ADD PUSH1 0x0 KECCAK256 PUSH1 0x0 SWAP1 SLOAD SWAP1 PUSH2 0x100 EXP SWAP1 DIV PUSH20 0xFFFFFFFFFFFFFFFFFFFFFFFFFFFFFFFFFFFFFFFF AND PUSH20 0xFFFFFFFFFFFFFFFFFFFFFFFFFFFFFFFFFFFFFFFF AND EQ ISZERO SWAP1 POP SWAP2 SWAP1 POP JUMP JUMPDEST PUSH1 0x0 CALLER SWAP1 POP SWAP1 JUMP JUMPDEST DUP2 PUSH1 0x5 PUSH1 0x0 DUP4 DUP2 MSTORE PUSH1 0x20 ADD SWAP1 DUP2 MSTORE PUSH1 0x20 ADD PUSH1 0x0 KECCAK256 PUSH1 0x0 PUSH2 0x100 EXP DUP2 SLOAD DUP2 PUSH20 0xFFFFFFFFFFFFFFFFFFFFFFFFFFFFFFFFFFFFFFFF MUL NOT AND SWAP1 DUP4 PUSH20 0xFFFFFFFFFFFFFFFFFFFFFFFFFFFFFFFFFFFFFFFF AND MUL OR SWAP1 SSTORE POP DUP1 DUP3 PUSH20 0xFFFFFFFFFFFFFFFFFFFFFFFFFFFFFFFFFFFFFFFF AND PUSH2 0x2000 DUP4 PUSH2 0xD73 JUMP JUMPDEST PUSH20 0xFFFFFFFFFFFFFFFFFFFFFFFFFFFFFFFFFFFFFFFF AND PUSH32 0x8C5BE1E5EBEC7D5BD14F71427D1E84F3DD0314C0F7B2291E5B200AC8C7C3B925 PUSH1 0x40 MLOAD PUSH1 0x40 MLOAD DUP1 SWAP2 SUB SWAP1 LOG4 POP POP JUMP JUMPDEST PUSH1 0x0 PUSH2 0x2051 DUP3 PUSH2 0x1F19 JUMP JUMPDEST PUSH2 0x2090 JUMPI PUSH1 0x40 MLOAD PUSH32 0x8C379A000000000000000000000000000000000000000000000000000000000 DUP2 MSTORE PUSH1 0x4 ADD PUSH2 0x2087 SWAP1 PUSH2 0x3FD0 JUMP JUMPDEST PUSH1 0x40 MLOAD DUP1 SWAP2 SUB SWAP1 REVERT JUMPDEST PUSH1 0x0 PUSH2 0x209B DUP4 PUSH2 0xD73 JUMP JUMPDEST SWAP1 POP DUP1 PUSH20 0xFFFFFFFFFFFFFFFFFFFFFFFFFFFFFFFFFFFFFFFF AND DUP5 PUSH20 0xFFFFFFFFFFFFFFFFFFFFFFFFFFFFFFFFFFFFFFFF AND EQ DUP1 PUSH2 0x210A JUMPI POP DUP4 PUSH20 0xFFFFFFFFFFFFFFFFFFFFFFFFFFFFFFFFFFFFFFFF AND PUSH2 0x20F2 DUP5 PUSH2 0x8C3 JUMP JUMPDEST PUSH20 0xFFFFFFFFFFFFFFFFFFFFFFFFFFFFFFFFFFFFFFFF AND EQ JUMPDEST DUP1 PUSH2 0x211B JUMPI POP PUSH2 0x211A DUP2 DUP6 PUSH2 0x1B94 JUMP JUMPDEST JUMPDEST SWAP2 POP POP SWAP3 SWAP2 POP POP JUMP JUMPDEST DUP3 PUSH20 0xFFFFFFFFFFFFFFFFFFFFFFFFFFFFFFFFFFFFFFFF AND PUSH2 0x2144 DUP3 PUSH2 0xD73 JUMP JUMPDEST PUSH20 0xFFFFFFFFFFFFFFFFFFFFFFFFFFFFFFFFFFFFFFFF AND EQ PUSH2 0x219A JUMPI PUSH1 0x40 MLOAD PUSH32 0x8C379A000000000000000000000000000000000000000000000000000000000 DUP2 MSTORE PUSH1 0x4 ADD PUSH2 0x2191 SWAP1 PUSH2 0x3F10 JUMP JUMPDEST PUSH1 0x40 MLOAD DUP1 SWAP2 SUB SWAP1 REVERT JUMPDEST PUSH1 0x0 PUSH20 0xFFFFFFFFFFFFFFFFFFFFFFFFFFFFFFFFFFFFFFFF AND DUP3 PUSH20 0xFFFFFFFFFFFFFFFFFFFFFFFFFFFFFFFFFFFFFFFF AND EQ ISZERO PUSH2 0x220A JUMPI PUSH1 0x40 MLOAD PUSH32 0x8C379A000000000000000000000000000000000000000000000000000000000 DUP2 MSTORE PUSH1 0x4 ADD PUSH2 0x2201 SWAP1 PUSH2 0x3F50 JUMP JUMPDEST PUSH1 0x40 MLOAD DUP1 SWAP2 SUB SWAP1 REVERT JUMPDEST PUSH2 0x2215 DUP4 DUP4 DUP4 PUSH2 0x2A4E JUMP JUMPDEST PUSH2 0x2220 PUSH1 0x0 DUP3 PUSH2 0x1F8D JUMP JUMPDEST PUSH1 0x1 PUSH1 0x4 PUSH1 0x0 DUP6 PUSH20 0xFFFFFFFFFFFFFFFFFFFFFFFFFFFFFFFFFFFFFFFF AND PUSH20 0xFFFFFFFFFFFFFFFFFFFFFFFFFFFFFFFFFFFFFFFF AND DUP2 MSTORE PUSH1 0x20 ADD SWAP1 DUP2 MSTORE PUSH1 0x20 ADD PUSH1 0x0 KECCAK256 PUSH1 0x0 DUP3 DUP3 SLOAD PUSH2 0x2270 SWAP2 SWAP1 PUSH2 0x4486 JUMP JUMPDEST SWAP3 POP POP DUP2 SWAP1 SSTORE POP PUSH1 0x1 PUSH1 0x4 PUSH1 0x0 DUP5 PUSH20 0xFFFFFFFFFFFFFFFFFFFFFFFFFFFFFFFFFFFFFFFF AND PUSH20 0xFFFFFFFFFFFFFFFFFFFFFFFFFFFFFFFFFFFFFFFF AND DUP2 MSTORE PUSH1 0x20 ADD SWAP1 DUP2 MSTORE PUSH1 0x20 ADD PUSH1 0x0 KECCAK256 PUSH1 0x0 DUP3 DUP3 SLOAD PUSH2 0x22C7 SWAP2 SWAP1 PUSH2 0x4339 JUMP JUMPDEST SWAP3 POP POP DUP2 SWAP1 SSTORE POP DUP2 PUSH1 0x3 PUSH1 0x0 DUP4 DUP2 MSTORE PUSH1 0x20 ADD SWAP1 DUP2 MSTORE PUSH1 0x20 ADD PUSH1 0x0 KECCAK256 PUSH1 0x0 PUSH2 0x100 EXP DUP2 SLOAD DUP2 PUSH20 0xFFFFFFFFFFFFFFFFFFFFFFFFFFFFFFFFFFFFFFFF MUL NOT AND SWAP1 DUP4 PUSH20 0xFFFFFFFFFFFFFFFFFFFFFFFFFFFFFFFFFFFFFFFF AND MUL OR SWAP1 SSTORE POP DUP1 DUP3 PUSH20 0xFFFFFFFFFFFFFFFFFFFFFFFFFFFFFFFFFFFFFFFF AND DUP5 PUSH20 0xFFFFFFFFFFFFFFFFFFFFFFFFFFFFFFFFFFFFFFFF AND PUSH32 0xDDF252AD1BE2C89B69C2B068FC378DAA952BA7F163C4A11628F55A4DF523B3EF PUSH1 0x40 MLOAD PUSH1 0x40 MLOAD DUP1 SWAP2 SUB SWAP1 LOG4 PUSH2 0x2386 DUP4 DUP4 DUP4 PUSH2 0x2B62 JUMP JUMPDEST POP POP POP JUMP JUMPDEST PUSH1 0x0 DUP1 DUP3 GT PUSH2 0x23CF JUMPI PUSH1 0x40 MLOAD PUSH32 0x8C379A000000000000000000000000000000000000000000000000000000000 DUP2 MSTORE PUSH1 0x4 ADD PUSH2 0x23C6 SWAP1 PUSH2 0x4070 JUMP JUMPDEST PUSH1 0x40 MLOAD DUP1 SWAP2 SUB SWAP1 REVERT JUMPDEST PUSH1 0x0 PUSH2 0x23E6 PUSH1 0x6 DUP5 PUSH2 0x23E1 SWAP2 SWAP1 PUSH2 0x4339 JUMP JUMPDEST PUSH2 0x2B67 JUMP JUMPDEST SWAP1 POP PUSH1 0x0 PUSH2 0x23F3 DUP3 PUSH2 0x2B8A JUMP JUMPDEST SWAP1 POP PUSH1 0xDC PUSH2 0x240C PUSH1 0x5A DUP4 PUSH2 0x2407 SWAP2 SWAP1 PUSH2 0x438F JUMP JUMPDEST PUSH2 0x2CAE JUMP JUMPDEST PUSH2 0x2416 SWAP2 SWAP1 PUSH2 0x44BA JUMP JUMPDEST PUSH8 0xFFFFFFFFFFFFFFFF AND SWAP3 POP POP POP SWAP2 SWAP1 POP JUMP JUMPDEST PUSH1 0x0 DUP1 DUP3 GT PUSH2 0x246D JUMPI PUSH1 0x40 MLOAD PUSH32 0x8C379A000000000000000000000000000000000000000000000000000000000 DUP2 MSTORE PUSH1 0x4 ADD PUSH2 0x2464 SWAP1 PUSH2 0x4070 JUMP JUMPDEST PUSH1 0x40 MLOAD DUP1 SWAP2 SUB SWAP1 REVERT JUMPDEST PUSH1 0x0 PUSH2 0x2484 PUSH1 0x6 DUP5 PUSH2 0x247F SWAP2 SWAP1 PUSH2 0x4339 JUMP JUMPDEST PUSH2 0x2B67 JUMP JUMPDEST SWAP1 POP PUSH1 0x0 PUSH2 0x2491 DUP3 PUSH2 0x2B8A JUMP JUMPDEST SWAP1 POP PUSH1 0xDC PUSH2 0x24AA PUSH1 0x6E DUP4 PUSH2 0x24A5 SWAP2 SWAP1 PUSH2 0x438F JUMP JUMPDEST PUSH2 0x2CAE JUMP JUMPDEST PUSH2 0x24B4 SWAP2 SWAP1 PUSH2 0x44BA JUMP JUMPDEST PUSH8 0xFFFFFFFFFFFFFFFF AND SWAP3 POP POP POP SWAP2 SWAP1 POP JUMP JUMPDEST PUSH1 0x1 DUP2 PUSH1 0x0 ADD PUSH1 0x0 DUP3 DUP3 SLOAD ADD SWAP3 POP POP DUP2 SWAP1 SSTORE POP POP JUMP JUMPDEST PUSH1 0x0 DUP2 PUSH1 0x0 ADD SLOAD SWAP1 POP SWAP2 SWAP1 POP JUMP JUMPDEST PUSH1 0x0 PUSH20 0xFFFFFFFFFFFFFFFFFFFFFFFFFFFFFFFFFFFFFFFF AND DUP3 PUSH20 0xFFFFFFFFFFFFFFFFFFFFFFFFFFFFFFFFFFFFFFFF AND EQ ISZERO PUSH2 0x255B JUMPI PUSH1 0x40 MLOAD PUSH32 0x8C379A000000000000000000000000000000000000000000000000000000000 DUP2 MSTORE PUSH1 0x4 ADD PUSH2 0x2552 SWAP1 PUSH2 0x4050 JUMP JUMPDEST PUSH1 0x40 MLOAD DUP1 SWAP2 SUB SWAP1 REVERT JUMPDEST PUSH2 0x2564 DUP2 PUSH2 0x1F19 JUMP JUMPDEST ISZERO PUSH2 0x25A4 JUMPI PUSH1 0x40 MLOAD PUSH32 0x8C379A000000000000000000000000000000000000000000000000000000000 DUP2 MSTORE PUSH1 0x4 ADD PUSH2 0x259B SWAP1 PUSH2 0x3F30 JUMP JUMPDEST PUSH1 0x40 MLOAD DUP1 SWAP2 SUB SWAP1 REVERT JUMPDEST PUSH2 0x25B0 PUSH1 0x0 DUP4 DUP4 PUSH2 0x2A4E JUMP JUMPDEST PUSH1 0x1 PUSH1 0x4 PUSH1 0x0 DUP5 PUSH20 0xFFFFFFFFFFFFFFFFFFFFFFFFFFFFFFFFFFFFFFFF AND PUSH20 0xFFFFFFFFFFFFFFFFFFFFFFFFFFFFFFFFFFFFFFFF AND DUP2 MSTORE PUSH1 0x20 ADD SWAP1 DUP2 MSTORE PUSH1 0x20 ADD PUSH1 0x0 KECCAK256 PUSH1 0x0 DUP3 DUP3 SLOAD PUSH2 0x2600 SWAP2 SWAP1 PUSH2 0x4339 JUMP JUMPDEST SWAP3 POP POP DUP2 SWAP1 SSTORE POP DUP2 PUSH1 0x3 PUSH1 0x0 DUP4 DUP2 MSTORE PUSH1 0x20 ADD SWAP1 DUP2 MSTORE PUSH1 0x20 ADD PUSH1 0x0 KECCAK256 PUSH1 0x0 PUSH2 0x100 EXP DUP2 SLOAD DUP2 PUSH20 0xFFFFFFFFFFFFFFFFFFFFFFFFFFFFFFFFFFFFFFFF MUL NOT AND SWAP1 DUP4 PUSH20 0xFFFFFFFFFFFFFFFFFFFFFFFFFFFFFFFFFFFFFFFF AND MUL OR SWAP1 SSTORE POP DUP1 DUP3 PUSH20 0xFFFFFFFFFFFFFFFFFFFFFFFFFFFFFFFFFFFFFFFF AND PUSH1 0x0 PUSH20 0xFFFFFFFFFFFFFFFFFFFFFFFFFFFFFFFFFFFFFFFF AND PUSH32 0xDDF252AD1BE2C89B69C2B068FC378DAA952BA7F163C4A11628F55A4DF523B3EF PUSH1 0x40 MLOAD PUSH1 0x40 MLOAD DUP1 SWAP2 SUB SWAP1 LOG4 PUSH2 0x26C1 PUSH1 0x0 DUP4 DUP4 PUSH2 0x2B62 JUMP JUMPDEST POP POP JUMP JUMPDEST PUSH1 0x0 DUP1 PUSH1 0x0 SWAP1 SLOAD SWAP1 PUSH2 0x100 EXP SWAP1 DIV PUSH20 0xFFFFFFFFFFFFFFFFFFFFFFFFFFFFFFFFFFFFFFFF AND SWAP1 POP DUP2 PUSH1 0x0 DUP1 PUSH2 0x100 EXP DUP2 SLOAD DUP2 PUSH20 0xFFFFFFFFFFFFFFFFFFFFFFFFFFFFFFFFFFFFFFFF MUL NOT AND SWAP1 DUP4 PUSH20 0xFFFFFFFFFFFFFFFFFFFFFFFFFFFFFFFFFFFFFFFF AND MUL OR SWAP1 SSTORE POP DUP2 PUSH20 0xFFFFFFFFFFFFFFFFFFFFFFFFFFFFFFFFFFFFFFFF AND DUP2 PUSH20 0xFFFFFFFFFFFFFFFFFFFFFFFFFFFFFFFFFFFFFFFF AND PUSH32 0x8BE0079C531659141344CD1FD0A4F28419497F9722A3DAAFE3B4186F6B6457E0 PUSH1 0x40 MLOAD PUSH1 0x40 MLOAD DUP1 SWAP2 SUB SWAP1 LOG3 POP POP JUMP JUMPDEST DUP2 PUSH20 0xFFFFFFFFFFFFFFFFFFFFFFFFFFFFFFFFFFFFFFFF AND DUP4 PUSH20 0xFFFFFFFFFFFFFFFFFFFFFFFFFFFFFFFFFFFFFFFF AND EQ ISZERO PUSH2 0x27F8 JUMPI PUSH1 0x40 MLOAD PUSH32 0x8C379A000000000000000000000000000000000000000000000000000000000 DUP2 MSTORE PUSH1 0x4 ADD PUSH2 0x27EF SWAP1 PUSH2 0x3F90 JUMP JUMPDEST PUSH1 0x40 MLOAD DUP1 SWAP2 SUB SWAP1 REVERT JUMPDEST DUP1 PUSH1 0x6 PUSH1 0x0 DUP6 PUSH20 0xFFFFFFFFFFFFFFFFFFFFFFFFFFFFFFFFFFFFFFFF AND PUSH20 0xFFFFFFFFFFFFFFFFFFFFFFFFFFFFFFFFFFFFFFFF AND DUP2 MSTORE PUSH1 0x20 ADD SWAP1 DUP2 MSTORE PUSH1 0x20 ADD PUSH1 0x0 KECCAK256 PUSH1 0x0 DUP5 PUSH20 0xFFFFFFFFFFFFFFFFFFFFFFFFFFFFFFFFFFFFFFFF AND PUSH20 0xFFFFFFFFFFFFFFFFFFFFFFFFFFFFFFFFFFFFFFFF AND DUP2 MSTORE PUSH1 0x20 ADD SWAP1 DUP2 MSTORE PUSH1 0x20 ADD PUSH1 0x0 KECCAK256 PUSH1 0x0 PUSH2 0x100 EXP DUP2 SLOAD DUP2 PUSH1 0xFF MUL NOT AND SWAP1 DUP4 ISZERO ISZERO MUL OR SWAP1 SSTORE POP DUP2 PUSH20 0xFFFFFFFFFFFFFFFFFFFFFFFFFFFFFFFFFFFFFFFF AND DUP4 PUSH20 0xFFFFFFFFFFFFFFFFFFFFFFFFFFFFFFFFFFFFFFFF AND PUSH32 0x17307EAB39AB6107E8899845AD3D59BD9653F200F220920489CA2B5937696C31 DUP4 PUSH1 0x40 MLOAD PUSH2 0x28E9 SWAP2 SWAP1 PUSH2 0x3DFD JUMP JUMPDEST PUSH1 0x40 MLOAD DUP1 SWAP2 SUB SWAP1 LOG3 POP POP POP JUMP JUMPDEST PUSH2 0x2901 DUP5 DUP5 DUP5 PUSH2 0x2124 JUMP JUMPDEST PUSH2 0x290D DUP5 DUP5 DUP5 DUP5 PUSH2 0x2CCF JUMP JUMPDEST PUSH2 0x294C JUMPI PUSH1 0x40 MLOAD PUSH32 0x8C379A000000000000000000000000000000000000000000000000000000000 DUP2 MSTORE PUSH1 0x4 ADD PUSH2 0x2943 SWAP1 PUSH2 0x3EB0 JUMP JUMPDEST PUSH1 0x40 MLOAD DUP1 SWAP2 SUB SWAP1 REVERT JUMPDEST POP POP POP POP JUMP JUMPDEST PUSH1 0x60 PUSH1 0xF DUP1 SLOAD PUSH2 0x2961 SWAP1 PUSH2 0x461A JUMP JUMPDEST DUP1 PUSH1 0x1F ADD PUSH1 0x20 DUP1 SWAP2 DIV MUL PUSH1 0x20 ADD PUSH1 0x40 MLOAD SWAP1 DUP2 ADD PUSH1 0x40 MSTORE DUP1 SWAP3 SWAP2 SWAP1 DUP2 DUP2 MSTORE PUSH1 0x20 ADD DUP3 DUP1 SLOAD PUSH2 0x298D SWAP1 PUSH2 0x461A JUMP JUMPDEST DUP1 ISZERO PUSH2 0x29DA JUMPI DUP1 PUSH1 0x1F LT PUSH2 0x29AF JUMPI PUSH2 0x100 DUP1 DUP4 SLOAD DIV MUL DUP4 MSTORE SWAP2 PUSH1 0x20 ADD SWAP2 PUSH2 0x29DA JUMP JUMPDEST DUP3 ADD SWAP2 SWAP1 PUSH1 0x0 MSTORE PUSH1 0x20 PUSH1 0x0 KECCAK256 SWAP1 JUMPDEST DUP2 SLOAD DUP2 MSTORE SWAP1 PUSH1 0x1 ADD SWAP1 PUSH1 0x20 ADD DUP1 DUP4 GT PUSH2 0x29BD JUMPI DUP3 SWAP1 SUB PUSH1 0x1F AND DUP3 ADD SWAP2 JUMPDEST POP POP POP POP POP SWAP1 POP SWAP1 JUMP JUMPDEST PUSH1 0x0 PUSH32 0x1FFC9A700000000000000000000000000000000000000000000000000000000 PUSH28 0xFFFFFFFFFFFFFFFFFFFFFFFFFFFFFFFFFFFFFFFFFFFFFFFFFFFFFFFF NOT AND DUP3 PUSH28 0xFFFFFFFFFFFFFFFFFFFFFFFFFFFFFFFFFFFFFFFFFFFFFFFFFFFFFFFF NOT AND EQ SWAP1 POP SWAP2 SWAP1 POP JUMP JUMPDEST PUSH2 0x2A59 DUP4 DUP4 DUP4 PUSH2 0x2E66 JUMP JUMPDEST PUSH1 0x0 PUSH20 0xFFFFFFFFFFFFFFFFFFFFFFFFFFFFFFFFFFFFFFFF AND DUP4 PUSH20 0xFFFFFFFFFFFFFFFFFFFFFFFFFFFFFFFFFFFFFFFF AND EQ ISZERO PUSH2 0x2A9C JUMPI PUSH2 0x2A97 DUP2 PUSH2 0x2E6B JUMP JUMPDEST PUSH2 0x2ADB JUMP JUMPDEST DUP2 PUSH20 0xFFFFFFFFFFFFFFFFFFFFFFFFFFFFFFFFFFFFFFFF AND DUP4 PUSH20 0xFFFFFFFFFFFFFFFFFFFFFFFFFFFFFFFFFFFFFFFF AND EQ PUSH2 0x2ADA JUMPI PUSH2 0x2AD9 DUP4 DUP3 PUSH2 0x2EB4 JUMP JUMPDEST JUMPDEST JUMPDEST PUSH1 0x0 PUSH20 0xFFFFFFFFFFFFFFFFFFFFFFFFFFFFFFFFFFFFFFFF AND DUP3 PUSH20 0xFFFFFFFFFFFFFFFFFFFFFFFFFFFFFFFFFFFFFFFF AND EQ ISZERO PUSH2 0x2B1E JUMPI PUSH2 0x2B19 DUP2 PUSH2 0x3021 JUMP JUMPDEST PUSH2 0x2B5D JUMP JUMPDEST DUP3 PUSH20 0xFFFFFFFFFFFFFFFFFFFFFFFFFFFFFFFFFFFFFFFF AND DUP3 PUSH20 0xFFFFFFFFFFFFFFFFFFFFFFFFFFFFFFFFFFFFFFFF AND EQ PUSH2 0x2B5C JUMPI PUSH2 0x2B5B DUP3 DUP3 PUSH2 0x30F2 JUMP JUMPDEST JUMPDEST JUMPDEST POP POP POP JUMP JUMPDEST POP POP POP JUMP JUMPDEST PUSH1 0x0 PUSH8 0x7FFFFFFFFFFFFFFF DUP3 GT ISZERO PUSH2 0x2B7E JUMPI PUSH1 0x0 DUP1 REVERT JUMPDEST PUSH1 0x40 DUP3 SWAP1 SHL SWAP1 POP SWAP2 SWAP1 POP JUMP JUMPDEST PUSH1 0x0 DUP1 DUP3 PUSH1 0xF SIGNEXTEND SGT PUSH2 0x2B9B JUMPI PUSH1 0x0 DUP1 REVERT JUMPDEST PUSH1 0x0 DUP1 DUP4 PUSH1 0xF SIGNEXTEND SWAP1 POP PUSH9 0x10000000000000000 DUP2 SLT PUSH2 0x2BC2 JUMPI PUSH1 0x40 DUP2 SWAP1 SAR SWAP1 POP PUSH1 0x40 DUP3 ADD SWAP2 POP JUMPDEST PUSH5 0x100000000 DUP2 SLT PUSH2 0x2BDC JUMPI PUSH1 0x20 DUP2 SWAP1 SAR SWAP1 POP PUSH1 0x20 DUP3 ADD SWAP2 POP JUMPDEST PUSH3 0x10000 DUP2 SLT PUSH2 0x2BF4 JUMPI PUSH1 0x10 DUP2 SWAP1 SAR SWAP1 POP PUSH1 0x10 DUP3 ADD SWAP2 POP JUMPDEST PUSH2 0x100 DUP2 SLT PUSH2 0x2C0B JUMPI PUSH1 0x8 DUP2 SWAP1 SAR SWAP1 POP PUSH1 0x8 DUP3 ADD SWAP2 POP JUMPDEST PUSH1 0x10 DUP2 SLT PUSH2 0x2C21 JUMPI PUSH1 0x4 DUP2 SWAP1 SAR SWAP1 POP PUSH1 0x4 DUP3 ADD SWAP2 POP JUMPDEST PUSH1 0x4 DUP2 SLT PUSH2 0x2C37 JUMPI PUSH1 0x2 DUP2 SWAP1 SAR SWAP1 POP PUSH1 0x2 DUP3 ADD SWAP2 POP JUMPDEST PUSH1 0x2 DUP2 SLT PUSH2 0x2C46 JUMPI PUSH1 0x1 DUP3 ADD SWAP2 POP JUMPDEST PUSH1 0x0 PUSH1 0x40 DUP1 DUP5 SUB SWAP1 SHL SWAP1 POP PUSH1 0x0 DUP4 PUSH1 0x7F SUB DUP7 PUSH1 0xF SIGNEXTEND SWAP1 SHL SWAP1 POP PUSH1 0x0 PUSH8 0x8000000000000000 SWAP1 POP JUMPDEST PUSH1 0x0 DUP2 SGT ISZERO PUSH2 0x2CA1 JUMPI DUP2 DUP3 MUL SWAP2 POP PUSH1 0x0 PUSH1 0xFF DUP4 SWAP1 SHR SWAP1 POP DUP1 PUSH1 0x7F ADD DUP4 SWAP1 SHR SWAP3 POP DUP1 DUP3 MUL DUP5 ADD SWAP4 POP POP PUSH1 0x1 DUP2 SWAP1 SAR SWAP1 POP PUSH2 0x2C6D JUMP JUMPDEST POP DUP2 SWAP5 POP POP POP POP POP SWAP2 SWAP1 POP JUMP JUMPDEST PUSH1 0x0 DUP1 DUP3 PUSH1 0xF SIGNEXTEND SLT ISZERO PUSH2 0x2CC0 JUMPI PUSH1 0x0 DUP1 REVERT JUMPDEST PUSH1 0x40 DUP3 PUSH1 0xF SIGNEXTEND SWAP1 SAR SWAP1 POP SWAP2 SWAP1 POP JUMP JUMPDEST PUSH1 0x0 PUSH2 0x2CF0 DUP5 PUSH20 0xFFFFFFFFFFFFFFFFFFFFFFFFFFFFFFFFFFFFFFFF AND PUSH2 0x3171 JUMP JUMPDEST ISZERO PUSH2 0x2E59 JUMPI DUP4 PUSH20 0xFFFFFFFFFFFFFFFFFFFFFFFFFFFFFFFFFFFFFFFF AND PUSH4 0x150B7A02 PUSH2 0x2D19 PUSH2 0x1F85 JUMP JUMPDEST DUP8 DUP7 DUP7 PUSH1 0x40 MLOAD DUP6 PUSH4 0xFFFFFFFF AND PUSH1 0xE0 SHL DUP2 MSTORE PUSH1 0x4 ADD PUSH2 0x2D3B SWAP5 SWAP4 SWAP3 SWAP2 SWAP1 PUSH2 0x3D8F JUMP JUMPDEST PUSH1 0x20 PUSH1 0x40 MLOAD DUP1 DUP4 SUB DUP2 PUSH1 0x0 DUP8 DUP1 EXTCODESIZE ISZERO DUP1 ISZERO PUSH2 0x2D55 JUMPI PUSH1 0x0 DUP1 REVERT JUMPDEST POP GAS CALL SWAP3 POP POP POP DUP1 ISZERO PUSH2 0x2D86 JUMPI POP PUSH1 0x40 MLOAD RETURNDATASIZE PUSH1 0x1F NOT PUSH1 0x1F DUP3 ADD AND DUP3 ADD DUP1 PUSH1 0x40 MSTORE POP DUP2 ADD SWAP1 PUSH2 0x2D83 SWAP2 SWAP1 PUSH2 0x36C8 JUMP JUMPDEST PUSH1 0x1 JUMPDEST PUSH2 0x2E09 JUMPI RETURNDATASIZE DUP1 PUSH1 0x0 DUP2 EQ PUSH2 0x2DB6 JUMPI PUSH1 0x40 MLOAD SWAP2 POP PUSH1 0x1F NOT PUSH1 0x3F RETURNDATASIZE ADD AND DUP3 ADD PUSH1 0x40 MSTORE RETURNDATASIZE DUP3 MSTORE RETURNDATASIZE PUSH1 0x0 PUSH1 0x20 DUP5 ADD RETURNDATACOPY PUSH2 0x2DBB JUMP JUMPDEST PUSH1 0x60 SWAP2 POP JUMPDEST POP PUSH1 0x0 DUP2 MLOAD EQ ISZERO PUSH2 0x2E01 JUMPI PUSH1 0x40 MLOAD PUSH32 0x8C379A000000000000000000000000000000000000000000000000000000000 DUP2 MSTORE PUSH1 0x4 ADD PUSH2 0x2DF8 SWAP1 PUSH2 0x3EB0 JUMP JUMPDEST PUSH1 0x40 MLOAD DUP1 SWAP2 SUB SWAP1 REVERT JUMPDEST DUP1 MLOAD DUP2 PUSH1 0x20 ADD REVERT JUMPDEST PUSH4 0x150B7A02 PUSH1 0xE0 SHL PUSH28 0xFFFFFFFFFFFFFFFFFFFFFFFFFFFFFFFFFFFFFFFFFFFFFFFFFFFFFFFF NOT AND DUP2 PUSH28 0xFFFFFFFFFFFFFFFFFFFFFFFFFFFFFFFFFFFFFFFFFFFFFFFFFFFFFFFF NOT AND EQ SWAP2 POP POP PUSH2 0x2E5E JUMP JUMPDEST PUSH1 0x1 SWAP1 POP JUMPDEST SWAP5 SWAP4 POP POP POP POP JUMP JUMPDEST POP POP POP JUMP JUMPDEST PUSH1 0x9 DUP1 SLOAD SWAP1 POP PUSH1 0xA PUSH1 0x0 DUP4 DUP2 MSTORE PUSH1 0x20 ADD SWAP1 DUP2 MSTORE PUSH1 0x20 ADD PUSH1 0x0 KECCAK256 DUP2 SWAP1 SSTORE POP PUSH1 0x9 DUP2 SWAP1 DUP1 PUSH1 0x1 DUP2 SLOAD ADD DUP1 DUP3 SSTORE DUP1 SWAP2 POP POP PUSH1 0x1 SWAP1 SUB SWAP1 PUSH1 0x0 MSTORE PUSH1 0x20 PUSH1 0x0 KECCAK256 ADD PUSH1 0x0 SWAP1 SWAP2 SWAP1 SWAP2 SWAP1 SWAP2 POP SSTORE POP JUMP JUMPDEST PUSH1 0x0 PUSH1 0x1 PUSH2 0x2EC1 DUP5 PUSH2 0x1496 JUMP JUMPDEST PUSH2 0x2ECB SWAP2 SWAP1 PUSH2 0x4486 JUMP JUMPDEST SWAP1 POP PUSH1 0x0 PUSH1 0x8 PUSH1 0x0 DUP5 DUP2 MSTORE PUSH1 0x20 ADD SWAP1 DUP2 MSTORE PUSH1 0x20 ADD PUSH1 0x0 KECCAK256 SLOAD SWAP1 POP DUP2 DUP2 EQ PUSH2 0x2FB0 JUMPI PUSH1 0x0 PUSH1 0x7 PUSH1 0x0 DUP7 PUSH20 0xFFFFFFFFFFFFFFFFFFFFFFFFFFFFFFFFFFFFFFFF AND PUSH20 0xFFFFFFFFFFFFFFFFFFFFFFFFFFFFFFFFFFFFFFFF AND DUP2 MSTORE PUSH1 0x20 ADD SWAP1 DUP2 MSTORE PUSH1 0x20 ADD PUSH1 0x0 KECCAK256 PUSH1 0x0 DUP5 DUP2 MSTORE PUSH1 0x20 ADD SWAP1 DUP2 MSTORE PUSH1 0x20 ADD PUSH1 0x0 KECCAK256 SLOAD SWAP1 POP DUP1 PUSH1 0x7 PUSH1 0x0 DUP8 PUSH20 0xFFFFFFFFFFFFFFFFFFFFFFFFFFFFFFFFFFFFFFFF AND PUSH20 0xFFFFFFFFFFFFFFFFFFFFFFFFFFFFFFFFFFFFFFFF AND DUP2 MSTORE PUSH1 0x20 ADD SWAP1 DUP2 MSTORE PUSH1 0x20 ADD PUSH1 0x0 KECCAK256 PUSH1 0x0 DUP5 DUP2 MSTORE PUSH1 0x20 ADD SWAP1 DUP2 MSTORE PUSH1 0x20 ADD PUSH1 0x0 KECCAK256 DUP2 SWAP1 SSTORE POP DUP2 PUSH1 0x8 PUSH1 0x0 DUP4 DUP2 MSTORE PUSH1 0x20 ADD SWAP1 DUP2 MSTORE PUSH1 0x20 ADD PUSH1 0x0 KECCAK256 DUP2 SWAP1 SSTORE POP POP JUMPDEST PUSH1 0x8 PUSH1 0x0 DUP5 DUP2 MSTORE PUSH1 0x20 ADD SWAP1 DUP2 MSTORE PUSH1 0x20 ADD PUSH1 0x0 KECCAK256 PUSH1 0x0 SWAP1 SSTORE PUSH1 0x7 PUSH1 0x0 DUP6 PUSH20 0xFFFFFFFFFFFFFFFFFFFFFFFFFFFFFFFFFFFFFFFF AND PUSH20 0xFFFFFFFFFFFFFFFFFFFFFFFFFFFFFFFFFFFFFFFF AND DUP2 MSTORE PUSH1 0x20 ADD SWAP1 DUP2 MSTORE PUSH1 0x20 ADD PUSH1 0x0 KECCAK256 PUSH1 0x0 DUP4 DUP2 MSTORE PUSH1 0x20 ADD SWAP1 DUP2 MSTORE PUSH1 0x20 ADD PUSH1 0x0 KECCAK256 PUSH1 0x0 SWAP1 SSTORE POP POP POP POP JUMP JUMPDEST PUSH1 0x0 PUSH1 0x1 PUSH1 0x9 DUP1 SLOAD SWAP1 POP PUSH2 0x3035 SWAP2 SWAP1 PUSH2 0x4486 JUMP JUMPDEST SWAP1 POP PUSH1 0x0 PUSH1 0xA PUSH1 0x0 DUP5 DUP2 MSTORE PUSH1 0x20 ADD SWAP1 DUP2 MSTORE PUSH1 0x20 ADD PUSH1 0x0 KECCAK256 SLOAD SWAP1 POP PUSH1 0x0 PUSH1 0x9 DUP4 DUP2 SLOAD DUP2 LT PUSH2 0x3065 JUMPI PUSH2 0x3064 PUSH2 0x4782 JUMP JUMPDEST JUMPDEST SWAP1 PUSH1 0x0 MSTORE PUSH1 0x20 PUSH1 0x0 KECCAK256 ADD SLOAD SWAP1 POP DUP1 PUSH1 0x9 DUP4 DUP2 SLOAD DUP2 LT PUSH2 0x3087 JUMPI PUSH2 0x3086 PUSH2 0x4782 JUMP JUMPDEST JUMPDEST SWAP1 PUSH1 0x0 MSTORE PUSH1 0x20 PUSH1 0x0 KECCAK256 ADD DUP2 SWAP1 SSTORE POP DUP2 PUSH1 0xA PUSH1 0x0 DUP4 DUP2 MSTORE PUSH1 0x20 ADD SWAP1 DUP2 MSTORE PUSH1 0x20 ADD PUSH1 0x0 KECCAK256 DUP2 SWAP1 SSTORE POP PUSH1 0xA PUSH1 0x0 DUP6 DUP2 MSTORE PUSH1 0x20 ADD SWAP1 DUP2 MSTORE PUSH1 0x20 ADD PUSH1 0x0 KECCAK256 PUSH1 0x0 SWAP1 SSTORE PUSH1 0x9 DUP1 SLOAD DUP1 PUSH2 0x30D6 JUMPI PUSH2 0x30D5 PUSH2 0x4753 JUMP JUMPDEST JUMPDEST PUSH1 0x1 SWAP1 SUB DUP2 DUP2 SWAP1 PUSH1 0x0 MSTORE PUSH1 0x20 PUSH1 0x0 KECCAK256 ADD PUSH1 0x0 SWAP1 SSTORE SWAP1 SSTORE POP POP POP POP JUMP JUMPDEST PUSH1 0x0 PUSH2 0x30FD DUP4 PUSH2 0x1496 JUMP JUMPDEST SWAP1 POP DUP2 PUSH1 0x7 PUSH1 0x0 DUP6 PUSH20 0xFFFFFFFFFFFFFFFFFFFFFFFFFFFFFFFFFFFFFFFF AND PUSH20 0xFFFFFFFFFFFFFFFFFFFFFFFFFFFFFFFFFFFFFFFF AND DUP2 MSTORE PUSH1 0x20 ADD SWAP1 DUP2 MSTORE PUSH1 0x20 ADD PUSH1 0x0 KECCAK256 PUSH1 0x0 DUP4 DUP2 MSTORE PUSH1 0x20 ADD SWAP1 DUP2 MSTORE PUSH1 0x20 ADD PUSH1 0x0 KECCAK256 DUP2 SWAP1 SSTORE POP DUP1 PUSH1 0x8 PUSH1 0x0 DUP5 DUP2 MSTORE PUSH1 0x20 ADD SWAP1 DUP2 MSTORE PUSH1 0x20 ADD PUSH1 0x0 KECCAK256 DUP2 SWAP1 SSTORE POP POP POP POP JUMP JUMPDEST PUSH1 0x0 DUP1 DUP3 PUSH20 0xFFFFFFFFFFFFFFFFFFFFFFFFFFFFFFFFFFFFFFFF AND EXTCODESIZE GT SWAP1 POP SWAP2 SWAP1 POP JUMP JUMPDEST DUP3 DUP1 SLOAD PUSH2 0x31A0 SWAP1 PUSH2 0x461A JUMP JUMPDEST SWAP1 PUSH1 0x0 MSTORE PUSH1 0x20 PUSH1 0x0 KECCAK256 SWAP1 PUSH1 0x1F ADD PUSH1 0x20 SWAP1 DIV DUP2 ADD SWAP3 DUP3 PUSH2 0x31C2 JUMPI PUSH1 0x0 DUP6 SSTORE PUSH2 0x3209 JUMP JUMPDEST DUP3 PUSH1 0x1F LT PUSH2 0x31DB JUMPI DUP1 MLOAD PUSH1 0xFF NOT AND DUP4 DUP1 ADD OR DUP6 SSTORE PUSH2 0x3209 JUMP JUMPDEST DUP3 DUP1 ADD PUSH1 0x1 ADD DUP6 SSTORE DUP3 ISZERO PUSH2 0x3209 JUMPI SWAP2 DUP3 ADD JUMPDEST DUP3 DUP2 GT ISZERO PUSH2 0x3208 JUMPI DUP3 MLOAD DUP3 SSTORE SWAP2 PUSH1 0x20 ADD SWAP2 SWAP1 PUSH1 0x1 ADD SWAP1 PUSH2 0x31ED JUMP JUMPDEST JUMPDEST POP SWAP1 POP PUSH2 0x3216 SWAP2 SWAP1 PUSH2 0x3253 JUMP JUMPDEST POP SWAP1 JUMP JUMPDEST PUSH1 0x40 MLOAD DUP1 PUSH1 0xC0 ADD PUSH1 0x40 MSTORE DUP1 PUSH1 0x0 DUP2 MSTORE PUSH1 0x20 ADD PUSH1 0x0 DUP2 MSTORE PUSH1 0x20 ADD PUSH1 0x0 DUP2 MSTORE PUSH1 0x20 ADD PUSH1 0x0 PUSH1 0xFF AND DUP2 MSTORE PUSH1 0x20 ADD PUSH1 0x0 DUP2 MSTORE PUSH1 0x20 ADD PUSH1 0x0 DUP2 MSTORE POP SWAP1 JUMP JUMPDEST JUMPDEST DUP1 DUP3 GT ISZERO PUSH2 0x326C JUMPI PUSH1 0x0 DUP2 PUSH1 0x0 SWAP1 SSTORE POP PUSH1 0x1 ADD PUSH2 0x3254 JUMP JUMPDEST POP SWAP1 JUMP JUMPDEST PUSH1 0x0 PUSH2 0x3283 PUSH2 0x327E DUP5 PUSH2 0x4266 JUMP JUMPDEST PUSH2 0x4241 JUMP JUMPDEST SWAP1 POP DUP3 DUP2 MSTORE PUSH1 0x20 DUP2 ADD DUP5 DUP5 DUP5 ADD GT ISZERO PUSH2 0x329F JUMPI PUSH2 0x329E PUSH2 0x47EA JUMP JUMPDEST JUMPDEST PUSH2 0x32AA DUP5 DUP3 DUP6 PUSH2 0x45D8 JUMP JUMPDEST POP SWAP4 SWAP3 POP POP POP JUMP JUMPDEST PUSH1 0x0 PUSH2 0x32C5 PUSH2 0x32C0 DUP5 PUSH2 0x4297 JUMP JUMPDEST PUSH2 0x4241 JUMP JUMPDEST SWAP1 POP DUP3 DUP2 MSTORE PUSH1 0x20 DUP2 ADD DUP5 DUP5 DUP5 ADD GT ISZERO PUSH2 0x32E1 JUMPI PUSH2 0x32E0 PUSH2 0x47EA JUMP JUMPDEST JUMPDEST PUSH2 0x32EC DUP5 DUP3 DUP6 PUSH2 0x45D8 JUMP JUMPDEST POP SWAP4 SWAP3 POP POP POP JUMP JUMPDEST PUSH1 0x0 DUP2 CALLDATALOAD SWAP1 POP PUSH2 0x3303 DUP2 PUSH2 0x4F32 JUMP JUMPDEST SWAP3 SWAP2 POP POP JUMP JUMPDEST PUSH1 0x0 DUP2 CALLDATALOAD SWAP1 POP PUSH2 0x3318 DUP2 PUSH2 0x4F49 JUMP JUMPDEST SWAP3 SWAP2 POP POP JUMP JUMPDEST PUSH1 0x0 DUP2 CALLDATALOAD SWAP1 POP PUSH2 0x332D DUP2 PUSH2 0x4F60 JUMP JUMPDEST SWAP3 SWAP2 POP POP JUMP JUMPDEST PUSH1 0x0 DUP2 MLOAD SWAP1 POP PUSH2 0x3342 DUP2 PUSH2 0x4F60 JUMP JUMPDEST SWAP3 SWAP2 POP POP JUMP JUMPDEST PUSH1 0x0 DUP3 PUSH1 0x1F DUP4 ADD SLT PUSH2 0x335D JUMPI PUSH2 0x335C PUSH2 0x47E0 JUMP JUMPDEST JUMPDEST DUP2 CALLDATALOAD PUSH2 0x336D DUP5 DUP3 PUSH1 0x20 DUP7 ADD PUSH2 0x3270 JUMP JUMPDEST SWAP2 POP POP SWAP3 SWAP2 POP POP JUMP JUMPDEST PUSH1 0x0 DUP3 PUSH1 0x1F DUP4 ADD SLT PUSH2 0x338B JUMPI PUSH2 0x338A PUSH2 0x47E0 JUMP JUMPDEST JUMPDEST DUP2 CALLDATALOAD PUSH2 0x339B DUP5 DUP3 PUSH1 0x20 DUP7 ADD PUSH2 0x32B2 JUMP JUMPDEST SWAP2 POP POP SWAP3 SWAP2 POP POP JUMP JUMPDEST PUSH1 0x0 PUSH1 0xC0 DUP3 DUP5 SUB SLT ISZERO PUSH2 0x33BA JUMPI PUSH2 0x33B9 PUSH2 0x47E5 JUMP JUMPDEST JUMPDEST PUSH2 0x33C4 PUSH1 0xC0 PUSH2 0x4241 JUMP JUMPDEST SWAP1 POP PUSH1 0x0 PUSH2 0x33D4 DUP5 DUP3 DUP6 ADD PUSH2 0x3459 JUMP JUMPDEST PUSH1 0x0 DUP4 ADD MSTORE POP PUSH1 0x20 PUSH2 0x33E8 DUP5 DUP3 DUP6 ADD PUSH2 0x3459 JUMP JUMPDEST PUSH1 0x20 DUP4 ADD MSTORE POP PUSH1 0x40 PUSH2 0x33FC DUP5 DUP3 DUP6 ADD PUSH2 0x3459 JUMP JUMPDEST PUSH1 0x40 DUP4 ADD MSTORE POP PUSH1 0x60 PUSH2 0x3410 DUP5 DUP3 DUP6 ADD PUSH2 0x3483 JUMP JUMPDEST PUSH1 0x60 DUP4 ADD MSTORE POP PUSH1 0x80 PUSH2 0x3424 DUP5 DUP3 DUP6 ADD PUSH2 0x3459 JUMP JUMPDEST PUSH1 0x80 DUP4 ADD MSTORE POP PUSH1 0xA0 PUSH2 0x3438 DUP5 DUP3 DUP6 ADD PUSH2 0x3459 JUMP JUMPDEST PUSH1 0xA0 DUP4 ADD MSTORE POP SWAP3 SWAP2 POP POP JUMP JUMPDEST PUSH1 0x0 DUP2 CALLDATALOAD SWAP1 POP PUSH2 0x3453 DUP2 PUSH2 0x4F77 JUMP JUMPDEST SWAP3 SWAP2 POP POP JUMP JUMPDEST PUSH1 0x0 DUP2 MLOAD SWAP1 POP PUSH2 0x3468 DUP2 PUSH2 0x4F77 JUMP JUMPDEST SWAP3 SWAP2 POP POP JUMP JUMPDEST PUSH1 0x0 DUP2 CALLDATALOAD SWAP1 POP PUSH2 0x347D DUP2 PUSH2 0x4F8E JUMP JUMPDEST SWAP3 SWAP2 POP POP JUMP JUMPDEST PUSH1 0x0 DUP2 MLOAD SWAP1 POP PUSH2 0x3492 DUP2 PUSH2 0x4F8E JUMP JUMPDEST SWAP3 SWAP2 POP POP JUMP JUMPDEST PUSH1 0x0 PUSH1 0x20 DUP3 DUP5 SUB SLT ISZERO PUSH2 0x34AE JUMPI PUSH2 0x34AD PUSH2 0x47F4 JUMP JUMPDEST JUMPDEST PUSH1 0x0 PUSH2 0x34BC DUP5 DUP3 DUP6 ADD PUSH2 0x32F4 JUMP JUMPDEST SWAP2 POP POP SWAP3 SWAP2 POP POP JUMP JUMPDEST PUSH1 0x0 DUP1 PUSH1 0x40 DUP4 DUP6 SUB SLT ISZERO PUSH2 0x34DC JUMPI PUSH2 0x34DB PUSH2 0x47F4 JUMP JUMPDEST JUMPDEST PUSH1 0x0 PUSH2 0x34EA DUP6 DUP3 DUP7 ADD PUSH2 0x32F4 JUMP JUMPDEST SWAP3 POP POP PUSH1 0x20 PUSH2 0x34FB DUP6 DUP3 DUP7 ADD PUSH2 0x32F4 JUMP JUMPDEST SWAP2 POP POP SWAP3 POP SWAP3 SWAP1 POP JUMP JUMPDEST PUSH1 0x0 DUP1 PUSH1 0x0 PUSH1 0x60 DUP5 DUP7 SUB SLT ISZERO PUSH2 0x351E JUMPI PUSH2 0x351D PUSH2 0x47F4 JUMP JUMPDEST JUMPDEST PUSH1 0x0 PUSH2 0x352C DUP7 DUP3 DUP8 ADD PUSH2 0x32F4 JUMP JUMPDEST SWAP4 POP POP PUSH1 0x20 PUSH2 0x353D DUP7 DUP3 DUP8 ADD PUSH2 0x32F4 JUMP JUMPDEST SWAP3 POP POP PUSH1 0x40 PUSH2 0x354E DUP7 DUP3 DUP8 ADD PUSH2 0x3444 JUMP JUMPDEST SWAP2 POP POP SWAP3 POP SWAP3 POP SWAP3 JUMP JUMPDEST PUSH1 0x0 DUP1 PUSH1 0x0 DUP1 PUSH1 0x80 DUP6 DUP8 SUB SLT ISZERO PUSH2 0x3572 JUMPI PUSH2 0x3571 PUSH2 0x47F4 JUMP JUMPDEST JUMPDEST PUSH1 0x0 PUSH2 0x3580 DUP8 DUP3 DUP9 ADD PUSH2 0x32F4 JUMP JUMPDEST SWAP5 POP POP PUSH1 0x20 PUSH2 0x3591 DUP8 DUP3 DUP9 ADD PUSH2 0x32F4 JUMP JUMPDEST SWAP4 POP POP PUSH1 0x40 PUSH2 0x35A2 DUP8 DUP3 DUP9 ADD PUSH2 0x3444 JUMP JUMPDEST SWAP3 POP POP PUSH1 0x60 DUP6 ADD CALLDATALOAD PUSH8 0xFFFFFFFFFFFFFFFF DUP2 GT ISZERO PUSH2 0x35C3 JUMPI PUSH2 0x35C2 PUSH2 0x47EF JUMP JUMPDEST JUMPDEST PUSH2 0x35CF DUP8 DUP3 DUP9 ADD PUSH2 0x3348 JUMP JUMPDEST SWAP2 POP POP SWAP3 SWAP6 SWAP2 SWAP5 POP SWAP3 POP JUMP JUMPDEST PUSH1 0x0 DUP1 PUSH1 0x40 DUP4 DUP6 SUB SLT ISZERO PUSH2 0x35F2 JUMPI PUSH2 0x35F1 PUSH2 0x47F4 JUMP JUMPDEST JUMPDEST PUSH1 0x0 PUSH2 0x3600 DUP6 DUP3 DUP7 ADD PUSH2 0x32F4 JUMP JUMPDEST SWAP3 POP POP PUSH1 0x20 PUSH2 0x3611 DUP6 DUP3 DUP7 ADD PUSH2 0x3309 JUMP JUMPDEST SWAP2 POP POP SWAP3 POP SWAP3 SWAP1 POP JUMP JUMPDEST PUSH1 0x0 DUP1 PUSH1 0x40 DUP4 DUP6 SUB SLT ISZERO PUSH2 0x3632 JUMPI PUSH2 0x3631 PUSH2 0x47F4 JUMP JUMPDEST JUMPDEST PUSH1 0x0 PUSH2 0x3640 DUP6 DUP3 DUP7 ADD PUSH2 0x32F4 JUMP JUMPDEST SWAP3 POP POP PUSH1 0x20 PUSH2 0x3651 DUP6 DUP3 DUP7 ADD PUSH2 0x3444 JUMP JUMPDEST SWAP2 POP POP SWAP3 POP SWAP3 SWAP1 POP JUMP JUMPDEST PUSH1 0x0 DUP1 PUSH1 0x40 DUP4 DUP6 SUB SLT ISZERO PUSH2 0x3672 JUMPI PUSH2 0x3671 PUSH2 0x47F4 JUMP JUMPDEST JUMPDEST PUSH1 0x0 PUSH2 0x3680 DUP6 DUP3 DUP7 ADD PUSH2 0x32F4 JUMP JUMPDEST SWAP3 POP POP PUSH1 0x20 PUSH2 0x3691 DUP6 DUP3 DUP7 ADD PUSH2 0x346E JUMP JUMPDEST SWAP2 POP POP SWAP3 POP SWAP3 SWAP1 POP JUMP JUMPDEST PUSH1 0x0 PUSH1 0x20 DUP3 DUP5 SUB SLT ISZERO PUSH2 0x36B1 JUMPI PUSH2 0x36B0 PUSH2 0x47F4 JUMP JUMPDEST JUMPDEST PUSH1 0x0 PUSH2 0x36BF DUP5 DUP3 DUP6 ADD PUSH2 0x331E JUMP JUMPDEST SWAP2 POP POP SWAP3 SWAP2 POP POP JUMP JUMPDEST PUSH1 0x0 PUSH1 0x20 DUP3 DUP5 SUB SLT ISZERO PUSH2 0x36DE JUMPI PUSH2 0x36DD PUSH2 0x47F4 JUMP JUMPDEST JUMPDEST PUSH1 0x0 PUSH2 0x36EC DUP5 DUP3 DUP6 ADD PUSH2 0x3333 JUMP JUMPDEST SWAP2 POP POP SWAP3 SWAP2 POP POP JUMP JUMPDEST PUSH1 0x0 PUSH1 0x20 DUP3 DUP5 SUB SLT ISZERO PUSH2 0x370B JUMPI PUSH2 0x370A PUSH2 0x47F4 JUMP JUMPDEST JUMPDEST PUSH1 0x0 DUP3 ADD CALLDATALOAD PUSH8 0xFFFFFFFFFFFFFFFF DUP2 GT ISZERO PUSH2 0x3729 JUMPI PUSH2 0x3728 PUSH2 0x47EF JUMP JUMPDEST JUMPDEST PUSH2 0x3735 DUP5 DUP3 DUP6 ADD PUSH2 0x3376 JUMP JUMPDEST SWAP2 POP POP SWAP3 SWAP2 POP POP JUMP JUMPDEST PUSH1 0x0 PUSH1 0xC0 DUP3 DUP5 SUB SLT ISZERO PUSH2 0x3754 JUMPI PUSH2 0x3753 PUSH2 0x47F4 JUMP JUMPDEST JUMPDEST PUSH1 0x0 PUSH2 0x3762 DUP5 DUP3 DUP6 ADD PUSH2 0x33A4 JUMP JUMPDEST SWAP2 POP POP SWAP3 SWAP2 POP POP JUMP JUMPDEST PUSH1 0x0 PUSH1 0x20 DUP3 DUP5 SUB SLT ISZERO PUSH2 0x3781 JUMPI PUSH2 0x3780 PUSH2 0x47F4 JUMP JUMPDEST JUMPDEST PUSH1 0x0 PUSH2 0x378F DUP5 DUP3 DUP6 ADD PUSH2 0x3444 JUMP JUMPDEST SWAP2 POP POP SWAP3 SWAP2 POP POP JUMP JUMPDEST PUSH1 0x0 PUSH1 0x20 DUP3 DUP5 SUB SLT ISZERO PUSH2 0x37AE JUMPI PUSH2 0x37AD PUSH2 0x47F4 JUMP JUMPDEST JUMPDEST PUSH1 0x0 PUSH2 0x37BC DUP5 DUP3 DUP6 ADD PUSH2 0x3459 JUMP JUMPDEST SWAP2 POP POP SWAP3 SWAP2 POP POP JUMP JUMPDEST PUSH1 0x0 PUSH2 0x37D1 DUP4 DUP4 PUSH2 0x3D38 JUMP JUMPDEST PUSH1 0x20 DUP4 ADD SWAP1 POP SWAP3 SWAP2 POP POP JUMP JUMPDEST PUSH2 0x37E6 DUP2 PUSH2 0x44EE JUMP JUMPDEST DUP3 MSTORE POP POP JUMP JUMPDEST PUSH1 0x0 PUSH2 0x37F7 DUP3 PUSH2 0x42D8 JUMP JUMPDEST PUSH2 0x3801 DUP2 DUP6 PUSH2 0x4306 JUMP JUMPDEST SWAP4 POP PUSH2 0x380C DUP4 PUSH2 0x42C8 JUMP JUMPDEST DUP1 PUSH1 0x0 JUMPDEST DUP4 DUP2 LT ISZERO PUSH2 0x383D JUMPI DUP2 MLOAD PUSH2 0x3824 DUP9 DUP3 PUSH2 0x37C5 JUMP JUMPDEST SWAP8 POP PUSH2 0x382F DUP4 PUSH2 0x42F9 JUMP JUMPDEST SWAP3 POP POP PUSH1 0x1 DUP2 ADD SWAP1 POP PUSH2 0x3810 JUMP JUMPDEST POP DUP6 SWAP4 POP POP POP POP SWAP3 SWAP2 POP POP JUMP JUMPDEST PUSH2 0x3853 DUP2 PUSH2 0x4500 JUMP JUMPDEST DUP3 MSTORE POP POP JUMP JUMPDEST PUSH1 0x0 PUSH2 0x3864 DUP3 PUSH2 0x42E3 JUMP JUMPDEST PUSH2 0x386E DUP2 DUP6 PUSH2 0x4317 JUMP JUMPDEST SWAP4 POP PUSH2 0x387E DUP2 DUP6 PUSH1 0x20 DUP7 ADD PUSH2 0x45E7 JUMP JUMPDEST PUSH2 0x3887 DUP2 PUSH2 0x47F9 JUMP JUMPDEST DUP5 ADD SWAP2 POP POP SWAP3 SWAP2 POP POP JUMP JUMPDEST PUSH2 0x389B DUP2 PUSH2 0x4590 JUMP JUMPDEST DUP3 MSTORE POP POP JUMP JUMPDEST PUSH2 0x38AA DUP2 PUSH2 0x45A2 JUMP JUMPDEST DUP3 MSTORE POP POP JUMP JUMPDEST PUSH1 0x0 PUSH2 0x38BB DUP3 PUSH2 0x42EE JUMP JUMPDEST PUSH2 0x38C5 DUP2 DUP6 PUSH2 0x4328 JUMP JUMPDEST SWAP4 POP PUSH2 0x38D5 DUP2 DUP6 PUSH1 0x20 DUP7 ADD PUSH2 0x45E7 JUMP JUMPDEST PUSH2 0x38DE DUP2 PUSH2 0x47F9 JUMP JUMPDEST DUP5 ADD SWAP2 POP POP SWAP3 SWAP2 POP POP JUMP JUMPDEST PUSH1 0x0 PUSH2 0x38F6 PUSH1 0x1C DUP4 PUSH2 0x4328 JUMP JUMPDEST SWAP2 POP PUSH2 0x3901 DUP3 PUSH2 0x480A JUMP JUMPDEST PUSH1 0x20 DUP3 ADD SWAP1 POP SWAP2 SWAP1 POP JUMP JUMPDEST PUSH1 0x0 PUSH2 0x3919 PUSH1 0x2B DUP4 PUSH2 0x4328 JUMP JUMPDEST SWAP2 POP PUSH2 0x3924 DUP3 PUSH2 0x4833 JUMP JUMPDEST PUSH1 0x40 DUP3 ADD SWAP1 POP SWAP2 SWAP1 POP JUMP JUMPDEST PUSH1 0x0 PUSH2 0x393C PUSH1 0x32 DUP4 PUSH2 0x4328 JUMP JUMPDEST SWAP2 POP PUSH2 0x3947 DUP3 PUSH2 0x4882 JUMP JUMPDEST PUSH1 0x40 DUP3 ADD SWAP1 POP SWAP2 SWAP1 POP JUMP JUMPDEST PUSH1 0x0 PUSH2 0x395F PUSH1 0x15 DUP4 PUSH2 0x4328 JUMP JUMPDEST SWAP2 POP PUSH2 0x396A DUP3 PUSH2 0x48D1 JUMP JUMPDEST PUSH1 0x20 DUP3 ADD SWAP1 POP SWAP2 SWAP1 POP JUMP JUMPDEST PUSH1 0x0 PUSH2 0x3982 PUSH1 0x26 DUP4 PUSH2 0x4328 JUMP JUMPDEST SWAP2 POP PUSH2 0x398D DUP3 PUSH2 0x48FA JUMP JUMPDEST PUSH1 0x40 DUP3 ADD SWAP1 POP SWAP2 SWAP1 POP JUMP JUMPDEST PUSH1 0x0 PUSH2 0x39A5 PUSH1 0x25 DUP4 PUSH2 0x4328 JUMP JUMPDEST SWAP2 POP PUSH2 0x39B0 DUP3 PUSH2 0x4949 JUMP JUMPDEST PUSH1 0x40 DUP3 ADD SWAP1 POP SWAP2 SWAP1 POP JUMP JUMPDEST PUSH1 0x0 PUSH2 0x39C8 PUSH1 0x1C DUP4 PUSH2 0x4328 JUMP JUMPDEST SWAP2 POP PUSH2 0x39D3 DUP3 PUSH2 0x4998 JUMP JUMPDEST PUSH1 0x20 DUP3 ADD SWAP1 POP SWAP2 SWAP1 POP JUMP JUMPDEST PUSH1 0x0 PUSH2 0x39EB PUSH1 0x24 DUP4 PUSH2 0x4328 JUMP JUMPDEST SWAP2 POP PUSH2 0x39F6 DUP3 PUSH2 0x49C1 JUMP JUMPDEST PUSH1 0x40 DUP3 ADD SWAP1 POP SWAP2 SWAP1 POP JUMP JUMPDEST PUSH1 0x0 PUSH2 0x3A0E PUSH1 0x25 DUP4 PUSH2 0x4328 JUMP JUMPDEST SWAP2 POP PUSH2 0x3A19 DUP3 PUSH2 0x4A10 JUMP JUMPDEST PUSH1 0x40 DUP3 ADD SWAP1 POP SWAP2 SWAP1 POP JUMP JUMPDEST PUSH1 0x0 PUSH2 0x3A31 PUSH1 0x19 DUP4 PUSH2 0x4328 JUMP JUMPDEST SWAP2 POP PUSH2 0x3A3C DUP3 PUSH2 0x4A5F JUMP JUMPDEST PUSH1 0x20 DUP3 ADD SWAP1 POP SWAP2 SWAP1 POP JUMP JUMPDEST PUSH1 0x0 PUSH2 0x3A54 PUSH1 0x20 DUP4 PUSH2 0x4328 JUMP JUMPDEST SWAP2 POP PUSH2 0x3A5F DUP3 PUSH2 0x4A88 JUMP JUMPDEST PUSH1 0x20 DUP3 ADD SWAP1 POP SWAP2 SWAP1 POP JUMP JUMPDEST PUSH1 0x0 PUSH2 0x3A77 PUSH1 0x2C DUP4 PUSH2 0x4328 JUMP JUMPDEST SWAP2 POP PUSH2 0x3A82 DUP3 PUSH2 0x4AB1 JUMP JUMPDEST PUSH1 0x40 DUP3 ADD SWAP1 POP SWAP2 SWAP1 POP JUMP JUMPDEST PUSH1 0x0 PUSH2 0x3A9A PUSH1 0x38 DUP4 PUSH2 0x4328 JUMP JUMPDEST SWAP2 POP PUSH2 0x3AA5 DUP3 PUSH2 0x4B00 JUMP JUMPDEST PUSH1 0x40 DUP3 ADD SWAP1 POP SWAP2 SWAP1 POP JUMP JUMPDEST PUSH1 0x0 PUSH2 0x3ABD PUSH1 0x2A DUP4 PUSH2 0x4328 JUMP JUMPDEST SWAP2 POP PUSH2 0x3AC8 DUP3 PUSH2 0x4B4F JUMP JUMPDEST PUSH1 0x40 DUP3 ADD SWAP1 POP SWAP2 SWAP1 POP JUMP JUMPDEST PUSH1 0x0 PUSH2 0x3AE0 PUSH1 0x29 DUP4 PUSH2 0x4328 JUMP JUMPDEST SWAP2 POP PUSH2 0x3AEB DUP3 PUSH2 0x4B9E JUMP JUMPDEST PUSH1 0x40 DUP3 ADD SWAP1 POP SWAP2 SWAP1 POP JUMP JUMPDEST PUSH1 0x0 PUSH2 0x3B03 PUSH1 0x20 DUP4 PUSH2 0x4328 JUMP JUMPDEST SWAP2 POP PUSH2 0x3B0E DUP3 PUSH2 0x4BED JUMP JUMPDEST PUSH1 0x20 DUP3 ADD SWAP1 POP SWAP2 SWAP1 POP JUMP JUMPDEST PUSH1 0x0 PUSH2 0x3B26 PUSH1 0x1E DUP4 PUSH2 0x4328 JUMP JUMPDEST SWAP2 POP PUSH2 0x3B31 DUP3 PUSH2 0x4C16 JUMP JUMPDEST PUSH1 0x20 DUP3 ADD SWAP1 POP SWAP2 SWAP1 POP JUMP JUMPDEST PUSH1 0x0 PUSH2 0x3B49 PUSH1 0x2C DUP4 PUSH2 0x4328 JUMP JUMPDEST SWAP2 POP PUSH2 0x3B54 DUP3 PUSH2 0x4C3F JUMP JUMPDEST PUSH1 0x40 DUP3 ADD SWAP1 POP SWAP2 SWAP1 POP JUMP JUMPDEST PUSH1 0x0 PUSH2 0x3B6C PUSH1 0x20 DUP4 PUSH2 0x4328 JUMP JUMPDEST SWAP2 POP PUSH2 0x3B77 DUP3 PUSH2 0x4C8E JUMP JUMPDEST PUSH1 0x20 DUP3 ADD SWAP1 POP SWAP2 SWAP1 POP JUMP JUMPDEST PUSH1 0x0 PUSH2 0x3B8F PUSH1 0x2D DUP4 PUSH2 0x4328 JUMP JUMPDEST SWAP2 POP PUSH2 0x3B9A DUP3 PUSH2 0x4CB7 JUMP JUMPDEST PUSH1 0x40 DUP3 ADD SWAP1 POP SWAP2 SWAP1 POP JUMP JUMPDEST PUSH1 0x0 PUSH2 0x3BB2 PUSH1 0x12 DUP4 PUSH2 0x4328 JUMP JUMPDEST SWAP2 POP PUSH2 0x3BBD DUP3 PUSH2 0x4D06 JUMP JUMPDEST PUSH1 0x20 DUP3 ADD SWAP1 POP SWAP2 SWAP1 POP JUMP JUMPDEST PUSH1 0x0 PUSH2 0x3BD5 PUSH1 0x2F DUP4 PUSH2 0x4328 JUMP JUMPDEST SWAP2 POP PUSH2 0x3BE0 DUP3 PUSH2 0x4D2F JUMP JUMPDEST PUSH1 0x40 DUP3 ADD SWAP1 POP SWAP2 SWAP1 POP JUMP JUMPDEST PUSH1 0x0 PUSH2 0x3BF8 PUSH1 0x28 DUP4 PUSH2 0x4328 JUMP JUMPDEST SWAP2 POP PUSH2 0x3C03 DUP3 PUSH2 0x4D7E JUMP JUMPDEST PUSH1 0x40 DUP3 ADD SWAP1 POP SWAP2 SWAP1 POP JUMP JUMPDEST PUSH1 0x0 PUSH2 0x3C1B PUSH1 0x21 DUP4 PUSH2 0x4328 JUMP JUMPDEST SWAP2 POP PUSH2 0x3C26 DUP3 PUSH2 0x4DCD JUMP JUMPDEST PUSH1 0x40 DUP3 ADD SWAP1 POP SWAP2 SWAP1 POP JUMP JUMPDEST PUSH1 0x0 PUSH2 0x3C3E PUSH1 0x21 DUP4 PUSH2 0x4328 JUMP JUMPDEST SWAP2 POP PUSH2 0x3C49 DUP3 PUSH2 0x4E1C JUMP JUMPDEST PUSH1 0x40 DUP3 ADD SWAP1 POP SWAP2 SWAP1 POP JUMP JUMPDEST PUSH1 0x0 PUSH2 0x3C61 PUSH1 0x31 DUP4 PUSH2 0x4328 JUMP JUMPDEST SWAP2 POP PUSH2 0x3C6C DUP3 PUSH2 0x4E6B JUMP JUMPDEST PUSH1 0x40 DUP3 ADD SWAP1 POP SWAP2 SWAP1 POP JUMP JUMPDEST PUSH1 0x0 PUSH2 0x3C84 PUSH1 0x2C DUP4 PUSH2 0x4328 JUMP JUMPDEST SWAP2 POP PUSH2 0x3C8F DUP3 PUSH2 0x4EBA JUMP JUMPDEST PUSH1 0x40 DUP3 ADD SWAP1 POP SWAP2 SWAP1 POP JUMP JUMPDEST PUSH1 0x0 PUSH2 0x3CA7 PUSH1 0x1C DUP4 PUSH2 0x4328 JUMP JUMPDEST SWAP2 POP PUSH2 0x3CB2 DUP3 PUSH2 0x4F09 JUMP JUMPDEST PUSH1 0x20 DUP3 ADD SWAP1 POP SWAP2 SWAP1 POP JUMP JUMPDEST PUSH1 0xC0 DUP3 ADD PUSH1 0x0 DUP3 ADD MLOAD PUSH2 0x3CD3 PUSH1 0x0 DUP6 ADD DUP3 PUSH2 0x3D38 JUMP JUMPDEST POP PUSH1 0x20 DUP3 ADD MLOAD PUSH2 0x3CE6 PUSH1 0x20 DUP6 ADD DUP3 PUSH2 0x3D38 JUMP JUMPDEST POP PUSH1 0x40 DUP3 ADD MLOAD PUSH2 0x3CF9 PUSH1 0x40 DUP6 ADD DUP3 PUSH2 0x3D38 JUMP JUMPDEST POP PUSH1 0x60 DUP3 ADD MLOAD PUSH2 0x3D0C PUSH1 0x60 DUP6 ADD DUP3 PUSH2 0x3D56 JUMP JUMPDEST POP PUSH1 0x80 DUP3 ADD MLOAD PUSH2 0x3D1F PUSH1 0x80 DUP6 ADD DUP3 PUSH2 0x3D38 JUMP JUMPDEST POP PUSH1 0xA0 DUP3 ADD MLOAD PUSH2 0x3D32 PUSH1 0xA0 DUP6 ADD DUP3 PUSH2 0x3D38 JUMP JUMPDEST POP POP POP POP JUMP JUMPDEST PUSH2 0x3D41 DUP2 PUSH2 0x4565 JUMP JUMPDEST DUP3 MSTORE POP POP JUMP JUMPDEST PUSH2 0x3D50 DUP2 PUSH2 0x4565 JUMP JUMPDEST DUP3 MSTORE POP POP JUMP JUMPDEST PUSH2 0x3D5F DUP2 PUSH2 0x4583 JUMP JUMPDEST DUP3 MSTORE POP POP JUMP JUMPDEST PUSH2 0x3D6E DUP2 PUSH2 0x4583 JUMP JUMPDEST DUP3 MSTORE POP POP JUMP JUMPDEST PUSH1 0x0 PUSH1 0x20 DUP3 ADD SWAP1 POP PUSH2 0x3D89 PUSH1 0x0 DUP4 ADD DUP5 PUSH2 0x37DD JUMP JUMPDEST SWAP3 SWAP2 POP POP JUMP JUMPDEST PUSH1 0x0 PUSH1 0x80 DUP3 ADD SWAP1 POP PUSH2 0x3DA4 PUSH1 0x0 DUP4 ADD DUP8 PUSH2 0x37DD JUMP JUMPDEST PUSH2 0x3DB1 PUSH1 0x20 DUP4 ADD DUP7 PUSH2 0x37DD JUMP JUMPDEST PUSH2 0x3DBE PUSH1 0x40 DUP4 ADD DUP6 PUSH2 0x3D47 JUMP JUMPDEST DUP2 DUP2 SUB PUSH1 0x60 DUP4 ADD MSTORE PUSH2 0x3DD0 DUP2 DUP5 PUSH2 0x3859 JUMP JUMPDEST SWAP1 POP SWAP6 SWAP5 POP POP POP POP POP JUMP JUMPDEST PUSH1 0x0 PUSH1 0x20 DUP3 ADD SWAP1 POP DUP2 DUP2 SUB PUSH1 0x0 DUP4 ADD MSTORE PUSH2 0x3DF5 DUP2 DUP5 PUSH2 0x37EC JUMP JUMPDEST SWAP1 POP SWAP3 SWAP2 POP POP JUMP JUMPDEST PUSH1 0x0 PUSH1 0x20 DUP3 ADD SWAP1 POP PUSH2 0x3E12 PUSH1 0x0 DUP4 ADD DUP5 PUSH2 0x384A JUMP JUMPDEST SWAP3 SWAP2 POP POP JUMP JUMPDEST PUSH1 0x0 PUSH1 0x20 DUP3 ADD SWAP1 POP PUSH2 0x3E2D PUSH1 0x0 DUP4 ADD DUP5 PUSH2 0x3892 JUMP JUMPDEST SWAP3 SWAP2 POP POP JUMP JUMPDEST PUSH1 0x0 PUSH1 0x20 DUP3 ADD SWAP1 POP PUSH2 0x3E48 PUSH1 0x0 DUP4 ADD DUP5 PUSH2 0x38A1 JUMP JUMPDEST SWAP3 SWAP2 POP POP JUMP JUMPDEST PUSH1 0x0 PUSH1 0x20 DUP3 ADD SWAP1 POP DUP2 DUP2 SUB PUSH1 0x0 DUP4 ADD MSTORE PUSH2 0x3E68 DUP2 DUP5 PUSH2 0x38B0 JUMP JUMPDEST SWAP1 POP SWAP3 SWAP2 POP POP JUMP JUMPDEST PUSH1 0x0 PUSH1 0x20 DUP3 ADD SWAP1 POP DUP2 DUP2 SUB PUSH1 0x0 DUP4 ADD MSTORE PUSH2 0x3E89 DUP2 PUSH2 0x38E9 JUMP JUMPDEST SWAP1 POP SWAP2 SWAP1 POP JUMP JUMPDEST PUSH1 0x0 PUSH1 0x20 DUP3 ADD SWAP1 POP DUP2 DUP2 SUB PUSH1 0x0 DUP4 ADD MSTORE PUSH2 0x3EA9 DUP2 PUSH2 0x390C JUMP JUMPDEST SWAP1 POP SWAP2 SWAP1 POP JUMP JUMPDEST PUSH1 0x0 PUSH1 0x20 DUP3 ADD SWAP1 POP DUP2 DUP2 SUB PUSH1 0x0 DUP4 ADD MSTORE PUSH2 0x3EC9 DUP2 PUSH2 0x392F JUMP JUMPDEST SWAP1 POP SWAP2 SWAP1 POP JUMP JUMPDEST PUSH1 0x0 PUSH1 0x20 DUP3 ADD SWAP1 POP DUP2 DUP2 SUB PUSH1 0x0 DUP4 ADD MSTORE PUSH2 0x3EE9 DUP2 PUSH2 0x3952 JUMP JUMPDEST SWAP1 POP SWAP2 SWAP1 POP JUMP JUMPDEST PUSH1 0x0 PUSH1 0x20 DUP3 ADD SWAP1 POP DUP2 DUP2 SUB PUSH1 0x0 DUP4 ADD MSTORE PUSH2 0x3F09 DUP2 PUSH2 0x3975 JUMP JUMPDEST SWAP1 POP SWAP2 SWAP1 POP JUMP JUMPDEST PUSH1 0x0 PUSH1 0x20 DUP3 ADD SWAP1 POP DUP2 DUP2 SUB PUSH1 0x0 DUP4 ADD MSTORE PUSH2 0x3F29 DUP2 PUSH2 0x3998 JUMP JUMPDEST SWAP1 POP SWAP2 SWAP1 POP JUMP JUMPDEST PUSH1 0x0 PUSH1 0x20 DUP3 ADD SWAP1 POP DUP2 DUP2 SUB PUSH1 0x0 DUP4 ADD MSTORE PUSH2 0x3F49 DUP2 PUSH2 0x39BB JUMP JUMPDEST SWAP1 POP SWAP2 SWAP1 POP JUMP JUMPDEST PUSH1 0x0 PUSH1 0x20 DUP3 ADD SWAP1 POP DUP2 DUP2 SUB PUSH1 0x0 DUP4 ADD MSTORE PUSH2 0x3F69 DUP2 PUSH2 0x39DE JUMP JUMPDEST SWAP1 POP SWAP2 SWAP1 POP JUMP JUMPDEST PUSH1 0x0 PUSH1 0x20 DUP3 ADD SWAP1 POP DUP2 DUP2 SUB PUSH1 0x0 DUP4 ADD MSTORE PUSH2 0x3F89 DUP2 PUSH2 0x3A01 JUMP JUMPDEST SWAP1 POP SWAP2 SWAP1 POP JUMP JUMPDEST PUSH1 0x0 PUSH1 0x20 DUP3 ADD SWAP1 POP DUP2 DUP2 SUB PUSH1 0x0 DUP4 ADD MSTORE PUSH2 0x3FA9 DUP2 PUSH2 0x3A24 JUMP JUMPDEST SWAP1 POP SWAP2 SWAP1 POP JUMP JUMPDEST PUSH1 0x0 PUSH1 0x20 DUP3 ADD SWAP1 POP DUP2 DUP2 SUB PUSH1 0x0 DUP4 ADD MSTORE PUSH2 0x3FC9 DUP2 PUSH2 0x3A47 JUMP JUMPDEST SWAP1 POP SWAP2 SWAP1 POP JUMP JUMPDEST PUSH1 0x0 PUSH1 0x20 DUP3 ADD SWAP1 POP DUP2 DUP2 SUB PUSH1 0x0 DUP4 ADD MSTORE PUSH2 0x3FE9 DUP2 PUSH2 0x3A6A JUMP JUMPDEST SWAP1 POP SWAP2 SWAP1 POP JUMP JUMPDEST PUSH1 0x0 PUSH1 0x20 DUP3 ADD SWAP1 POP DUP2 DUP2 SUB PUSH1 0x0 DUP4 ADD MSTORE PUSH2 0x4009 DUP2 PUSH2 0x3A8D JUMP JUMPDEST SWAP1 POP SWAP2 SWAP1 POP JUMP JUMPDEST PUSH1 0x0 PUSH1 0x20 DUP3 ADD SWAP1 POP DUP2 DUP2 SUB PUSH1 0x0 DUP4 ADD MSTORE PUSH2 0x4029 DUP2 PUSH2 0x3AB0 JUMP JUMPDEST SWAP1 POP SWAP2 SWAP1 POP JUMP JUMPDEST PUSH1 0x0 PUSH1 0x20 DUP3 ADD SWAP1 POP DUP2 DUP2 SUB PUSH1 0x0 DUP4 ADD MSTORE PUSH2 0x4049 DUP2 PUSH2 0x3AD3 JUMP JUMPDEST SWAP1 POP SWAP2 SWAP1 POP JUMP JUMPDEST PUSH1 0x0 PUSH1 0x20 DUP3 ADD SWAP1 POP DUP2 DUP2 SUB PUSH1 0x0 DUP4 ADD MSTORE PUSH2 0x4069 DUP2 PUSH2 0x3AF6 JUMP JUMPDEST SWAP1 POP SWAP2 SWAP1 POP JUMP JUMPDEST PUSH1 0x0 PUSH1 0x20 DUP3 ADD SWAP1 POP DUP2 DUP2 SUB PUSH1 0x0 DUP4 ADD MSTORE PUSH2 0x4089 DUP2 PUSH2 0x3B19 JUMP JUMPDEST SWAP1 POP SWAP2 SWAP1 POP JUMP JUMPDEST PUSH1 0x0 PUSH1 0x20 DUP3 ADD SWAP1 POP DUP2 DUP2 SUB PUSH1 0x0 DUP4 ADD MSTORE PUSH2 0x40A9 DUP2 PUSH2 0x3B3C JUMP JUMPDEST SWAP1 POP SWAP2 SWAP1 POP JUMP JUMPDEST PUSH1 0x0 PUSH1 0x20 DUP3 ADD SWAP1 POP DUP2 DUP2 SUB PUSH1 0x0 DUP4 ADD MSTORE PUSH2 0x40C9 DUP2 PUSH2 0x3B5F JUMP JUMPDEST SWAP1 POP SWAP2 SWAP1 POP JUMP JUMPDEST PUSH1 0x0 PUSH1 0x20 DUP3 ADD SWAP1 POP DUP2 DUP2 SUB PUSH1 0x0 DUP4 ADD MSTORE PUSH2 0x40E9 DUP2 PUSH2 0x3B82 JUMP JUMPDEST SWAP1 POP SWAP2 SWAP1 POP JUMP JUMPDEST PUSH1 0x0 PUSH1 0x20 DUP3 ADD SWAP1 POP DUP2 DUP2 SUB PUSH1 0x0 DUP4 ADD MSTORE PUSH2 0x4109 DUP2 PUSH2 0x3BA5 JUMP JUMPDEST SWAP1 POP SWAP2 SWAP1 POP JUMP JUMPDEST PUSH1 0x0 PUSH1 0x20 DUP3 ADD SWAP1 POP DUP2 DUP2 SUB PUSH1 0x0 DUP4 ADD MSTORE PUSH2 0x4129 DUP2 PUSH2 0x3BC8 JUMP JUMPDEST SWAP1 POP SWAP2 SWAP1 POP JUMP JUMPDEST PUSH1 0x0 PUSH1 0x20 DUP3 ADD SWAP1 POP DUP2 DUP2 SUB PUSH1 0x0 DUP4 ADD MSTORE PUSH2 0x4149 DUP2 PUSH2 0x3BEB JUMP JUMPDEST SWAP1 POP SWAP2 SWAP1 POP JUMP JUMPDEST PUSH1 0x0 PUSH1 0x20 DUP3 ADD SWAP1 POP DUP2 DUP2 SUB PUSH1 0x0 DUP4 ADD MSTORE PUSH2 0x4169 DUP2 PUSH2 0x3C0E JUMP JUMPDEST SWAP1 POP SWAP2 SWAP1 POP JUMP JUMPDEST PUSH1 0x0 PUSH1 0x20 DUP3 ADD SWAP1 POP DUP2 DUP2 SUB PUSH1 0x0 DUP4 ADD MSTORE PUSH2 0x4189 DUP2 PUSH2 0x3C31 JUMP JUMPDEST SWAP1 POP SWAP2 SWAP1 POP JUMP JUMPDEST PUSH1 0x0 PUSH1 0x20 DUP3 ADD SWAP1 POP DUP2 DUP2 SUB PUSH1 0x0 DUP4 ADD MSTORE PUSH2 0x41A9 DUP2 PUSH2 0x3C54 JUMP JUMPDEST SWAP1 POP SWAP2 SWAP1 POP JUMP JUMPDEST PUSH1 0x0 PUSH1 0x20 DUP3 ADD SWAP1 POP DUP2 DUP2 SUB PUSH1 0x0 DUP4 ADD MSTORE PUSH2 0x41C9 DUP2 PUSH2 0x3C77 JUMP JUMPDEST SWAP1 POP SWAP2 SWAP1 POP JUMP JUMPDEST PUSH1 0x0 PUSH1 0x20 DUP3 ADD SWAP1 POP DUP2 DUP2 SUB PUSH1 0x0 DUP4 ADD MSTORE PUSH2 0x41E9 DUP2 PUSH2 0x3C9A JUMP JUMPDEST SWAP1 POP SWAP2 SWAP1 POP JUMP JUMPDEST PUSH1 0x0 PUSH1 0xC0 DUP3 ADD SWAP1 POP PUSH2 0x4205 PUSH1 0x0 DUP4 ADD DUP5 PUSH2 0x3CBD JUMP JUMPDEST SWAP3 SWAP2 POP POP JUMP JUMPDEST PUSH1 0x0 PUSH1 0x20 DUP3 ADD SWAP1 POP PUSH2 0x4220 PUSH1 0x0 DUP4 ADD DUP5 PUSH2 0x3D47 JUMP JUMPDEST SWAP3 SWAP2 POP POP JUMP JUMPDEST PUSH1 0x0 PUSH1 0x20 DUP3 ADD SWAP1 POP PUSH2 0x423B PUSH1 0x0 DUP4 ADD DUP5 PUSH2 0x3D65 JUMP JUMPDEST SWAP3 SWAP2 POP POP JUMP JUMPDEST PUSH1 0x0 PUSH2 0x424B PUSH2 0x425C JUMP JUMPDEST SWAP1 POP PUSH2 0x4257 DUP3 DUP3 PUSH2 0x464C JUMP JUMPDEST SWAP2 SWAP1 POP JUMP JUMPDEST PUSH1 0x0 PUSH1 0x40 MLOAD SWAP1 POP SWAP1 JUMP JUMPDEST PUSH1 0x0 PUSH8 0xFFFFFFFFFFFFFFFF DUP3 GT ISZERO PUSH2 0x4281 JUMPI PUSH2 0x4280 PUSH2 0x47B1 JUMP JUMPDEST JUMPDEST PUSH2 0x428A DUP3 PUSH2 0x47F9 JUMP JUMPDEST SWAP1 POP PUSH1 0x20 DUP2 ADD SWAP1 POP SWAP2 SWAP1 POP JUMP JUMPDEST PUSH1 0x0 PUSH8 0xFFFFFFFFFFFFFFFF DUP3 GT ISZERO PUSH2 0x42B2 JUMPI PUSH2 0x42B1 PUSH2 0x47B1 JUMP JUMPDEST JUMPDEST PUSH2 0x42BB DUP3 PUSH2 0x47F9 JUMP JUMPDEST SWAP1 POP PUSH1 0x20 DUP2 ADD SWAP1 POP SWAP2 SWAP1 POP JUMP JUMPDEST PUSH1 0x0 DUP2 SWAP1 POP PUSH1 0x20 DUP3 ADD SWAP1 POP SWAP2 SWAP1 POP JUMP JUMPDEST PUSH1 0x0 DUP2 MLOAD SWAP1 POP SWAP2 SWAP1 POP JUMP JUMPDEST PUSH1 0x0 DUP2 MLOAD SWAP1 POP SWAP2 SWAP1 POP JUMP JUMPDEST PUSH1 0x0 DUP2 MLOAD SWAP1 POP SWAP2 SWAP1 POP JUMP JUMPDEST PUSH1 0x0 PUSH1 0x20 DUP3 ADD SWAP1 POP SWAP2 SWAP1 POP JUMP JUMPDEST PUSH1 0x0 DUP3 DUP3 MSTORE PUSH1 0x20 DUP3 ADD SWAP1 POP SWAP3 SWAP2 POP POP JUMP JUMPDEST PUSH1 0x0 DUP3 DUP3 MSTORE PUSH1 0x20 DUP3 ADD SWAP1 POP SWAP3 SWAP2 POP POP JUMP JUMPDEST PUSH1 0x0 DUP3 DUP3 MSTORE PUSH1 0x20 DUP3 ADD SWAP1 POP SWAP3 SWAP2 POP POP JUMP JUMPDEST PUSH1 0x0 PUSH2 0x4344 DUP3 PUSH2 0x4565 JUMP JUMPDEST SWAP2 POP PUSH2 0x434F DUP4 PUSH2 0x4565 JUMP JUMPDEST SWAP3 POP DUP3 PUSH32 0xFFFFFFFFFFFFFFFFFFFFFFFFFFFFFFFFFFFFFFFFFFFFFFFFFFFFFFFFFFFFFFFF SUB DUP3 GT ISZERO PUSH2 0x4384 JUMPI PUSH2 0x4383 PUSH2 0x46C6 JUMP JUMPDEST JUMPDEST DUP3 DUP3 ADD SWAP1 POP SWAP3 SWAP2 POP POP JUMP JUMPDEST PUSH1 0x0 PUSH2 0x439A DUP3 PUSH2 0x4538 JUMP JUMPDEST SWAP2 POP PUSH2 0x43A5 DUP4 PUSH2 0x4538 JUMP JUMPDEST SWAP3 POP DUP3 PUSH16 0x7FFFFFFFFFFFFFFFFFFFFFFFFFFFFFFF DIV DUP3 GT PUSH1 0x0 DUP5 SGT PUSH1 0x0 DUP5 SGT AND AND ISZERO PUSH2 0x43D4 JUMPI PUSH2 0x43D3 PUSH2 0x46C6 JUMP JUMPDEST JUMPDEST DUP2 PUSH32 0xFFFFFFFFFFFFFFFFFFFFFFFFFFFFFFFF80000000000000000000000000000000 SDIV DUP4 SLT PUSH1 0x0 DUP5 SLT PUSH1 0x0 DUP5 SGT AND AND ISZERO PUSH2 0x4411 JUMPI PUSH2 0x4410 PUSH2 0x46C6 JUMP JUMPDEST JUMPDEST DUP3 PUSH32 0xFFFFFFFFFFFFFFFFFFFFFFFFFFFFFFFF80000000000000000000000000000000 SDIV DUP3 SLT PUSH1 0x0 DUP5 SGT PUSH1 0x0 DUP5 SLT AND AND ISZERO PUSH2 0x444E JUMPI PUSH2 0x444D PUSH2 0x46C6 JUMP JUMPDEST JUMPDEST DUP3 PUSH16 0x7FFFFFFFFFFFFFFFFFFFFFFFFFFFFFFF SDIV DUP3 SLT PUSH1 0x0 DUP5 SLT PUSH1 0x0 DUP5 SLT AND AND ISZERO PUSH2 0x447B JUMPI PUSH2 0x447A PUSH2 0x46C6 JUMP JUMPDEST JUMPDEST DUP3 DUP3 MUL SWAP1 POP SWAP3 SWAP2 POP POP JUMP JUMPDEST PUSH1 0x0 PUSH2 0x4491 DUP3 PUSH2 0x4565 JUMP JUMPDEST SWAP2 POP PUSH2 0x449C DUP4 PUSH2 0x4565 JUMP JUMPDEST SWAP3 POP DUP3 DUP3 LT ISZERO PUSH2 0x44AF JUMPI PUSH2 0x44AE PUSH2 0x46C6 JUMP JUMPDEST JUMPDEST DUP3 DUP3 SUB SWAP1 POP SWAP3 SWAP2 POP POP JUMP JUMPDEST PUSH1 0x0 PUSH2 0x44C5 DUP3 PUSH2 0x456F JUMP JUMPDEST SWAP2 POP PUSH2 0x44D0 DUP4 PUSH2 0x456F JUMP JUMPDEST SWAP3 POP DUP3 DUP3 LT ISZERO PUSH2 0x44E3 JUMPI PUSH2 0x44E2 PUSH2 0x46C6 JUMP JUMPDEST JUMPDEST DUP3 DUP3 SUB SWAP1 POP SWAP3 SWAP2 POP POP JUMP JUMPDEST PUSH1 0x0 PUSH2 0x44F9 DUP3 PUSH2 0x4545 JUMP JUMPDEST SWAP1 POP SWAP2 SWAP1 POP JUMP JUMPDEST PUSH1 0x0 DUP2 ISZERO ISZERO SWAP1 POP SWAP2 SWAP1 POP JUMP JUMPDEST PUSH1 0x0 PUSH32 0xFFFFFFFF00000000000000000000000000000000000000000000000000000000 DUP3 AND SWAP1 POP SWAP2 SWAP1 POP JUMP JUMPDEST PUSH1 0x0 DUP2 PUSH1 0xF SIGNEXTEND SWAP1 POP SWAP2 SWAP1 POP JUMP JUMPDEST PUSH1 0x0 PUSH20 0xFFFFFFFFFFFFFFFFFFFFFFFFFFFFFFFFFFFFFFFF DUP3 AND SWAP1 POP SWAP2 SWAP1 POP JUMP JUMPDEST PUSH1 0x0 DUP2 SWAP1 POP SWAP2 SWAP1 POP JUMP JUMPDEST PUSH1 0x0 PUSH8 0xFFFFFFFFFFFFFFFF DUP3 AND SWAP1 POP SWAP2 SWAP1 POP JUMP JUMPDEST PUSH1 0x0 PUSH1 0xFF DUP3 AND SWAP1 POP SWAP2 SWAP1 POP JUMP JUMPDEST PUSH1 0x0 PUSH2 0x459B DUP3 PUSH2 0x45B4 JUMP JUMPDEST SWAP1 POP SWAP2 SWAP1 POP JUMP JUMPDEST PUSH1 0x0 PUSH2 0x45AD DUP3 PUSH2 0x45B4 JUMP JUMPDEST SWAP1 POP SWAP2 SWAP1 POP JUMP JUMPDEST PUSH1 0x0 PUSH2 0x45BF DUP3 PUSH2 0x45C6 JUMP JUMPDEST SWAP1 POP SWAP2 SWAP1 POP JUMP JUMPDEST PUSH1 0x0 PUSH2 0x45D1 DUP3 PUSH2 0x4545 JUMP JUMPDEST SWAP1 POP SWAP2 SWAP1 POP JUMP JUMPDEST DUP3 DUP2 DUP4 CALLDATACOPY PUSH1 0x0 DUP4 DUP4 ADD MSTORE POP POP POP JUMP JUMPDEST PUSH1 0x0 JUMPDEST DUP4 DUP2 LT ISZERO PUSH2 0x4605 JUMPI DUP1 DUP3 ADD MLOAD DUP2 DUP5 ADD MSTORE PUSH1 0x20 DUP2 ADD SWAP1 POP PUSH2 0x45EA JUMP JUMPDEST DUP4 DUP2 GT ISZERO PUSH2 0x4614 JUMPI PUSH1 0x0 DUP5 DUP5 ADD MSTORE JUMPDEST POP POP POP POP JUMP JUMPDEST PUSH1 0x0 PUSH1 0x2 DUP3 DIV SWAP1 POP PUSH1 0x1 DUP3 AND DUP1 PUSH2 0x4632 JUMPI PUSH1 0x7F DUP3 AND SWAP2 POP JUMPDEST PUSH1 0x20 DUP3 LT DUP2 EQ ISZERO PUSH2 0x4646 JUMPI PUSH2 0x4645 PUSH2 0x4724 JUMP JUMPDEST JUMPDEST POP SWAP2 SWAP1 POP JUMP JUMPDEST PUSH2 0x4655 DUP3 PUSH2 0x47F9 JUMP JUMPDEST DUP2 ADD DUP2 DUP2 LT PUSH8 0xFFFFFFFFFFFFFFFF DUP3 GT OR ISZERO PUSH2 0x4674 JUMPI PUSH2 0x4673 PUSH2 0x47B1 JUMP JUMPDEST JUMPDEST DUP1 PUSH1 0x40 MSTORE POP POP POP JUMP JUMPDEST PUSH1 0x0 PUSH2 0x4688 DUP3 PUSH2 0x4565 JUMP JUMPDEST SWAP2 POP PUSH32 0xFFFFFFFFFFFFFFFFFFFFFFFFFFFFFFFFFFFFFFFFFFFFFFFFFFFFFFFFFFFFFFFF DUP3 EQ ISZERO PUSH2 0x46BB JUMPI PUSH2 0x46BA PUSH2 0x46C6 JUMP JUMPDEST JUMPDEST PUSH1 0x1 DUP3 ADD SWAP1 POP SWAP2 SWAP1 POP JUMP JUMPDEST PUSH32 0x4E487B7100000000000000000000000000000000000000000000000000000000 PUSH1 0x0 MSTORE PUSH1 0x11 PUSH1 0x4 MSTORE PUSH1 0x24 PUSH1 0x0 REVERT JUMPDEST PUSH32 0x4E487B7100000000000000000000000000000000000000000000000000000000 PUSH1 0x0 MSTORE PUSH1 0x21 PUSH1 0x4 MSTORE PUSH1 0x24 PUSH1 0x0 REVERT JUMPDEST PUSH32 0x4E487B7100000000000000000000000000000000000000000000000000000000 PUSH1 0x0 MSTORE PUSH1 0x22 PUSH1 0x4 MSTORE PUSH1 0x24 PUSH1 0x0 REVERT JUMPDEST PUSH32 0x4E487B7100000000000000000000000000000000000000000000000000000000 PUSH1 0x0 MSTORE PUSH1 0x31 PUSH1 0x4 MSTORE PUSH1 0x24 PUSH1 0x0 REVERT JUMPDEST PUSH32 0x4E487B7100000000000000000000000000000000000000000000000000000000 PUSH1 0x0 MSTORE PUSH1 0x32 PUSH1 0x4 MSTORE PUSH1 0x24 PUSH1 0x0 REVERT JUMPDEST PUSH32 0x4E487B7100000000000000000000000000000000000000000000000000000000 PUSH1 0x0 MSTORE PUSH1 0x41 PUSH1 0x4 MSTORE PUSH1 0x24 PUSH1 0x0 REVERT JUMPDEST PUSH1 0x0 DUP1 REVERT JUMPDEST PUSH1 0x0 DUP1 REVERT JUMPDEST PUSH1 0x0 DUP1 REVERT JUMPDEST PUSH1 0x0 DUP1 REVERT JUMPDEST PUSH1 0x0 DUP1 REVERT JUMPDEST PUSH1 0x0 PUSH1 0x1F NOT PUSH1 0x1F DUP4 ADD AND SWAP1 POP SWAP2 SWAP1 POP JUMP JUMPDEST PUSH32 0x4F48576561706F6E3A2042616C616E6365206E6F7420656E6F75676800000000 PUSH1 0x0 DUP3 ADD MSTORE POP JUMP JUMPDEST PUSH32 0x455243373231456E756D657261626C653A206F776E657220696E646578206F75 PUSH1 0x0 DUP3 ADD MSTORE PUSH32 0x74206F6620626F756E6473000000000000000000000000000000000000000000 PUSH1 0x20 DUP3 ADD MSTORE POP JUMP JUMPDEST PUSH32 0x4552433732313A207472616E7366657220746F206E6F6E204552433732315265 PUSH1 0x0 DUP3 ADD MSTORE PUSH32 0x63656976657220696D706C656D656E7465720000000000000000000000000000 PUSH1 0x20 DUP3 ADD MSTORE POP JUMP JUMPDEST PUSH32 0x4D65746144617461204164647265737320497320300000000000000000000000 PUSH1 0x0 DUP3 ADD MSTORE POP JUMP JUMPDEST PUSH32 0x4F776E61626C653A206E6577206F776E657220697320746865207A65726F2061 PUSH1 0x0 DUP3 ADD MSTORE PUSH32 0x6464726573730000000000000000000000000000000000000000000000000000 PUSH1 0x20 DUP3 ADD MSTORE POP JUMP JUMPDEST PUSH32 0x4552433732313A207472616E736665722066726F6D20696E636F727265637420 PUSH1 0x0 DUP3 ADD MSTORE PUSH32 0x6F776E6572000000000000000000000000000000000000000000000000000000 PUSH1 0x20 DUP3 ADD MSTORE POP JUMP JUMPDEST PUSH32 0x4552433732313A20746F6B656E20616C7265616479206D696E74656400000000 PUSH1 0x0 DUP3 ADD MSTORE POP JUMP JUMPDEST PUSH32 0x4552433732313A207472616E7366657220746F20746865207A65726F20616464 PUSH1 0x0 DUP3 ADD MSTORE PUSH32 0x7265737300000000000000000000000000000000000000000000000000000000 PUSH1 0x20 DUP3 ADD MSTORE POP JUMP JUMPDEST PUSH32 0x4F48576561706F6E3A20536F7272792C2049742773204E6F7420596F75722057 PUSH1 0x0 DUP3 ADD MSTORE PUSH32 0x6561706F6E000000000000000000000000000000000000000000000000000000 PUSH1 0x20 DUP3 ADD MSTORE POP JUMP JUMPDEST PUSH32 0x4552433732313A20617070726F766520746F2063616C6C657200000000000000 PUSH1 0x0 DUP3 ADD MSTORE POP JUMP JUMPDEST PUSH32 0x4F48576561706F6E3A20576561706F6E204D65746144617461204572726F7221 PUSH1 0x0 DUP3 ADD MSTORE POP JUMP JUMPDEST PUSH32 0x4552433732313A206F70657261746F7220717565727920666F72206E6F6E6578 PUSH1 0x0 DUP3 ADD MSTORE PUSH32 0x697374656E7420746F6B656E0000000000000000000000000000000000000000 PUSH1 0x20 DUP3 ADD MSTORE POP JUMP JUMPDEST PUSH32 0x4552433732313A20617070726F76652063616C6C6572206973206E6F74206F77 PUSH1 0x0 DUP3 ADD MSTORE PUSH32 0x6E6572206E6F7220617070726F76656420666F7220616C6C0000000000000000 PUSH1 0x20 DUP3 ADD MSTORE POP JUMP JUMPDEST PUSH32 0x4552433732313A2062616C616E636520717565727920666F7220746865207A65 PUSH1 0x0 DUP3 ADD MSTORE PUSH32 0x726F206164647265737300000000000000000000000000000000000000000000 PUSH1 0x20 DUP3 ADD MSTORE POP JUMP JUMPDEST PUSH32 0x4552433732313A206F776E657220717565727920666F72206E6F6E6578697374 PUSH1 0x0 DUP3 ADD MSTORE PUSH32 0x656E7420746F6B656E0000000000000000000000000000000000000000000000 PUSH1 0x20 DUP3 ADD MSTORE POP JUMP JUMPDEST PUSH32 0x4552433732313A206D696E7420746F20746865207A65726F2061646472657373 PUSH1 0x0 DUP3 ADD MSTORE POP JUMP JUMPDEST PUSH32 0x4F4853776F72643A2053776F7264204D65746144617461204572726F72210000 PUSH1 0x0 DUP3 ADD MSTORE POP JUMP JUMPDEST PUSH32 0x4552433732313A20617070726F76656420717565727920666F72206E6F6E6578 PUSH1 0x0 DUP3 ADD MSTORE PUSH32 0x697374656E7420746F6B656E0000000000000000000000000000000000000000 PUSH1 0x20 DUP3 ADD MSTORE POP JUMP JUMPDEST PUSH32 0x4F776E61626C653A2063616C6C6572206973206E6F7420746865206F776E6572 PUSH1 0x0 DUP3 ADD MSTORE POP JUMP JUMPDEST PUSH32 0x4F48576561706F6E3A20436F6E7472616374204572726F722C20506C61796572 PUSH1 0x0 DUP3 ADD MSTORE PUSH32 0x2041646472657373204973203000000000000000000000000000000000000000 PUSH1 0x20 DUP3 ADD MSTORE POP JUMP JUMPDEST PUSH32 0x47686F7374204164647265737320497320300000000000000000000000000000 PUSH1 0x0 DUP3 ADD MSTORE POP JUMP JUMPDEST PUSH32 0x4552433732314D657461646174613A2055524920717565727920666F72206E6F PUSH1 0x0 DUP3 ADD MSTORE PUSH32 0x6E6578697374656E7420746F6B656E0000000000000000000000000000000000 PUSH1 0x20 DUP3 ADD MSTORE POP JUMP JUMPDEST PUSH32 0x4F48576561706F6E3A20536F7272792C20446F6E277420486176652053756368 PUSH1 0x0 DUP3 ADD MSTORE PUSH32 0x20576561706F6E21000000000000000000000000000000000000000000000000 PUSH1 0x20 DUP3 ADD MSTORE POP JUMP JUMPDEST PUSH32 0x4F48576561706F6E3A204E6F6E6578697374656E7420576561706F6E2050726F PUSH1 0x0 DUP3 ADD MSTORE PUSH32 0x7000000000000000000000000000000000000000000000000000000000000000 PUSH1 0x20 DUP3 ADD MSTORE POP JUMP JUMPDEST PUSH32 0x4552433732313A20617070726F76616C20746F2063757272656E74206F776E65 PUSH1 0x0 DUP3 ADD MSTORE PUSH32 0x7200000000000000000000000000000000000000000000000000000000000000 PUSH1 0x20 DUP3 ADD MSTORE POP JUMP JUMPDEST PUSH32 0x4552433732313A207472616E736665722063616C6C6572206973206E6F74206F PUSH1 0x0 DUP3 ADD MSTORE PUSH32 0x776E6572206E6F7220617070726F766564000000000000000000000000000000 PUSH1 0x20 DUP3 ADD MSTORE POP JUMP JUMPDEST PUSH32 0x455243373231456E756D657261626C653A20676C6F62616C20696E646578206F PUSH1 0x0 DUP3 ADD MSTORE PUSH32 0x7574206F6620626F756E64730000000000000000000000000000000000000000 PUSH1 0x20 DUP3 ADD MSTORE POP JUMP JUMPDEST PUSH32 0x4F48576561706F6E3A204E6F6E6578697374656E7420576561706F6E00000000 PUSH1 0x0 DUP3 ADD MSTORE POP JUMP JUMPDEST PUSH2 0x4F3B DUP2 PUSH2 0x44EE JUMP JUMPDEST DUP2 EQ PUSH2 0x4F46 JUMPI PUSH1 0x0 DUP1 REVERT JUMPDEST POP JUMP JUMPDEST PUSH2 0x4F52 DUP2 PUSH2 0x4500 JUMP JUMPDEST DUP2 EQ PUSH2 0x4F5D JUMPI PUSH1 0x0 DUP1 REVERT JUMPDEST POP JUMP JUMPDEST PUSH2 0x4F69 DUP2 PUSH2 0x450C JUMP JUMPDEST DUP2 EQ PUSH2 0x4F74 JUMPI PUSH1 0x0 DUP1 REVERT JUMPDEST POP JUMP JUMPDEST PUSH2 0x4F80 DUP2 PUSH2 0x4565 JUMP JUMPDEST DUP2 EQ PUSH2 0x4F8B JUMPI PUSH1 0x0 DUP1 REVERT JUMPDEST POP JUMP JUMPDEST PUSH2 0x4F97 DUP2 PUSH2 0x4583 JUMP JUMPDEST DUP2 EQ PUSH2 0x4FA2 JUMPI PUSH1 0x0 DUP1 REVERT JUMPDEST POP JUMP INVALID LOG2 PUSH5 0x6970667358 0x22 SLT KECCAK256 ADDMOD BASEFEE 0x2A DIV 0xE7 SGT BLOCKHASH GAS PUSH12 0x137947E87403DB4327800F8D 0xE3 SWAP5 0x2A LOG2 ADDRESS SELFDESTRUCT DUP2 0x4E CALLDATASIZE PC OR PUSH5 0x736F6C6343 STOP ADDMOD SMOD STOP CALLER PUSH10 0x7066733A2F2F62616679 PUSH3 0x656962 PUSH3 0x667475 PUSH4 0x74356A62 PUSH19 0x73336333676778626C3433687966697675336B PUSH5 0x786C6D6D71 PUSH17 0x7A7634653237646B617662737062792F00 "
		},
		"gasEstimates": {
			"creation": {
				"codeDepositCost": "4088600",
				"executionCost": "infinite",
				"totalCost": "infinite"
			},
			"external": {
				"_aGhost()": "2689",
				"_metaData()": "2668",
				"approve(address,uint256)": "infinite",
				"balanceOf(address)": "2947",
				"decimals()": "2497",
				"getApproved(uint256)": "5251",
				"isApprovedForAll(address,address)": "infinite",
				"levelup(uint256)": "infinite",
				"mint(address,uint8)": "infinite",
				"name()": "infinite",
				"owner()": "2567",
				"ownerOf(uint256)": "3066",
				"price()": "2518",
				"props(uint256)": "infinite",
				"renounceOwnership()": "30464",
				"safeTransferFrom(address,address,uint256)": "infinite",
				"safeTransferFrom(address,address,uint256,bytes)": "infinite",
				"setApprovalForAll(address,bool)": "infinite",
				"setBaseURI(string)": "infinite",
				"setGhost(address)": "27112",
				"setMeta(address)": "27067",
				"ss()": "2515",
				"supportsInterface(bytes4)": "909",
				"symbol()": "infinite",
				"tokenByIndex(uint256)": "infinite",
				"tokenOfOwnerByIndex(address,uint256)": "infinite",
				"tokenOfOwners(address)": "infinite",
				"tokenURI(uint256)": "infinite",
				"totalSupply()": "2535",
				"transferFrom(address,address,uint256)": "infinite",
				"transferOwnership(address)": "30811"
			},
			"internal": {
				"_baseURI()": "infinite",
				"_maxatk(uint256)": "infinite",
				"_minatk(uint256)": "infinite"
			}
		},
		"methodIdentifiers": {
			"_aGhost()": "c5e0cb65",
			"_metaData()": "0ccde8ce",
			"approve(address,uint256)": "095ea7b3",
			"balanceOf(address)": "70a08231",
			"decimals()": "313ce567",
			"getApproved(uint256)": "081812fc",
			"isApprovedForAll(address,address)": "e985e9c5",
			"levelup(uint256)": "6cb80c6f",
			"mint(address,uint8)": "691562a0",
			"name()": "06fdde03",
			"owner()": "8da5cb5b",
			"ownerOf(uint256)": "6352211e",
			"price()": "a035b1fe",
			"props(uint256)": "fda54c16",
			"renounceOwnership()": "715018a6",
			"safeTransferFrom(address,address,uint256)": "42842e0e",
			"safeTransferFrom(address,address,uint256,bytes)": "b88d4fde",
			"setApprovalForAll(address,bool)": "a22cb465",
			"setBaseURI(string)": "55f804b3",
			"setGhost(address)": "72015290",
			"setMeta(address)": "be95592e",
			"ss()": "cd3840a9",
			"supportsInterface(bytes4)": "01ffc9a7",
			"symbol()": "95d89b41",
			"tokenByIndex(uint256)": "4f6ccce7",
			"tokenOfOwnerByIndex(address,uint256)": "2f745c59",
			"tokenOfOwners(address)": "4d75906f",
			"tokenURI(uint256)": "c87b56dd",
			"totalSupply()": "18160ddd",
			"transferFrom(address,address,uint256)": "23b872dd",
			"transferOwnership(address)": "f2fde38b"
		}
	},
	"abi": [
		{
			"inputs": [],
			"stateMutability": "nonpayable",
			"type": "constructor"
		},
		{
			"anonymous": false,
			"inputs": [
				{
					"indexed": true,
					"internalType": "address",
					"name": "owner",
					"type": "address"
				},
				{
					"indexed": true,
					"internalType": "address",
					"name": "approved",
					"type": "address"
				},
				{
					"indexed": true,
					"internalType": "uint256",
					"name": "tokenId",
					"type": "uint256"
				}
			],
			"name": "Approval",
			"type": "event"
		},
		{
			"anonymous": false,
			"inputs": [
				{
					"indexed": true,
					"internalType": "address",
					"name": "owner",
					"type": "address"
				},
				{
					"indexed": true,
					"internalType": "address",
					"name": "operator",
					"type": "address"
				},
				{
					"indexed": false,
					"internalType": "bool",
					"name": "approved",
					"type": "bool"
				}
			],
			"name": "ApprovalForAll",
			"type": "event"
		},
		{
			"anonymous": false,
			"inputs": [
				{
					"indexed": true,
					"internalType": "address",
					"name": "owner",
					"type": "address"
				},
				{
					"indexed": true,
					"internalType": "uint256",
					"name": "tokenid",
					"type": "uint256"
				}
			],
			"name": "MintEvent",
			"type": "event"
		},
		{
			"anonymous": false,
			"inputs": [
				{
					"indexed": true,
					"internalType": "address",
					"name": "previousOwner",
					"type": "address"
				},
				{
					"indexed": true,
					"internalType": "address",
					"name": "newOwner",
					"type": "address"
				}
			],
			"name": "OwnershipTransferred",
			"type": "event"
		},
		{
			"anonymous": false,
			"inputs": [
				{
					"indexed": true,
					"internalType": "address",
					"name": "from",
					"type": "address"
				},
				{
					"indexed": true,
					"internalType": "address",
					"name": "to",
					"type": "address"
				},
				{
					"indexed": true,
					"internalType": "uint256",
					"name": "tokenId",
					"type": "uint256"
				}
			],
			"name": "Transfer",
			"type": "event"
		},
		{
			"anonymous": false,
			"inputs": [
				{
					"indexed": true,
					"internalType": "address",
					"name": "owner",
					"type": "address"
				},
				{
					"indexed": true,
					"internalType": "uint256",
					"name": "tokenid",
					"type": "uint256"
				}
			],
			"name": "UpgradeEvent",
			"type": "event"
		},
		{
			"inputs": [],
			"name": "_aGhost",
			"outputs": [
				{
					"internalType": "contract IOHGhost",
					"name": "",
					"type": "address"
				}
			],
			"stateMutability": "view",
			"type": "function"
		},
		{
			"inputs": [],
			"name": "_metaData",
			"outputs": [
				{
					"internalType": "contract OHMeta",
					"name": "",
					"type": "address"
				}
			],
			"stateMutability": "view",
			"type": "function"
		},
		{
			"inputs": [
				{
					"internalType": "address",
					"name": "to",
					"type": "address"
				},
				{
					"internalType": "uint256",
					"name": "tokenId",
					"type": "uint256"
				}
			],
			"name": "approve",
			"outputs": [],
			"stateMutability": "nonpayable",
			"type": "function"
		},
		{
			"inputs": [
				{
					"internalType": "address",
					"name": "owner",
					"type": "address"
				}
			],
			"name": "balanceOf",
			"outputs": [
				{
					"internalType": "uint256",
					"name": "",
					"type": "uint256"
				}
			],
			"stateMutability": "view",
			"type": "function"
		},
		{
			"inputs": [],
			"name": "decimals",
			"outputs": [
				{
					"internalType": "uint256",
					"name": "",
					"type": "uint256"
				}
			],
			"stateMutability": "view",
			"type": "function"
		},
		{
			"inputs": [
				{
					"internalType": "uint256",
					"name": "tokenId",
					"type": "uint256"
				}
			],
			"name": "getApproved",
			"outputs": [
				{
					"internalType": "address",
					"name": "",
					"type": "address"
				}
			],
			"stateMutability": "view",
			"type": "function"
		},
		{
			"inputs": [
				{
					"internalType": "address",
					"name": "owner",
					"type": "address"
				},
				{
					"internalType": "address",
					"name": "operator",
					"type": "address"
				}
			],
			"name": "isApprovedForAll",
			"outputs": [
				{
					"internalType": "bool",
					"name": "",
					"type": "bool"
				}
			],
			"stateMutability": "view",
			"type": "function"
		},
		{
			"inputs": [
				{
					"internalType": "uint256",
					"name": "wid",
					"type": "uint256"
				}
			],
			"name": "levelup",
			"outputs": [
				{
					"components": [
						{
							"internalType": "uint256",
							"name": "level",
							"type": "uint256"
						},
						{
							"internalType": "uint256",
							"name": "minatk",
							"type": "uint256"
						},
						{
							"internalType": "uint256",
							"name": "maxatk",
							"type": "uint256"
						},
						{
							"internalType": "uint8",
							"name": "wtype",
							"type": "uint8"
						},
						{
							"internalType": "uint256",
							"name": "nature",
							"type": "uint256"
						},
						{
							"internalType": "uint256",
							"name": "gid",
							"type": "uint256"
						}
					],
					"internalType": "struct OHWeaponProp",
					"name": "",
					"type": "tuple"
				}
			],
			"stateMutability": "payable",
			"type": "function"
		},
		{
			"inputs": [
				{
					"internalType": "address",
					"name": "player",
					"type": "address"
				},
				{
					"internalType": "uint8",
					"name": "wtype",
					"type": "uint8"
				}
			],
			"name": "mint",
			"outputs": [
				{
					"components": [
						{
							"internalType": "uint256",
							"name": "level",
							"type": "uint256"
						},
						{
							"internalType": "uint256",
							"name": "minatk",
							"type": "uint256"
						},
						{
							"internalType": "uint256",
							"name": "maxatk",
							"type": "uint256"
						},
						{
							"internalType": "uint8",
							"name": "wtype",
							"type": "uint8"
						},
						{
							"internalType": "uint256",
							"name": "nature",
							"type": "uint256"
						},
						{
							"internalType": "uint256",
							"name": "gid",
							"type": "uint256"
						}
					],
					"internalType": "struct OHWeaponProp",
					"name": "",
					"type": "tuple"
				}
			],
			"stateMutability": "nonpayable",
			"type": "function"
		},
		{
			"inputs": [],
			"name": "name",
			"outputs": [
				{
					"internalType": "string",
					"name": "",
					"type": "string"
				}
			],
			"stateMutability": "view",
			"type": "function"
		},
		{
			"inputs": [],
			"name": "owner",
			"outputs": [
				{
					"internalType": "address",
					"name": "",
					"type": "address"
				}
			],
			"stateMutability": "view",
			"type": "function"
		},
		{
			"inputs": [
				{
					"internalType": "uint256",
					"name": "tokenId",
					"type": "uint256"
				}
			],
			"name": "ownerOf",
			"outputs": [
				{
					"internalType": "address",
					"name": "",
					"type": "address"
				}
			],
			"stateMutability": "view",
			"type": "function"
		},
		{
			"inputs": [],
			"name": "price",
			"outputs": [
				{
					"internalType": "uint256",
					"name": "",
					"type": "uint256"
				}
			],
			"stateMutability": "view",
			"type": "function"
		},
		{
			"inputs": [
				{
					"internalType": "uint256",
					"name": "wid",
					"type": "uint256"
				}
			],
			"name": "props",
			"outputs": [
				{
					"components": [
						{
							"internalType": "uint256",
							"name": "level",
							"type": "uint256"
						},
						{
							"internalType": "uint256",
							"name": "minatk",
							"type": "uint256"
						},
						{
							"internalType": "uint256",
							"name": "maxatk",
							"type": "uint256"
						},
						{
							"internalType": "uint8",
							"name": "wtype",
							"type": "uint8"
						},
						{
							"internalType": "uint256",
							"name": "nature",
							"type": "uint256"
						},
						{
							"internalType": "uint256",
							"name": "gid",
							"type": "uint256"
						}
					],
					"internalType": "struct OHWeaponProp",
					"name": "",
					"type": "tuple"
				}
			],
			"stateMutability": "view",
			"type": "function"
		},
		{
			"inputs": [],
			"name": "renounceOwnership",
			"outputs": [],
			"stateMutability": "nonpayable",
			"type": "function"
		},
		{
			"inputs": [
				{
					"internalType": "address",
					"name": "from",
					"type": "address"
				},
				{
					"internalType": "address",
					"name": "to",
					"type": "address"
				},
				{
					"internalType": "uint256",
					"name": "tokenId",
					"type": "uint256"
				}
			],
			"name": "safeTransferFrom",
			"outputs": [],
			"stateMutability": "nonpayable",
			"type": "function"
		},
		{
			"inputs": [
				{
					"internalType": "address",
					"name": "from",
					"type": "address"
				},
				{
					"internalType": "address",
					"name": "to",
					"type": "address"
				},
				{
					"internalType": "uint256",
					"name": "tokenId",
					"type": "uint256"
				},
				{
					"internalType": "bytes",
					"name": "_data",
					"type": "bytes"
				}
			],
			"name": "safeTransferFrom",
			"outputs": [],
			"stateMutability": "nonpayable",
			"type": "function"
		},
		{
			"inputs": [
				{
					"internalType": "address",
					"name": "operator",
					"type": "address"
				},
				{
					"internalType": "bool",
					"name": "approved",
					"type": "bool"
				}
			],
			"name": "setApprovalForAll",
			"outputs": [],
			"stateMutability": "nonpayable",
			"type": "function"
		},
		{
			"inputs": [
				{
					"internalType": "string",
					"name": "uri",
					"type": "string"
				}
			],
			"name": "setBaseURI",
			"outputs": [],
			"stateMutability": "nonpayable",
			"type": "function"
		},
		{
			"inputs": [
				{
					"internalType": "address",
					"name": "ghostAddr",
					"type": "address"
				}
			],
			"name": "setGhost",
			"outputs": [],
			"stateMutability": "nonpayable",
			"type": "function"
		},
		{
			"inputs": [
				{
					"internalType": "address",
					"name": "metaAddr",
					"type": "address"
				}
			],
			"name": "setMeta",
			"outputs": [],
			"stateMutability": "nonpayable",
			"type": "function"
		},
		{
			"inputs": [],
			"name": "ss",
			"outputs": [
				{
					"internalType": "uint8",
					"name": "",
					"type": "uint8"
				}
			],
			"stateMutability": "view",
			"type": "function"
		},
		{
			"inputs": [
				{
					"internalType": "bytes4",
					"name": "interfaceId",
					"type": "bytes4"
				}
			],
			"name": "supportsInterface",
			"outputs": [
				{
					"internalType": "bool",
					"name": "",
					"type": "bool"
				}
			],
			"stateMutability": "view",
			"type": "function"
		},
		{
			"inputs": [],
			"name": "symbol",
			"outputs": [
				{
					"internalType": "string",
					"name": "",
					"type": "string"
				}
			],
			"stateMutability": "view",
			"type": "function"
		},
		{
			"inputs": [
				{
					"internalType": "uint256",
					"name": "index",
					"type": "uint256"
				}
			],
			"name": "tokenByIndex",
			"outputs": [
				{
					"internalType": "uint256",
					"name": "",
					"type": "uint256"
				}
			],
			"stateMutability": "view",
			"type": "function"
		},
		{
			"inputs": [
				{
					"internalType": "address",
					"name": "owner",
					"type": "address"
				},
				{
					"internalType": "uint256",
					"name": "index",
					"type": "uint256"
				}
			],
			"name": "tokenOfOwnerByIndex",
			"outputs": [
				{
					"internalType": "uint256",
					"name": "",
					"type": "uint256"
				}
			],
			"stateMutability": "view",
			"type": "function"
		},
		{
			"inputs": [
				{
					"internalType": "address",
					"name": "player",
					"type": "address"
				}
			],
			"name": "tokenOfOwners",
			"outputs": [
				{
					"internalType": "uint256[]",
					"name": "",
					"type": "uint256[]"
				}
			],
			"stateMutability": "view",
			"type": "function"
		},
		{
			"inputs": [
				{
					"internalType": "uint256",
					"name": "tokenId",
					"type": "uint256"
				}
			],
			"name": "tokenURI",
			"outputs": [
				{
					"internalType": "string",
					"name": "",
					"type": "string"
				}
			],
			"stateMutability": "view",
			"type": "function"
		},
		{
			"inputs": [],
			"name": "totalSupply",
			"outputs": [
				{
					"internalType": "uint256",
					"name": "",
					"type": "uint256"
				}
			],
			"stateMutability": "view",
			"type": "function"
		},
		{
			"inputs": [
				{
					"internalType": "address",
					"name": "from",
					"type": "address"
				},
				{
					"internalType": "address",
					"name": "to",
					"type": "address"
				},
				{
					"internalType": "uint256",
					"name": "tokenId",
					"type": "uint256"
				}
			],
			"name": "transferFrom",
			"outputs": [],
			"stateMutability": "nonpayable",
			"type": "function"
		},
		{
			"inputs": [
				{
					"internalType": "address",
					"name": "newOwner",
					"type": "address"
				}
			],
			"name": "transferOwnership",
			"outputs": [],
			"stateMutability": "nonpayable",
			"type": "function"
		}
	]
}